{
	"data": {
		"bytecode": {
			"linkReferences": {},
			"object": "6000600481905560098054600160ff19909116179055608081905260a081905260c081905260e0819052600f80546001600160401b031990811690915560c86101008190526101208190526101408190526101608190526010805461ffff60301b1961ffff60201b1963ffff00001961ffff199384168617811662c80000908117831664c800000000908117851666c8000000000000908117978890556101808990526101a08990526101c08990526101e0899052601180549097169098179092161790911617169092179091556102008390526102208390526102408390526102609290925260128054909116905561030060405261ffff6201000082048116610280818152640100000000840483166102a081905266010000000000009094049092166102c081905291926102e092916200013d9190620004ae565b620001499190620004ae565b61ffff90811690915281516013805460208086015160408088015160609889015161ffff199586169789169790971763ffff00001990811662010000948a1685021761ffff60201b19908116640100000000938b16939093029290921761ffff60301b19908116660100000000000099909a169890980298909817909555805160a08101825260c8808252938101849052908101839052968701829052612710608090970196909652601480549092161790931662c80000171664c800000000171666c80000000000001761ffff60401b19166927100000000000000000179055601b805473fe9ebe595617baf16101a6bd607248d538d7ec8b6001600160a01b03199091161760ff60a81b191690556022805461ffff60ff60b01b01191690556000805462010000600160b01b03191633909202919091179055620002b06200029262000390565b737a250d5630b4cf539739df2c5dacb4c659f2488d60001962000394565b620002d330737a250d5630b4cf539739df2c5dacb4c659f2488d60001962000394565b600160066000620002e362000459565b6001600160a01b0316815260208082019290925260409081016000908120805494151560ff199586161790553081526006909252812080548316600190811790915561dead82527f1aecba4ebe7a4e0673e4891b2b092b2228e4322380b579fb494fad3da8586e2280549093168117909255600b906200036262000459565b6001600160a01b031681526020810191909152604001600020805460ff1916911515919091179055620004e1565b3390565b6001600160a01b038316620003c65760405162461bcd60e51b8152600401620003bd906200046e565b60405180910390fd5b6001600160a01b038216620003ef5760405162461bcd60e51b8152600401620003bd906200046e565b6001600160a01b0380841660008181526005602090815260408083209487168084529490915290819020849055517f8c5be1e5ebec7d5bd14f71427d1e84f3dd0314c0f7b2291e5b200ac8c7c3b925906200044c908590620004a5565b60405180910390a3505050565b6000546201000090046001600160a01b031690565b60208082526013908201527f45524332303a205a65726f204164647265737300000000000000000000000000604082015260600190565b90815260200190565b600061ffff808316818516808303821115620004d857634e487b7160e01b84526011600452602484fd5b01949350505050565b61486080620004f16000396000f3fe6080604052600436106103035760003560e01c80637b45d43111610190578063bc77169d116100dc578063dd62ed3e11610095578063ee5d9c2d1161006f578063ee5d9c2d14610895578063f6540ec7146108aa578063fb78680d146108bf578063fdb78c0e146108df5761030a565b8063dd62ed3e14610835578063eafb5a3c14610855578063eb50e70e146108755761030a565b8063bc77169d14610796578063becdf13f146107b6578063c2fa418f146107d6578063c6831cd8146107eb578063cab5ebea14610800578063cf847706146108205761030a565b80638a8c523c11610149578063a457c2d711610123578063a457c2d714610716578063a9059cbb14610736578063aa22b17214610756578063aa545473146107765761030a565b80638a8c523c146106d75780638da5cb5b146106ec57806395d89b41146107015761030a565b80637b45d431146106335780637ed57c8b1461065857806380c581d11461066d57806388f820201461068d578063893d20e8146106ad5780638a63bd9b146106c25761030a565b806333251a0b1161024f5780634fbee193116102085780635c24b074116101e25780635c24b074146105c957806364038409146105e957806370a08231146105fe578063715018a61461061e5761030a565b80634fbee1931461057457806350a8e01614610594578063590ffdce146105a95761030a565b806333251a0b146104ca57806339509351146104ea5780633f3cf56c1461050a578063452ed4f11461052a5780634ada218b1461053f5780634fb2e45d146105545761030a565b806318160ddd116102bc5780632600395711610296578063260039571461044857806329dd8798146104685780632d83811914610488578063313ce567146104a85761030a565b806318160ddd146103e05780631b6afa2d1461040257806323b872dd146104285761030a565b806303fd2a451461030f57806306fdde031461033a5780630758d9241461035c5780630923160214610371578063095ea7b31461039357806313e46192146103c05761030a565b3661030a57005b600080fd5b34801561031b57600080fd5b506103246108f4565b6040516103319190613f29565b60405180910390f35b34801561034657600080fd5b5061034f6108fa565b604051610331919061402e565b34801561036857600080fd5b5061032461098d565b34801561037d57600080fd5b5061039161038c366004613e92565b61099c565b005b34801561039f57600080fd5b506103b36103ae366004613d3f565b610a6b565b6040516103319190614002565b3480156103cc57600080fd5b506103916103db366004613d12565b610a88565b3480156103ec57600080fd5b506103f5610de6565b604051610331919061464c565b34801561040e57600080fd5b50610417610dec565b60405161033195949392919061461f565b34801561043457600080fd5b506103b3610443366004613cd2565b610e1f565b34801561045457600080fd5b50610391610463366004613eaa565b610e97565b34801561047457600080fd5b50610391610483366004613da2565b610f45565b34801561049457600080fd5b506103f56104a3366004613e92565b610ff3565b3480156104b457600080fd5b506104bd611036565b60405161033191906146db565b3480156104d657600080fd5b506103916104e5366004613c62565b61103f565b3480156104f657600080fd5b506103b3610505366004613d3f565b6110af565b34801561051657600080fd5b50610391610525366004613eaa565b611103565b34801561053657600080fd5b506103246111b1565b34801561054b57600080fd5b506103b36111c0565b34801561056057600080fd5b5061039161056f366004613c62565b6111c9565b34801561058057600080fd5b506103b361058f366004613c62565b61134e565b3480156105a057600080fd5b506103b361136c565b3480156105b557600080fd5b506103916105c4366004613d12565b61137a565b3480156105d557600080fd5b506103916105e4366004613c62565b6113e0565b3480156105f557600080fd5b506103f561146d565b34801561060a57600080fd5b506103f5610619366004613c62565b611473565b34801561062a57600080fd5b506103916114db565b34801561063f57600080fd5b50610648611584565b60405161033194939291906145f9565b34801561066457600080fd5b506103916115ac565b34801561067957600080fd5b50610391610688366004613d12565b611adc565b34801561069957600080fd5b506103b36106a8366004613c62565b611c6e565b3480156106b957600080fd5b50610324611c8c565b3480156106ce57600080fd5b506103b3611c9b565b3480156106e357600080fd5b50610391611cf8565b3480156106f857600080fd5b50610324611e18565b34801561070d57600080fd5b5061034f611e2d565b34801561072257600080fd5b506103b3610731366004613d3f565b611e3c565b34801561074257600080fd5b506103b3610751366004613d3f565b611e8b565b34801561076257600080fd5b50610391610771366004613dfd565b611ea9565b34801561078257600080fd5b50610391610791366004613e3f565b611f91565b3480156107a257600080fd5b506103916107b1366004613e3f565b6120ba565b3480156107c257600080fd5b506103916107d1366004613e3f565b6121e3565b3480156107e257600080fd5b5061064861230c565b3480156107f757600080fd5b50610648612334565b34801561080c57600080fd5b5061039161081b366004613d6a565b61235c565b34801561082c57600080fd5b506106486123e9565b34801561084157600080fd5b506103f5610850366004613c9a565b612411565b34801561086157600080fd5b50610391610870366004613c62565b61243c565b34801561088157600080fd5b50610391610890366004613c62565b6127bd565b3480156108a157600080fd5b5061039161281a565b3480156108b657600080fd5b506103f56128c0565b3480156108cb57600080fd5b506103916108da366004613ef8565b6128c6565b3480156108eb57600080fd5b506103b3612940565b61dead81565b6060600d805461090990614771565b80601f016020809104026020016040519081016040528092919081815260200182805461093590614771565b80156109825780601f1061095757610100808354040283529160200191610982565b820191906000526020600020905b81548152906001019060200180831161096557829003601f168201915b505050505090505b90565b6019546001600160a01b031681565b6109a4612950565b6000546201000090046001600160a01b039081169116146109e05760405162461bcd60e51b81526004016109d790614167565b60405180910390fd5b604b811015610a015760405162461bcd60e51b81526004016109d7906140fb565b6022546040516304918b0160e11b8152620100009091046001600160a01b031690630923160290610a3690849060040161464c565b600060405180830381600087803b158015610a5057600080fd5b505af1158015610a64573d6000803e3d6000fd5b5050505050565b6000610a7f610a78612950565b8484612954565b50600192915050565b610a90612950565b6000546201000090046001600160a01b03908116911614610ac35760405162461bcd60e51b81526004016109d790614167565b60018115151415610bcb576001600160a01b03821660009081526007602052604090205460ff1615610b075760405162461bcd60e51b81526004016109d790614335565b6001600160a01b03821660009081526001602052604090205415610b61576001600160a01b038216600090815260016020526040902054610b4790610ff3565b6001600160a01b0383166000908152600260205260409020555b6001600160a01b0382166000818152600760205260408120805460ff191660019081179091556008805491820181559091527ff3f7a9fe364faab93b216da50a3214154f22a0a2b415b23a84c8169e8b636ee30180546001600160a01b0319169091179055610de2565b80610de2576001600160a01b03821660009081526007602052604090205460ff16610c085760405162461bcd60e51b81526004016109d79061420a565b60085460011415610c86576001600160a01b038216600090815260026020908152604080832083905560079091529020805460ff191690556008805480610c5f57634e487b7160e01b600052603160045260246000fd5b600082815260209020810160001990810180546001600160a01b0319169055019055610de2565b60005b600854811015610de057826001600160a01b031660088281548110610cbe57634e487b7160e01b600052603260045260246000fd5b6000918252602090912001546001600160a01b03161415610dce5760088054610ce99060019061475a565b81548110610d0757634e487b7160e01b600052603260045260246000fd5b600091825260209091200154600880546001600160a01b039092169183908110610d4157634e487b7160e01b600052603260045260246000fd5b600091825260208083209190910180546001600160a01b0319166001600160a01b039485161790559185168152600282526040808220829055600790925220805460ff191690556008805480610da757634e487b7160e01b600052603160045260246000fd5b600082815260209020810160001990810180546001600160a01b0319169055019055610de0565b80610dd8816147ac565b915050610c89565b505b5050565b60165490565b60145461ffff80821691620100008104821691600160201b8204811691600160301b8104821691600160401b9091041685565b6001600160a01b038316600090815260056020908152604080832033845290915281205460001914610e84576001600160a01b038416600090815260056020908152604080832033845290915281208054849290610e7e90849061475a565b90915550505b610e8f848484612a08565b949350505050565b610e9f612950565b6000546201000090046001600160a01b03908116911614610ed25760405162461bcd60e51b81526004016109d790614167565b60008183601654610ee3919061473b565b610eed9190614727565b90506103e8601654610eff9190614727565b811015610f1e5760405162461bcd60e51b81526004016109d7906142e3565b601e819055600c548290610f3390859061473b565b610f3d9190614727565b601f55505050565b610f4d612950565b6000546201000090046001600160a01b03908116911614610f805760405162461bcd60e51b81526004016109d790614167565b602254604051630109da6960e01b8152620100009091046001600160a01b031690630109da6990610fbb90879087908790879060040161400d565b600060405180830381600087803b158015610fd557600080fd5b505af1158015610fe9573d6000803e3d6000fd5b5050505050505050565b60006017548211156110175760405162461bcd60e51b81526004016109d79061411d565b6000611021612c65565b905061102d8184614727565b9150505b919050565b60155460ff1690565b611047612950565b6000546201000090046001600160a01b0390811691161461107a5760405162461bcd60e51b81526004016109d790614167565b6022546040516333251a0b60e01b8152620100009091046001600160a01b0316906333251a0b90610a36908490600401613f29565b6000610a7f6110bc612950565b8484600560006110ca612950565b6001600160a01b03908116825260208083019390935260409182016000908120918b16815292529020546110fe919061470f565b612954565b61110b612950565b6000546201000090046001600160a01b0390811691161461113e5760405162461bcd60e51b81526004016109d790614167565b6000818360165461114f919061473b565b6111599190614727565b90506103e860165461116b9190614727565b81101561118a5760405162461bcd60e51b81526004016109d790614241565b601c819055600c54829061119f90859061473b565b6111a99190614727565b601d55505050565b601a546001600160a01b031681565b60225460ff1681565b6111d1612950565b6000546201000090046001600160a01b039081169116146112045760405162461bcd60e51b81526004016109d790614167565b6001600160a01b03811661121757600080fd5b6001600160a01b03811661dead141561122f57600080fd5b61124f600060029054906101000a90046001600160a01b0316600061137a565b61125a81600161137a565b60225460ff161561127057611270816001610a88565b600054601b546001600160a01b03908116620100009092041614156112ab57601b80546001600160a01b0319166001600160a01b0383161790555b600080546112c7906201000090046001600160a01b0316611473565b11156112f4576000546112f2906201000090046001600160a01b0316826112ed82611473565b612a08565b505b6000805462010000600160b01b031916620100006001600160a01b0384811682810293909317808555604051939492900416917f8be0079c531659141344cd1fd0a4f28419497f9722a3daafe3b4186f6b6457e09190a350565b6001600160a01b031660009081526006602052604090205460ff1690565b602254610100900460ff1681565b611382612950565b6000546201000090046001600160a01b039081169116146113b55760405162461bcd60e51b81526004016109d790614167565b6001600160a01b03919091166000908152600660205260409020805460ff1916911515919091179055565b6113e8612950565b6000546201000090046001600160a01b0390811691161461141b5760405162461bcd60e51b81526004016109d790614167565b602254610100900460ff16156114435760405162461bcd60e51b81526004016109d79061455e565b602280546001600160a01b03909216620100000262010000600160b01b0319909216919091179055565b601d5481565b6001600160a01b03811660009081526007602052604081205460ff16156114b357506001600160a01b038116600090815260026020526040902054611031565b6001600160a01b0382166000908152600160205260409020546114d590610ff3565b92915050565b6114e3612950565b6000546201000090046001600160a01b039081169116146115165760405162461bcd60e51b81526004016109d790614167565b611536600060029054906101000a90046001600160a01b0316600061137a565b6000805462010000600160b01b031916808255604051620100009091046001600160a01b0316907f8be0079c531659141344cd1fd0a4f28419497f9722a3daafe3b4186f6b6457e0908390a3565b60105461ffff80821691620100008104821691600160201b8204811691600160301b90041684565b6115b4612950565b6000546201000090046001600160a01b039081169116146115e75760405162461bcd60e51b81526004016109d790614167565b602254600160b01b900460ff16156116115760405162461bcd60e51b81526004016109d790614499565b604080518082019091526005808252642a37b5b2b760d91b602090920191825261163d91600d91613b81565b5060408051808201909152600380825262544f4b60e81b602090920191825261166891600e91613b81565b506015805460ff191660121790556a52b7d2dcc80cd2e40000006016819055611693906000196147c7565b61169f9060001961475a565b601755601980546001600160a01b031916737a250d5630b4cf539739df2c5dacb4c659f2488d17908190556040805163c45a015560e01b815290516001600160a01b03929092169163c45a015591600480820192602092909190829003018186803b15801561170d57600080fd5b505afa158015611721573d6000803e3d6000fd5b505050506040513d601f19601f820116820180604052508101906117459190613c7e565b6001600160a01b031663c9c65396601960009054906101000a90046001600160a01b03166001600160a01b031663ad5c46486040518163ffffffff1660e01b815260040160206040518083038186803b1580156117a157600080fd5b505afa1580156117b5573d6000803e3d6000fd5b505050506040513d601f19601f820116820180604052508101906117d99190613c7e565b306040518363ffffffff1660e01b81526004016117f7929190613f3d565b602060405180830381600087803b15801561181157600080fd5b505af1158015611825573d6000803e3d6000fd5b505050506040513d601f19601f820116820180604052508101906118499190613c7e565b601a80546001600160a01b0319166001600160a01b039283161790819055166000908152600360205260409020805460ff191660011790556016546002906103e890819061189890849061473b565b6118a29190614727565b601c55600c5481906118b590849061473b565b6118bf9190614727565b601d5550506016546037906127109081906118db90849061473b565b6118e59190614727565b601e55600c5481906118f890849061473b565b6119029190614727565b601f556016546127109061191790600561473b565b6119219190614727565b6020556016546103e89061193690600561473b565b6119409190614727565b6021556022546201000090046001600160a01b0316611973576022805462010000600160b01b0319163062010000021790555b6022805460ff60b01b1916600160b01b17905560175460016000611995611e18565b6001600160a01b031681526020810191909152604001600020556119b7611e18565b6001600160a01b031660006001600160a01b03167fddf252ad1be2c89b69c2b068fc378daa952ba7f163c4a11628f55a4df523b3ef6016546040516119fc919061464c565b60405180910390a3601954611a1e9030906001600160a01b0316600019612954565b611a35611a29611e18565b306112ed610619611e18565b506019546001600160a01b031663f305d7194730611a5281611473565b600080611a5d611e18565b426040518863ffffffff1660e01b8152600401611a7f96959493929190613f96565b6060604051808303818588803b158015611a9857600080fd5b505af1158015611aac573d6000803e3d6000fd5b50505050506040513d601f19601f82011682018060405250810190611ad19190613ecb565b505050610de2611cf8565b611ae4612950565b6000546201000090046001600160a01b03908116911614611b175760405162461bcd60e51b81526004016109d790614167565b80611ba4576001600160a01b03808316600090815260036020526040808220805460ff1916905560225490516380c581d160e01b815262010000909104909216916380c581d191611b6d91869190600401613f7b565b600060405180830381600087803b158015611b8757600080fd5b505af1158015611b9b573d6000803e3d6000fd5b50505050610de2565b60045415611bdb5762093a8060045442611bbe919061475a565b11611bdb5760405162461bcd60e51b81526004016109d7906141d5565b6001600160a01b0380831660009081526003602052604090819020805460ff1916600190811790915542600490815560225492516380c581d160e01b815262010000909304909316926380c581d192611c38928792909101613f7b565b600060405180830381600087803b158015611c5257600080fd5b505af1158015611c66573d6000803e3d6000fd5b505050505050565b6001600160a01b031660009081526007602052604090205460ff1690565b6000611c96611e18565b905090565b6000611ca5612950565b6000546201000090046001600160a01b03908116911614611cd85760405162461bcd60e51b81526004016109d790614167565b601954611cf29030906001600160a01b0316600019612954565b50600190565b611d00612950565b6000546201000090046001600160a01b03908116911614611d335760405162461bcd60e51b81526004016109d790614167565b60225460ff1615611d565760405162461bcd60e51b81526004016109d790614595565b602254610100900460ff16611d7d5760405162461bcd60e51b81526004016109d7906143b4565b611d88306001610a88565b601a54611d9f906001600160a01b03166001610a88565b602254601a546040516312ce3c7560e21b81526001600160a01b0362010000909304831692634b38f1d492611ddd9291169043904290600401613fd1565b600060405180830381600087803b158015611df757600080fd5b505af1925050508015611e08575060015b506022805460ff19166001179055565b6000546201000090046001600160a01b031690565b6060600e805461090990614771565b6000610a7f611e49612950565b848460056000611e57612950565b6001600160a01b03908116825260208083019390935260409182016000908120918b16815292529020546110fe919061475a565b6000611e9f611e98612950565b8484612a08565b5060019392505050565b611eb1612950565b6000546201000090046001600160a01b03908116911614611ee45760405162461bcd60e51b81526004016109d790614167565b80611eef83856146e9565b611ef991906146e9565b61ffff16606414611f1c5760405162461bcd60e51b81526004016109d7906145cc565b6013805461ffff191661ffff8581169190911763ffff0000191662010000858316021761ffff60201b1916600160201b9184169190910217905580611f6183856146e9565b611f6b91906146e9565b6013805461ffff92909216600160301b0261ffff60301b19909216919091179055505050565b611f99612950565b6000546201000090046001600160a01b03908116911614611fcc5760405162461bcd60e51b81526004016109d790614167565b60145461ffff90811690851611801590611ff6575060145461ffff62010000909104811690841611155b8015612013575060145461ffff600160201b909104811690831611155b8015612030575060145461ffff600160301b909104811690821611155b61203957600080fd5b611194818361204887876146e9565b61205291906146e9565b61205c91906146e9565b61ffff16111561206b57600080fd5b6012805463ffff000019166201000061ffff958616021761ffff19169484169490941761ffff60301b1916600160301b918416919091021761ffff60201b1916600160201b9190921602179055565b6120c2612950565b6000546201000090046001600160a01b039081169116146120f55760405162461bcd60e51b81526004016109d790614167565b60145461ffff9081169085161180159061211f575060145461ffff62010000909104811690841611155b801561213c575060145461ffff600160201b909104811690831611155b8015612159575060145461ffff600160301b909104811690821611155b61216257600080fd5b611194818361217187876146e9565b61217b91906146e9565b61218591906146e9565b61ffff16111561219457600080fd5b6010805463ffff000019166201000061ffff958616021761ffff19169484169490941761ffff60301b1916600160301b918416919091021761ffff60201b1916600160201b9190921602179055565b6121eb612950565b6000546201000090046001600160a01b0390811691161461221e5760405162461bcd60e51b81526004016109d790614167565b60145461ffff90811690851611801590612248575060145461ffff62010000909104811690841611155b8015612265575060145461ffff600160201b909104811690831611155b8015612282575060145461ffff600160301b909104811690821611155b61228b57600080fd5b611194818361229a87876146e9565b6122a491906146e9565b6122ae91906146e9565b61ffff1611156122bd57600080fd5b6011805463ffff000019166201000061ffff958616021761ffff19169484169490941761ffff60301b1916600160301b918416919091021761ffff60201b1916600160201b9190921602179055565b60125461ffff80821691620100008104821691600160201b8204811691600160301b90041684565b60115461ffff80821691620100008104821691600160201b8204811691600160301b90041684565b612364612950565b6000546201000090046001600160a01b039081169116146123975760405162461bcd60e51b81526004016109d790614167565b601b805460ff60a81b1916600160a81b831515021790556040517f7b0a47d3b0234280b6c9213c5bbff44c8b6001bea7770b3950280f9141053257906123de908390614002565b60405180910390a150565b60135461ffff80821691620100008104821691600160201b8204811691600160301b90041684565b6001600160a01b03918216600090815260056020908152604080832093909416825291909152205490565b612444612950565b6000546201000090046001600160a01b039081169116146124775760405162461bcd60e51b81526004016109d790614167565b60008190506000816001600160a01b031663c45a01556040518163ffffffff1660e01b815260040160206040518083038186803b1580156124b757600080fd5b505afa1580156124cb573d6000803e3d6000fd5b505050506040513d601f19601f820116820180604052508101906124ef9190613c7e565b6001600160a01b031663e6a4390530846001600160a01b031663ad5c46486040518163ffffffff1660e01b815260040160206040518083038186803b15801561253757600080fd5b505afa15801561254b573d6000803e3d6000fd5b505050506040513d601f19601f8201168201806040525081019061256f9190613c7e565b6040518363ffffffff1660e01b815260040161258c929190613f3d565b60206040518083038186803b1580156125a457600080fd5b505afa1580156125b8573d6000803e3d6000fd5b505050506040513d601f19601f820116820180604052508101906125dc9190613c7e565b90506001600160a01b03811661277157816001600160a01b031663c45a01556040518163ffffffff1660e01b815260040160206040518083038186803b15801561262557600080fd5b505afa158015612639573d6000803e3d6000fd5b505050506040513d601f19601f8201168201806040525081019061265d9190613c7e565b6001600160a01b031663c9c6539630846001600160a01b031663ad5c46486040518163ffffffff1660e01b815260040160206040518083038186803b1580156126a557600080fd5b505afa1580156126b9573d6000803e3d6000fd5b505050506040513d601f19601f820116820180604052508101906126dd9190613c7e565b6040518363ffffffff1660e01b81526004016126fa929190613f3d565b602060405180830381600087803b15801561271457600080fd5b505af1158015612728573d6000803e3d6000fd5b505050506040513d601f19601f8201168201806040525081019061274c9190613c7e565b601a80546001600160a01b0319166001600160a01b039290921691909117905561278d565b601a80546001600160a01b0319166001600160a01b0383161790555b601980546001600160a01b0319166001600160a01b038481169190911791829055610de091309116600019612954565b6127c5612950565b6000546201000090046001600160a01b039081169116146127f85760405162461bcd60e51b81526004016109d790614167565b601b80546001600160a01b0319166001600160a01b0392909216919091179055565b612822612950565b6000546201000090046001600160a01b039081169116146128555760405162461bcd60e51b81526004016109d790614167565b602254610100900460ff161561287d5760405162461bcd60e51b81526004016109d790614435565b612885611e18565b6001600160a01b03166108fc479081150290604051600060405180830381858888f193505050501580156128bd573d6000803e3d6000fd5b50565b601f5481565b6128ce612950565b6000546201000090046001600160a01b039081169116146129015760405162461bcd60e51b81526004016109d790614167565b8284601654612910919061473b565b61291a9190614727565b602055601654819061292d90849061473b565b6129379190614727565b60215550505050565b601b54600160a81b900460ff1681565b3390565b6001600160a01b03831661297a5760405162461bcd60e51b81526004016109d79061446c565b6001600160a01b0382166129a05760405162461bcd60e51b81526004016109d79061446c565b6001600160a01b0380841660008181526005602090815260408083209487168084529490915290819020849055517f8c5be1e5ebec7d5bd14f71427d1e84f3dd0314c0f7b2291e5b200ac8c7c3b925906129fb90859061464c565b60405180910390a3505050565b60006001600160a01b038416612a305760405162461bcd60e51b81526004016109d790614519565b6001600160a01b038316612a565760405162461bcd60e51b81526004016109d790614081565b60008211612a765760405162461bcd60e51b81526004016109d7906144d0565b612a808484612e39565b15612b8d5760225460ff16612aa75760405162461bcd60e51b81526004016109d7906140c4565b6001600160a01b03841660009081526003602052604090205460ff1680612ae657506001600160a01b03831660009081526003602052604090205460ff165b15612b0d57601c54821115612b0d5760405162461bcd60e51b81526004016109d79061436c565b6001600160a01b038316737a250d5630b4cf539739df2c5dacb4c659f2488d14801590612b5357506001600160a01b03831660009081526003602052604090205460ff16155b15612b8d57601e5482612b6585611473565b612b6f919061470f565b1115612b8d5760405162461bcd60e51b81526004016109d7906143eb565b6001600160a01b03841660009081526006602052604090205460019060ff1680612bcf57506001600160a01b03841660009081526006602052604090205460ff165b15612bd8575060005b6001600160a01b03841660009081526003602052604090205460ff1615612c5057601b54600160a01b900460ff16158015612c1c5750601b54600160a81b900460ff165b15612c50576000612c2c30611473565b90506020548110612c4e576021548110612c4557506021545b612c4e81612f0e565b505b612c5c858585846132b1565b95945050505050565b60175460165460009190825b600854811015612df757826001600060088481548110612ca157634e487b7160e01b600052603260045260246000fd5b60009182526020808320909101546001600160a01b031683528201929092526040019020541180612d1a5750816002600060088481548110612cf357634e487b7160e01b600052603260045260246000fd5b60009182526020808320909101546001600160a01b03168352820192909252604001902054115b15612d3957601654601754612d2f9190614727565b935050505061098a565b6001600060088381548110612d5e57634e487b7160e01b600052603260045260246000fd5b60009182526020808320909101546001600160a01b03168352820192909252604001902054612d8d908461475a565b92506002600060088381548110612db457634e487b7160e01b600052603260045260246000fd5b60009182526020808320909101546001600160a01b03168352820192909252604001902054612de3908361475a565b915080612def816147ac565b915050612c71565b50601654601754612e089190614727565b821015612e2857601654601754612e1f9190614727565b9250505061098a565b612e328183614727565b9250505090565b6000612e43611e18565b6001600160a01b0316836001600160a01b031614158015612e7d5750612e67611e18565b6001600160a01b0316826001600160a01b031614155b8015612ea257506001600160a01b0382166000908152600b602052604090205460ff16155b8015612ec757506001600160a01b0383166000908152600b602052604090205460ff16155b8015612ede57506001600160a01b03821661dead14155b8015612ef257506001600160a01b03821615155b8015612f0757506001600160a01b0383163014155b9392505050565b601b805460ff60a01b1916600160a01b17905560135461ffff600160301b90910416612f39576132a1565b3060009081526005602090815260408083206019546001600160a01b0316845290915290205460001914612f92573060009081526005602090815260408083206019546001600160a01b03168452909152902060001990555b60135460009060029061ffff600160301b8204811691612fb391168561473b565b612fbd9190614727565b612fc79190614727565b90506000612fd5828461475a565b6040805160028082526060820183529293506000929091602083019080368337019050509050308160008151811061301d57634e487b7160e01b600052603260045260246000fd5b6001600160a01b03928316602091820292909201810191909152601954604080516315ab88c960e31b81529051919093169263ad5c4648926004808301939192829003018186803b15801561307157600080fd5b505afa158015613085573d6000803e3d6000fd5b505050506040513d601f19601f820116820180604052508101906130a99190613c7e565b816001815181106130ca57634e487b7160e01b600052603260045260246000fd5b6001600160a01b03928316602091820292909201015260195460405163791ac94760e01b815291169063791ac94790613110908590600090869030904290600401614655565b600060405180830381600087803b15801561312a57600080fd5b505af115801561313e573d6000803e3d6000fd5b5050601354600092506002915061ffff600160301b820481169161316391164761473b565b61316d9190614727565b6131779190614727565b9050831561324f5760195460405163f305d71960e01b81526001600160a01b039091169063f305d7199083906131be9030908990600090819061dead904290600401613f96565b6060604051808303818588803b1580156131d757600080fd5b505af11580156131eb573d6000803e3d6000fd5b50505050506040513d601f19601f820116820180604052508101906132109190613ecb565b5050507f17bbfb9a6069321b6ded73bd96327c9e6b7212a5cd51ff219cd61370acafb561848286604051613246939291906146c5565b60405180910390a15b600061325b858761475a565b111561329c57601b546040516001600160a01b03909116904780156108fc02916000818181858888f1935050505015801561329a573d6000803e3d6000fd5b505b505050505b50601b805460ff60a01b19169055565b602254600090610100900460ff16613307576132cd8585613610565b602254610100900460ff161580156132ea57506132ea8585612e39565b156133075760405162461bcd60e51b81526004016109d79061429e565b60006133158686868661375f565b60808101516001600160a01b03881660009081526001602052604090205491925061333f9161475a565b6001600160a01b0380881660009081526001602052604080822093909355606084015191881681529190912054613376919061470f565b6001600160a01b0380871660009081526001602090815260408083209490945591891681526007909152205460ff1680156133ca57506001600160a01b03851660009081526007602052604090205460ff16155b15613411576001600160a01b0386166000908152600260205260409020546133f390859061475a565b6001600160a01b038716600090815260026020526040902055613551565b6001600160a01b03861660009081526007602052604090205460ff1615801561345257506001600160a01b03851660009081526007602052604090205460ff165b1561349a5780516001600160a01b03861660009081526002602052604090205461347c919061470f565b6001600160a01b038616600090815260026020526040902055613551565b6001600160a01b03861660009081526007602052604090205460ff1680156134da57506001600160a01b03851660009081526007602052604090205460ff165b15613551576001600160a01b03861660009081526002602052604090205461350390859061475a565b6001600160a01b0380881660009081526002602052604080822093909355835191881681529190912054613537919061470f565b6001600160a01b0386166000908152600260205260409020555b60408101511561356957613569868260400151613ab6565b60008160a001511180613580575060008160200151115b156135a1578060a001516017600082825461359b919061475a565b90915550505b8060200151601860008282546135b7919061470f565b909155505080516040516001600160a01b0380881692908916917fddf252ad1be2c89b69c2b068fc378daa952ba7f163c4a11628f55a4df523b3ef916135fc9161464c565b60405180910390a350600195945050505050565b602254610100900460ff16156136385760405162461bcd60e51b81526004016109d790614192565b6136428282612e39565b15801561365c5750601a546001600160a01b038281169116145b15610de2576001600160a01b0382163014156136ad576001600b6000613680611e18565b6001600160a01b031681526020810191909152604001600020805460ff19169115159190911790556136d1565b6001600160a01b0382166000908152600b60205260409020805460ff191660011790555b6022805461ff00191661010017908190556201000090046001600160a01b031661370f576022805462010000600160b01b0319163062010000021790555b601b805460ff60a81b1916600160a81b1790556040517f7b0a47d3b0234280b6c9213c5bbff44c8b6001bea7770b3950280f91410532579061375390600190614002565b60405180910390a15050565b613767613c05565b61376f613c05565b6000613779612c65565b9050613785818661473b565b60808301526137948787612e39565b156138355760225460405163ecd07a5360e01b81526000916201000090046001600160a01b03169063ecd07a53906137d4908b908b908b90600401613f57565b602060405180830381600087803b1580156137ee57600080fd5b505af192505050801561381e575060408051601f3d908101601f1916820190925261381b91810190613d86565b60015b61382757600080fd5b90508061383357600080fd5b505b8315613a60576001600160a01b03861660009081526003602052604090205460ff16156138bd57601154600f805461ffff80841661ffff199092169190911763ffff00001916620100008085048316021761ffff60201b1916600160201b8085048316021761ffff60301b1916600160301b938490049190911690920291909117905561399c565b6001600160a01b03871660009081526003602052604090205460ff161561393f57601054600f805461ffff80841661ffff199092169190911763ffff00001916620100008085048316021761ffff60201b1916600160201b8085048316021761ffff60301b1916600160301b938490049190911690920291909117905561399c565b601254600f805461ffff80841661ffff199092169190911761ffff60301b1916600160301b8085048316021763ffff00001916620100008085048316021761ffff60201b1916600160201b93849004919091169092029190911790555b601454600f5461ffff600160401b9092048216916139bb91168761473b565b6139c59190614727565b6020830152601454600f5461ffff600160401b909204821691600160301b8204811691613a0291600160201b8204811691620100009004166146e9565b613a0c91906146e9565b613a1a9061ffff168761473b565b613a249190614727565b604083018190526020830151613a3a919061470f565b613a44908661475a565b82526020820151613a5690829061473b565b60a0830152613a79565b6000602083018190526040830181905285835260a08301525b808260400151613a89919061473b565b8260a00151613a98919061470f565b8260800151613aa7919061475a565b60608301525095945050505050565b613abe612c65565b613ac8908261473b565b30600090815260016020526040902054613ae2919061470f565b3060009081526001602090815260408083209390935560079052205460ff1615613b325730600090815260026020526040902054613b2190829061470f565b306000908152600260205260409020555b306001600160a01b0316826001600160a01b03167fddf252ad1be2c89b69c2b068fc378daa952ba7f163c4a11628f55a4df523b3ef83604051613b75919061464c565b60405180910390a35050565b828054613b8d90614771565b90600052602060002090601f016020900481019282613baf5760008555613bf5565b82601f10613bc857805160ff1916838001178555613bf5565b82800160010185558215613bf5579182015b82811115613bf5578251825591602001919060010190613bda565b50613c01929150613c3b565b5090565b6040518060c001604052806000815260200160008152602001600081526020016000815260200160008152602001600081525090565b5b80821115613c015760008155600101613c3c565b803561ffff8116811461103157600080fd5b600060208284031215613c73578081fd5b8135612f0781614807565b600060208284031215613c8f578081fd5b8151612f0781614807565b60008060408385031215613cac578081fd5b8235613cb781614807565b91506020830135613cc781614807565b809150509250929050565b600080600060608486031215613ce6578081fd5b8335613cf181614807565b92506020840135613d0181614807565b929592945050506040919091013590565b60008060408385031215613d24578182fd5b8235613d2f81614807565b91506020830135613cc78161481c565b60008060408385031215613d51578182fd5b8235613d5c81614807565b946020939093013593505050565b600060208284031215613d7b578081fd5b8135612f078161481c565b600060208284031215613d97578081fd5b8151612f078161481c565b60008060008060808587031215613db7578081fd5b8435613dc28161481c565b93506020850135613dd28161481c565b92506040850135613de28161481c565b91506060850135613df28161481c565b939692955090935050565b600080600060608486031215613e11578283fd5b613e1a84613c50565b9250613e2860208501613c50565b9150613e3660408501613c50565b90509250925092565b60008060008060808587031215613e54578384fd5b613e5d85613c50565b9350613e6b60208601613c50565b9250613e7960408601613c50565b9150613e8760608601613c50565b905092959194509250565b600060208284031215613ea3578081fd5b5035919050565b60008060408385031215613ebc578182fd5b50508035926020909101359150565b600080600060608486031215613edf578081fd5b8351925060208401519150604084015190509250925092565b60008060008060808587031215613f0d578182fd5b5050823594602084013594506040840135936060013592509050565b6001600160a01b0391909116815260200190565b6001600160a01b0392831681529116602082015260400190565b6001600160a01b039384168152919092166020820152604081019190915260600190565b6001600160a01b039290921682521515602082015260400190565b6001600160a01b039687168152602081019590955260408501939093526060840191909152909216608082015260a081019190915260c00190565b6001600160a01b0393909316835263ffffffff91909116602083015267ffffffffffffffff16604082015260600190565b901515815260200190565b93151584529115156020840152151560408301521515606082015260800190565b6000602080835283518082850152825b8181101561405a5785810183015185820160400152820161403e565b8181111561406b5783604083870101525b50601f01601f1916929092016040019392505050565b60208082526023908201527f45524332303a207472616e7366657220746f20746865207a65726f206164647260408201526265737360e81b606082015260800190565b60208082526018908201527f54726164696e67206e6f742079657420656e61626c6564210000000000000000604082015260600190565b6020808252600890820152672a37b7903637bb9760c11b604082015260600190565b6020808252602a908201527f416d6f756e74206d757374206265206c657373207468616e20746f74616c207260408201526965666c656374696f6e7360b01b606082015260800190565b60208082526011908201527021b0b63632b9101e979e9037bbb732b91760791b604082015260600190565b60208082526023908201527f4c697175696469747920616c726561647920616464656420616e64206d61726b60408201526232b21760e91b606082015260800190565b6020808252818101527f43616e6e6f74207365742061206e657720706169722074686973207765656b21604082015260600190565b6020808252601c908201527f4163636f756e7420697320616c726561647920696e636c756465642e00000000604082015260600190565b60208082526037908201527f4d6178205472616e73616374696f6e20616d74206d7573742062652061626f7660408201527f6520302e3125206f6620746f74616c20737570706c792e000000000000000000606082015260800190565b60208082526025908201527f4f6e6c79206f776e65722063616e207472616e736665722061742074686973206040820152643a34b6b29760d91b606082015260800190565b60208082526032908201527f4d61782057616c6c657420616d74206d7573742062652061626f766520302e31604082015271129037b3103a37ba30b61039bab838363c9760711b606082015260800190565b6020808252601c908201527f4163636f756e7420697320616c7265616479206578636c756465642e00000000604082015260600190565b60208082526028908201527f5472616e7366657220616d6f756e74206578636565647320746865206d6178546040820152673c20b6b7bab73a1760c11b606082015260800190565b60208082526018908201527f4c6971756964697479206d7573742062652061646465642e0000000000000000604082015260600190565b6020808252602a908201527f5472616e7366657220616d6f756e74206578636565647320746865206d61785760408201526930b63632ba29b4bd329760b11b606082015260800190565b6020808252601c908201527f43616e6e6f742063616c6c206166746572206c69717569646974792e00000000604082015260600190565b60208082526013908201527245524332303a205a65726f204164647265737360681b604082015260600190565b6020808252601d908201527f436f6e747261637420616c726561647920696e697469616c697a65642e000000604082015260600190565b60208082526029908201527f5472616e7366657220616d6f756e74206d7573742062652067726561746572206040820152687468616e207a65726f60b81b606082015260800190565b60208082526025908201527f45524332303a207472616e736665722066726f6d20746865207a65726f206164604082015264647265737360d81b606082015260800190565b60208082526018908201527f4c697175696469747920697320616c726561647920696e2e0000000000000000604082015260600190565b60208082526018908201527f54726164696e6720616c726561647920656e61626c6564210000000000000000604082015260600190565b6020808252601390820152724d7573742061646420757020746f203130302560681b604082015260600190565b61ffff948516815292841660208401529083166040830152909116606082015260800190565b61ffff95861681529385166020850152918416604084015283166060830152909116608082015260a00190565b90815260200190565b600060a082018783526020878185015260a0604085015281875180845260c0860191508289019350845b818110156146a45784516001600160a01b03168352938301939183019160010161467f565b50506001600160a01b03969096166060850152505050608001529392505050565b9283526020830191909152604082015260600190565b60ff91909116815260200190565b600061ffff808316818516808303821115614706576147066147db565b01949350505050565b60008219821115614722576147226147db565b500190565b600082614736576147366147f1565b500490565b6000816000190483118215151615614755576147556147db565b500290565b60008282101561476c5761476c6147db565b500390565b60028104600182168061478557607f821691505b602082108114156147a657634e487b7160e01b600052602260045260246000fd5b50919050565b60006000198214156147c0576147c06147db565b5060010190565b6000826147d6576147d66147f1565b500690565b634e487b7160e01b600052601160045260246000fd5b634e487b7160e01b600052601260045260246000fd5b6001600160a01b03811681146128bd57600080fd5b80151581146128bd57600080fdfea2646970667358221220ceb27e3fe3e99898b196af74437fbe4274664f5bda79b84d953ef39dcf98698f64736f6c63430008000033",
			"opcodes": "PUSH1 0x0 PUSH1 0x4 DUP2 SWAP1 SSTORE PUSH1 0x9 DUP1 SLOAD PUSH1 0x1 PUSH1 0xFF NOT SWAP1 SWAP2 AND OR SWAP1 SSTORE PUSH1 0x80 DUP2 SWAP1 MSTORE PUSH1 0xA0 DUP2 SWAP1 MSTORE PUSH1 0xC0 DUP2 SWAP1 MSTORE PUSH1 0xE0 DUP2 SWAP1 MSTORE PUSH1 0xF DUP1 SLOAD PUSH1 0x1 PUSH1 0x1 PUSH1 0x40 SHL SUB NOT SWAP1 DUP2 AND SWAP1 SWAP2 SSTORE PUSH1 0xC8 PUSH2 0x100 DUP2 SWAP1 MSTORE PUSH2 0x120 DUP2 SWAP1 MSTORE PUSH2 0x140 DUP2 SWAP1 MSTORE PUSH2 0x160 DUP2 SWAP1 MSTORE PUSH1 0x10 DUP1 SLOAD PUSH2 0xFFFF PUSH1 0x30 SHL NOT PUSH2 0xFFFF PUSH1 0x20 SHL NOT PUSH4 0xFFFF0000 NOT PUSH2 0xFFFF NOT SWAP4 DUP5 AND DUP7 OR DUP2 AND PUSH3 0xC80000 SWAP1 DUP2 OR DUP4 AND PUSH5 0xC800000000 SWAP1 DUP2 OR DUP6 AND PUSH7 0xC8000000000000 SWAP1 DUP2 OR SWAP8 DUP9 SWAP1 SSTORE PUSH2 0x180 DUP10 SWAP1 MSTORE PUSH2 0x1A0 DUP10 SWAP1 MSTORE PUSH2 0x1C0 DUP10 SWAP1 MSTORE PUSH2 0x1E0 DUP10 SWAP1 MSTORE PUSH1 0x11 DUP1 SLOAD SWAP1 SWAP8 AND SWAP1 SWAP9 OR SWAP1 SWAP3 AND OR SWAP1 SWAP2 AND OR AND SWAP1 SWAP3 OR SWAP1 SWAP2 SSTORE PUSH2 0x200 DUP4 SWAP1 MSTORE PUSH2 0x220 DUP4 SWAP1 MSTORE PUSH2 0x240 DUP4 SWAP1 MSTORE PUSH2 0x260 SWAP3 SWAP1 SWAP3 MSTORE PUSH1 0x12 DUP1 SLOAD SWAP1 SWAP2 AND SWAP1 SSTORE PUSH2 0x300 PUSH1 0x40 MSTORE PUSH2 0xFFFF PUSH3 0x10000 DUP3 DIV DUP2 AND PUSH2 0x280 DUP2 DUP2 MSTORE PUSH5 0x100000000 DUP5 DIV DUP4 AND PUSH2 0x2A0 DUP2 SWAP1 MSTORE PUSH7 0x1000000000000 SWAP1 SWAP5 DIV SWAP1 SWAP3 AND PUSH2 0x2C0 DUP2 SWAP1 MSTORE SWAP2 SWAP3 PUSH2 0x2E0 SWAP3 SWAP2 PUSH3 0x13D SWAP2 SWAP1 PUSH3 0x4AE JUMP JUMPDEST PUSH3 0x149 SWAP2 SWAP1 PUSH3 0x4AE JUMP JUMPDEST PUSH2 0xFFFF SWAP1 DUP2 AND SWAP1 SWAP2 MSTORE DUP2 MLOAD PUSH1 0x13 DUP1 SLOAD PUSH1 0x20 DUP1 DUP7 ADD MLOAD PUSH1 0x40 DUP1 DUP9 ADD MLOAD PUSH1 0x60 SWAP9 DUP10 ADD MLOAD PUSH2 0xFFFF NOT SWAP6 DUP7 AND SWAP8 DUP10 AND SWAP8 SWAP1 SWAP8 OR PUSH4 0xFFFF0000 NOT SWAP1 DUP2 AND PUSH3 0x10000 SWAP5 DUP11 AND DUP6 MUL OR PUSH2 0xFFFF PUSH1 0x20 SHL NOT SWAP1 DUP2 AND PUSH5 0x100000000 SWAP4 DUP12 AND SWAP4 SWAP1 SWAP4 MUL SWAP3 SWAP1 SWAP3 OR PUSH2 0xFFFF PUSH1 0x30 SHL NOT SWAP1 DUP2 AND PUSH7 0x1000000000000 SWAP10 SWAP1 SWAP11 AND SWAP9 SWAP1 SWAP9 MUL SWAP9 SWAP1 SWAP9 OR SWAP1 SWAP6 SSTORE DUP1 MLOAD PUSH1 0xA0 DUP2 ADD DUP3 MSTORE PUSH1 0xC8 DUP1 DUP3 MSTORE SWAP4 DUP2 ADD DUP5 SWAP1 MSTORE SWAP1 DUP2 ADD DUP4 SWAP1 MSTORE SWAP7 DUP8 ADD DUP3 SWAP1 MSTORE PUSH2 0x2710 PUSH1 0x80 SWAP1 SWAP8 ADD SWAP7 SWAP1 SWAP7 MSTORE PUSH1 0x14 DUP1 SLOAD SWAP1 SWAP3 AND OR SWAP1 SWAP4 AND PUSH3 0xC80000 OR AND PUSH5 0xC800000000 OR AND PUSH7 0xC8000000000000 OR PUSH2 0xFFFF PUSH1 0x40 SHL NOT AND PUSH10 0x27100000000000000000 OR SWAP1 SSTORE PUSH1 0x1B DUP1 SLOAD PUSH20 0xFE9EBE595617BAF16101A6BD607248D538D7EC8B PUSH1 0x1 PUSH1 0x1 PUSH1 0xA0 SHL SUB NOT SWAP1 SWAP2 AND OR PUSH1 0xFF PUSH1 0xA8 SHL NOT AND SWAP1 SSTORE PUSH1 0x22 DUP1 SLOAD PUSH2 0xFFFF PUSH1 0xFF PUSH1 0xB0 SHL ADD NOT AND SWAP1 SSTORE PUSH1 0x0 DUP1 SLOAD PUSH3 0x10000 PUSH1 0x1 PUSH1 0xB0 SHL SUB NOT AND CALLER SWAP1 SWAP3 MUL SWAP2 SWAP1 SWAP2 OR SWAP1 SSTORE PUSH3 0x2B0 PUSH3 0x292 PUSH3 0x390 JUMP JUMPDEST PUSH20 0x7A250D5630B4CF539739DF2C5DACB4C659F2488D PUSH1 0x0 NOT PUSH3 0x394 JUMP JUMPDEST PUSH3 0x2D3 ADDRESS PUSH20 0x7A250D5630B4CF539739DF2C5DACB4C659F2488D PUSH1 0x0 NOT PUSH3 0x394 JUMP JUMPDEST PUSH1 0x1 PUSH1 0x6 PUSH1 0x0 PUSH3 0x2E3 PUSH3 0x459 JUMP JUMPDEST PUSH1 0x1 PUSH1 0x1 PUSH1 0xA0 SHL SUB AND DUP2 MSTORE PUSH1 0x20 DUP1 DUP3 ADD SWAP3 SWAP1 SWAP3 MSTORE PUSH1 0x40 SWAP1 DUP2 ADD PUSH1 0x0 SWAP1 DUP2 KECCAK256 DUP1 SLOAD SWAP5 ISZERO ISZERO PUSH1 0xFF NOT SWAP6 DUP7 AND OR SWAP1 SSTORE ADDRESS DUP2 MSTORE PUSH1 0x6 SWAP1 SWAP3 MSTORE DUP2 KECCAK256 DUP1 SLOAD DUP4 AND PUSH1 0x1 SWAP1 DUP2 OR SWAP1 SWAP2 SSTORE PUSH2 0xDEAD DUP3 MSTORE PUSH32 0x1AECBA4EBE7A4E0673E4891B2B092B2228E4322380B579FB494FAD3DA8586E22 DUP1 SLOAD SWAP1 SWAP4 AND DUP2 OR SWAP1 SWAP3 SSTORE PUSH1 0xB SWAP1 PUSH3 0x362 PUSH3 0x459 JUMP JUMPDEST PUSH1 0x1 PUSH1 0x1 PUSH1 0xA0 SHL SUB AND DUP2 MSTORE PUSH1 0x20 DUP2 ADD SWAP2 SWAP1 SWAP2 MSTORE PUSH1 0x40 ADD PUSH1 0x0 KECCAK256 DUP1 SLOAD PUSH1 0xFF NOT AND SWAP2 ISZERO ISZERO SWAP2 SWAP1 SWAP2 OR SWAP1 SSTORE PUSH3 0x4E1 JUMP JUMPDEST CALLER SWAP1 JUMP JUMPDEST PUSH1 0x1 PUSH1 0x1 PUSH1 0xA0 SHL SUB DUP4 AND PUSH3 0x3C6 JUMPI PUSH1 0x40 MLOAD PUSH3 0x461BCD PUSH1 0xE5 SHL DUP2 MSTORE PUSH1 0x4 ADD PUSH3 0x3BD SWAP1 PUSH3 0x46E JUMP JUMPDEST PUSH1 0x40 MLOAD DUP1 SWAP2 SUB SWAP1 REVERT JUMPDEST PUSH1 0x1 PUSH1 0x1 PUSH1 0xA0 SHL SUB DUP3 AND PUSH3 0x3EF JUMPI PUSH1 0x40 MLOAD PUSH3 0x461BCD PUSH1 0xE5 SHL DUP2 MSTORE PUSH1 0x4 ADD PUSH3 0x3BD SWAP1 PUSH3 0x46E JUMP JUMPDEST PUSH1 0x1 PUSH1 0x1 PUSH1 0xA0 SHL SUB DUP1 DUP5 AND PUSH1 0x0 DUP2 DUP2 MSTORE PUSH1 0x5 PUSH1 0x20 SWAP1 DUP2 MSTORE PUSH1 0x40 DUP1 DUP4 KECCAK256 SWAP5 DUP8 AND DUP1 DUP5 MSTORE SWAP5 SWAP1 SWAP2 MSTORE SWAP1 DUP2 SWAP1 KECCAK256 DUP5 SWAP1 SSTORE MLOAD PUSH32 0x8C5BE1E5EBEC7D5BD14F71427D1E84F3DD0314C0F7B2291E5B200AC8C7C3B925 SWAP1 PUSH3 0x44C SWAP1 DUP6 SWAP1 PUSH3 0x4A5 JUMP JUMPDEST PUSH1 0x40 MLOAD DUP1 SWAP2 SUB SWAP1 LOG3 POP POP POP JUMP JUMPDEST PUSH1 0x0 SLOAD PUSH3 0x10000 SWAP1 DIV PUSH1 0x1 PUSH1 0x1 PUSH1 0xA0 SHL SUB AND SWAP1 JUMP JUMPDEST PUSH1 0x20 DUP1 DUP3 MSTORE PUSH1 0x13 SWAP1 DUP3 ADD MSTORE PUSH32 0x45524332303A205A65726F204164647265737300000000000000000000000000 PUSH1 0x40 DUP3 ADD MSTORE PUSH1 0x60 ADD SWAP1 JUMP JUMPDEST SWAP1 DUP2 MSTORE PUSH1 0x20 ADD SWAP1 JUMP JUMPDEST PUSH1 0x0 PUSH2 0xFFFF DUP1 DUP4 AND DUP2 DUP6 AND DUP1 DUP4 SUB DUP3 GT ISZERO PUSH3 0x4D8 JUMPI PUSH4 0x4E487B71 PUSH1 0xE0 SHL DUP5 MSTORE PUSH1 0x11 PUSH1 0x4 MSTORE PUSH1 0x24 DUP5 REVERT JUMPDEST ADD SWAP5 SWAP4 POP POP POP POP JUMP JUMPDEST PUSH2 0x4860 DUP1 PUSH3 0x4F1 PUSH1 0x0 CODECOPY PUSH1 0x0 RETURN INVALID PUSH1 0x80 PUSH1 0x40 MSTORE PUSH1 0x4 CALLDATASIZE LT PUSH2 0x303 JUMPI PUSH1 0x0 CALLDATALOAD PUSH1 0xE0 SHR DUP1 PUSH4 0x7B45D431 GT PUSH2 0x190 JUMPI DUP1 PUSH4 0xBC77169D GT PUSH2 0xDC JUMPI DUP1 PUSH4 0xDD62ED3E GT PUSH2 0x95 JUMPI DUP1 PUSH4 0xEE5D9C2D GT PUSH2 0x6F JUMPI DUP1 PUSH4 0xEE5D9C2D EQ PUSH2 0x895 JUMPI DUP1 PUSH4 0xF6540EC7 EQ PUSH2 0x8AA JUMPI DUP1 PUSH4 0xFB78680D EQ PUSH2 0x8BF JUMPI DUP1 PUSH4 0xFDB78C0E EQ PUSH2 0x8DF JUMPI PUSH2 0x30A JUMP JUMPDEST DUP1 PUSH4 0xDD62ED3E EQ PUSH2 0x835 JUMPI DUP1 PUSH4 0xEAFB5A3C EQ PUSH2 0x855 JUMPI DUP1 PUSH4 0xEB50E70E EQ PUSH2 0x875 JUMPI PUSH2 0x30A JUMP JUMPDEST DUP1 PUSH4 0xBC77169D EQ PUSH2 0x796 JUMPI DUP1 PUSH4 0xBECDF13F EQ PUSH2 0x7B6 JUMPI DUP1 PUSH4 0xC2FA418F EQ PUSH2 0x7D6 JUMPI DUP1 PUSH4 0xC6831CD8 EQ PUSH2 0x7EB JUMPI DUP1 PUSH4 0xCAB5EBEA EQ PUSH2 0x800 JUMPI DUP1 PUSH4 0xCF847706 EQ PUSH2 0x820 JUMPI PUSH2 0x30A JUMP JUMPDEST DUP1 PUSH4 0x8A8C523C GT PUSH2 0x149 JUMPI DUP1 PUSH4 0xA457C2D7 GT PUSH2 0x123 JUMPI DUP1 PUSH4 0xA457C2D7 EQ PUSH2 0x716 JUMPI DUP1 PUSH4 0xA9059CBB EQ PUSH2 0x736 JUMPI DUP1 PUSH4 0xAA22B172 EQ PUSH2 0x756 JUMPI DUP1 PUSH4 0xAA545473 EQ PUSH2 0x776 JUMPI PUSH2 0x30A JUMP JUMPDEST DUP1 PUSH4 0x8A8C523C EQ PUSH2 0x6D7 JUMPI DUP1 PUSH4 0x8DA5CB5B EQ PUSH2 0x6EC JUMPI DUP1 PUSH4 0x95D89B41 EQ PUSH2 0x701 JUMPI PUSH2 0x30A JUMP JUMPDEST DUP1 PUSH4 0x7B45D431 EQ PUSH2 0x633 JUMPI DUP1 PUSH4 0x7ED57C8B EQ PUSH2 0x658 JUMPI DUP1 PUSH4 0x80C581D1 EQ PUSH2 0x66D JUMPI DUP1 PUSH4 0x88F82020 EQ PUSH2 0x68D JUMPI DUP1 PUSH4 0x893D20E8 EQ PUSH2 0x6AD JUMPI DUP1 PUSH4 0x8A63BD9B EQ PUSH2 0x6C2 JUMPI PUSH2 0x30A JUMP JUMPDEST DUP1 PUSH4 0x33251A0B GT PUSH2 0x24F JUMPI DUP1 PUSH4 0x4FBEE193 GT PUSH2 0x208 JUMPI DUP1 PUSH4 0x5C24B074 GT PUSH2 0x1E2 JUMPI DUP1 PUSH4 0x5C24B074 EQ PUSH2 0x5C9 JUMPI DUP1 PUSH4 0x64038409 EQ PUSH2 0x5E9 JUMPI DUP1 PUSH4 0x70A08231 EQ PUSH2 0x5FE JUMPI DUP1 PUSH4 0x715018A6 EQ PUSH2 0x61E JUMPI PUSH2 0x30A JUMP JUMPDEST DUP1 PUSH4 0x4FBEE193 EQ PUSH2 0x574 JUMPI DUP1 PUSH4 0x50A8E016 EQ PUSH2 0x594 JUMPI DUP1 PUSH4 0x590FFDCE EQ PUSH2 0x5A9 JUMPI PUSH2 0x30A JUMP JUMPDEST DUP1 PUSH4 0x33251A0B EQ PUSH2 0x4CA JUMPI DUP1 PUSH4 0x39509351 EQ PUSH2 0x4EA JUMPI DUP1 PUSH4 0x3F3CF56C EQ PUSH2 0x50A JUMPI DUP1 PUSH4 0x452ED4F1 EQ PUSH2 0x52A JUMPI DUP1 PUSH4 0x4ADA218B EQ PUSH2 0x53F JUMPI DUP1 PUSH4 0x4FB2E45D EQ PUSH2 0x554 JUMPI PUSH2 0x30A JUMP JUMPDEST DUP1 PUSH4 0x18160DDD GT PUSH2 0x2BC JUMPI DUP1 PUSH4 0x26003957 GT PUSH2 0x296 JUMPI DUP1 PUSH4 0x26003957 EQ PUSH2 0x448 JUMPI DUP1 PUSH4 0x29DD8798 EQ PUSH2 0x468 JUMPI DUP1 PUSH4 0x2D838119 EQ PUSH2 0x488 JUMPI DUP1 PUSH4 0x313CE567 EQ PUSH2 0x4A8 JUMPI PUSH2 0x30A JUMP JUMPDEST DUP1 PUSH4 0x18160DDD EQ PUSH2 0x3E0 JUMPI DUP1 PUSH4 0x1B6AFA2D EQ PUSH2 0x402 JUMPI DUP1 PUSH4 0x23B872DD EQ PUSH2 0x428 JUMPI PUSH2 0x30A JUMP JUMPDEST DUP1 PUSH4 0x3FD2A45 EQ PUSH2 0x30F JUMPI DUP1 PUSH4 0x6FDDE03 EQ PUSH2 0x33A JUMPI DUP1 PUSH4 0x758D924 EQ PUSH2 0x35C JUMPI DUP1 PUSH4 0x9231602 EQ PUSH2 0x371 JUMPI DUP1 PUSH4 0x95EA7B3 EQ PUSH2 0x393 JUMPI DUP1 PUSH4 0x13E46192 EQ PUSH2 0x3C0 JUMPI PUSH2 0x30A JUMP JUMPDEST CALLDATASIZE PUSH2 0x30A JUMPI STOP JUMPDEST PUSH1 0x0 DUP1 REVERT JUMPDEST CALLVALUE DUP1 ISZERO PUSH2 0x31B JUMPI PUSH1 0x0 DUP1 REVERT JUMPDEST POP PUSH2 0x324 PUSH2 0x8F4 JUMP JUMPDEST PUSH1 0x40 MLOAD PUSH2 0x331 SWAP2 SWAP1 PUSH2 0x3F29 JUMP JUMPDEST PUSH1 0x40 MLOAD DUP1 SWAP2 SUB SWAP1 RETURN JUMPDEST CALLVALUE DUP1 ISZERO PUSH2 0x346 JUMPI PUSH1 0x0 DUP1 REVERT JUMPDEST POP PUSH2 0x34F PUSH2 0x8FA JUMP JUMPDEST PUSH1 0x40 MLOAD PUSH2 0x331 SWAP2 SWAP1 PUSH2 0x402E JUMP JUMPDEST CALLVALUE DUP1 ISZERO PUSH2 0x368 JUMPI PUSH1 0x0 DUP1 REVERT JUMPDEST POP PUSH2 0x324 PUSH2 0x98D JUMP JUMPDEST CALLVALUE DUP1 ISZERO PUSH2 0x37D JUMPI PUSH1 0x0 DUP1 REVERT JUMPDEST POP PUSH2 0x391 PUSH2 0x38C CALLDATASIZE PUSH1 0x4 PUSH2 0x3E92 JUMP JUMPDEST PUSH2 0x99C JUMP JUMPDEST STOP JUMPDEST CALLVALUE DUP1 ISZERO PUSH2 0x39F JUMPI PUSH1 0x0 DUP1 REVERT JUMPDEST POP PUSH2 0x3B3 PUSH2 0x3AE CALLDATASIZE PUSH1 0x4 PUSH2 0x3D3F JUMP JUMPDEST PUSH2 0xA6B JUMP JUMPDEST PUSH1 0x40 MLOAD PUSH2 0x331 SWAP2 SWAP1 PUSH2 0x4002 JUMP JUMPDEST CALLVALUE DUP1 ISZERO PUSH2 0x3CC JUMPI PUSH1 0x0 DUP1 REVERT JUMPDEST POP PUSH2 0x391 PUSH2 0x3DB CALLDATASIZE PUSH1 0x4 PUSH2 0x3D12 JUMP JUMPDEST PUSH2 0xA88 JUMP JUMPDEST CALLVALUE DUP1 ISZERO PUSH2 0x3EC JUMPI PUSH1 0x0 DUP1 REVERT JUMPDEST POP PUSH2 0x3F5 PUSH2 0xDE6 JUMP JUMPDEST PUSH1 0x40 MLOAD PUSH2 0x331 SWAP2 SWAP1 PUSH2 0x464C JUMP JUMPDEST CALLVALUE DUP1 ISZERO PUSH2 0x40E JUMPI PUSH1 0x0 DUP1 REVERT JUMPDEST POP PUSH2 0x417 PUSH2 0xDEC JUMP JUMPDEST PUSH1 0x40 MLOAD PUSH2 0x331 SWAP6 SWAP5 SWAP4 SWAP3 SWAP2 SWAP1 PUSH2 0x461F JUMP JUMPDEST CALLVALUE DUP1 ISZERO PUSH2 0x434 JUMPI PUSH1 0x0 DUP1 REVERT JUMPDEST POP PUSH2 0x3B3 PUSH2 0x443 CALLDATASIZE PUSH1 0x4 PUSH2 0x3CD2 JUMP JUMPDEST PUSH2 0xE1F JUMP JUMPDEST CALLVALUE DUP1 ISZERO PUSH2 0x454 JUMPI PUSH1 0x0 DUP1 REVERT JUMPDEST POP PUSH2 0x391 PUSH2 0x463 CALLDATASIZE PUSH1 0x4 PUSH2 0x3EAA JUMP JUMPDEST PUSH2 0xE97 JUMP JUMPDEST CALLVALUE DUP1 ISZERO PUSH2 0x474 JUMPI PUSH1 0x0 DUP1 REVERT JUMPDEST POP PUSH2 0x391 PUSH2 0x483 CALLDATASIZE PUSH1 0x4 PUSH2 0x3DA2 JUMP JUMPDEST PUSH2 0xF45 JUMP JUMPDEST CALLVALUE DUP1 ISZERO PUSH2 0x494 JUMPI PUSH1 0x0 DUP1 REVERT JUMPDEST POP PUSH2 0x3F5 PUSH2 0x4A3 CALLDATASIZE PUSH1 0x4 PUSH2 0x3E92 JUMP JUMPDEST PUSH2 0xFF3 JUMP JUMPDEST CALLVALUE DUP1 ISZERO PUSH2 0x4B4 JUMPI PUSH1 0x0 DUP1 REVERT JUMPDEST POP PUSH2 0x4BD PUSH2 0x1036 JUMP JUMPDEST PUSH1 0x40 MLOAD PUSH2 0x331 SWAP2 SWAP1 PUSH2 0x46DB JUMP JUMPDEST CALLVALUE DUP1 ISZERO PUSH2 0x4D6 JUMPI PUSH1 0x0 DUP1 REVERT JUMPDEST POP PUSH2 0x391 PUSH2 0x4E5 CALLDATASIZE PUSH1 0x4 PUSH2 0x3C62 JUMP JUMPDEST PUSH2 0x103F JUMP JUMPDEST CALLVALUE DUP1 ISZERO PUSH2 0x4F6 JUMPI PUSH1 0x0 DUP1 REVERT JUMPDEST POP PUSH2 0x3B3 PUSH2 0x505 CALLDATASIZE PUSH1 0x4 PUSH2 0x3D3F JUMP JUMPDEST PUSH2 0x10AF JUMP JUMPDEST CALLVALUE DUP1 ISZERO PUSH2 0x516 JUMPI PUSH1 0x0 DUP1 REVERT JUMPDEST POP PUSH2 0x391 PUSH2 0x525 CALLDATASIZE PUSH1 0x4 PUSH2 0x3EAA JUMP JUMPDEST PUSH2 0x1103 JUMP JUMPDEST CALLVALUE DUP1 ISZERO PUSH2 0x536 JUMPI PUSH1 0x0 DUP1 REVERT JUMPDEST POP PUSH2 0x324 PUSH2 0x11B1 JUMP JUMPDEST CALLVALUE DUP1 ISZERO PUSH2 0x54B JUMPI PUSH1 0x0 DUP1 REVERT JUMPDEST POP PUSH2 0x3B3 PUSH2 0x11C0 JUMP JUMPDEST CALLVALUE DUP1 ISZERO PUSH2 0x560 JUMPI PUSH1 0x0 DUP1 REVERT JUMPDEST POP PUSH2 0x391 PUSH2 0x56F CALLDATASIZE PUSH1 0x4 PUSH2 0x3C62 JUMP JUMPDEST PUSH2 0x11C9 JUMP JUMPDEST CALLVALUE DUP1 ISZERO PUSH2 0x580 JUMPI PUSH1 0x0 DUP1 REVERT JUMPDEST POP PUSH2 0x3B3 PUSH2 0x58F CALLDATASIZE PUSH1 0x4 PUSH2 0x3C62 JUMP JUMPDEST PUSH2 0x134E JUMP JUMPDEST CALLVALUE DUP1 ISZERO PUSH2 0x5A0 JUMPI PUSH1 0x0 DUP1 REVERT JUMPDEST POP PUSH2 0x3B3 PUSH2 0x136C JUMP JUMPDEST CALLVALUE DUP1 ISZERO PUSH2 0x5B5 JUMPI PUSH1 0x0 DUP1 REVERT JUMPDEST POP PUSH2 0x391 PUSH2 0x5C4 CALLDATASIZE PUSH1 0x4 PUSH2 0x3D12 JUMP JUMPDEST PUSH2 0x137A JUMP JUMPDEST CALLVALUE DUP1 ISZERO PUSH2 0x5D5 JUMPI PUSH1 0x0 DUP1 REVERT JUMPDEST POP PUSH2 0x391 PUSH2 0x5E4 CALLDATASIZE PUSH1 0x4 PUSH2 0x3C62 JUMP JUMPDEST PUSH2 0x13E0 JUMP JUMPDEST CALLVALUE DUP1 ISZERO PUSH2 0x5F5 JUMPI PUSH1 0x0 DUP1 REVERT JUMPDEST POP PUSH2 0x3F5 PUSH2 0x146D JUMP JUMPDEST CALLVALUE DUP1 ISZERO PUSH2 0x60A JUMPI PUSH1 0x0 DUP1 REVERT JUMPDEST POP PUSH2 0x3F5 PUSH2 0x619 CALLDATASIZE PUSH1 0x4 PUSH2 0x3C62 JUMP JUMPDEST PUSH2 0x1473 JUMP JUMPDEST CALLVALUE DUP1 ISZERO PUSH2 0x62A JUMPI PUSH1 0x0 DUP1 REVERT JUMPDEST POP PUSH2 0x391 PUSH2 0x14DB JUMP JUMPDEST CALLVALUE DUP1 ISZERO PUSH2 0x63F JUMPI PUSH1 0x0 DUP1 REVERT JUMPDEST POP PUSH2 0x648 PUSH2 0x1584 JUMP JUMPDEST PUSH1 0x40 MLOAD PUSH2 0x331 SWAP5 SWAP4 SWAP3 SWAP2 SWAP1 PUSH2 0x45F9 JUMP JUMPDEST CALLVALUE DUP1 ISZERO PUSH2 0x664 JUMPI PUSH1 0x0 DUP1 REVERT JUMPDEST POP PUSH2 0x391 PUSH2 0x15AC JUMP JUMPDEST CALLVALUE DUP1 ISZERO PUSH2 0x679 JUMPI PUSH1 0x0 DUP1 REVERT JUMPDEST POP PUSH2 0x391 PUSH2 0x688 CALLDATASIZE PUSH1 0x4 PUSH2 0x3D12 JUMP JUMPDEST PUSH2 0x1ADC JUMP JUMPDEST CALLVALUE DUP1 ISZERO PUSH2 0x699 JUMPI PUSH1 0x0 DUP1 REVERT JUMPDEST POP PUSH2 0x3B3 PUSH2 0x6A8 CALLDATASIZE PUSH1 0x4 PUSH2 0x3C62 JUMP JUMPDEST PUSH2 0x1C6E JUMP JUMPDEST CALLVALUE DUP1 ISZERO PUSH2 0x6B9 JUMPI PUSH1 0x0 DUP1 REVERT JUMPDEST POP PUSH2 0x324 PUSH2 0x1C8C JUMP JUMPDEST CALLVALUE DUP1 ISZERO PUSH2 0x6CE JUMPI PUSH1 0x0 DUP1 REVERT JUMPDEST POP PUSH2 0x3B3 PUSH2 0x1C9B JUMP JUMPDEST CALLVALUE DUP1 ISZERO PUSH2 0x6E3 JUMPI PUSH1 0x0 DUP1 REVERT JUMPDEST POP PUSH2 0x391 PUSH2 0x1CF8 JUMP JUMPDEST CALLVALUE DUP1 ISZERO PUSH2 0x6F8 JUMPI PUSH1 0x0 DUP1 REVERT JUMPDEST POP PUSH2 0x324 PUSH2 0x1E18 JUMP JUMPDEST CALLVALUE DUP1 ISZERO PUSH2 0x70D JUMPI PUSH1 0x0 DUP1 REVERT JUMPDEST POP PUSH2 0x34F PUSH2 0x1E2D JUMP JUMPDEST CALLVALUE DUP1 ISZERO PUSH2 0x722 JUMPI PUSH1 0x0 DUP1 REVERT JUMPDEST POP PUSH2 0x3B3 PUSH2 0x731 CALLDATASIZE PUSH1 0x4 PUSH2 0x3D3F JUMP JUMPDEST PUSH2 0x1E3C JUMP JUMPDEST CALLVALUE DUP1 ISZERO PUSH2 0x742 JUMPI PUSH1 0x0 DUP1 REVERT JUMPDEST POP PUSH2 0x3B3 PUSH2 0x751 CALLDATASIZE PUSH1 0x4 PUSH2 0x3D3F JUMP JUMPDEST PUSH2 0x1E8B JUMP JUMPDEST CALLVALUE DUP1 ISZERO PUSH2 0x762 JUMPI PUSH1 0x0 DUP1 REVERT JUMPDEST POP PUSH2 0x391 PUSH2 0x771 CALLDATASIZE PUSH1 0x4 PUSH2 0x3DFD JUMP JUMPDEST PUSH2 0x1EA9 JUMP JUMPDEST CALLVALUE DUP1 ISZERO PUSH2 0x782 JUMPI PUSH1 0x0 DUP1 REVERT JUMPDEST POP PUSH2 0x391 PUSH2 0x791 CALLDATASIZE PUSH1 0x4 PUSH2 0x3E3F JUMP JUMPDEST PUSH2 0x1F91 JUMP JUMPDEST CALLVALUE DUP1 ISZERO PUSH2 0x7A2 JUMPI PUSH1 0x0 DUP1 REVERT JUMPDEST POP PUSH2 0x391 PUSH2 0x7B1 CALLDATASIZE PUSH1 0x4 PUSH2 0x3E3F JUMP JUMPDEST PUSH2 0x20BA JUMP JUMPDEST CALLVALUE DUP1 ISZERO PUSH2 0x7C2 JUMPI PUSH1 0x0 DUP1 REVERT JUMPDEST POP PUSH2 0x391 PUSH2 0x7D1 CALLDATASIZE PUSH1 0x4 PUSH2 0x3E3F JUMP JUMPDEST PUSH2 0x21E3 JUMP JUMPDEST CALLVALUE DUP1 ISZERO PUSH2 0x7E2 JUMPI PUSH1 0x0 DUP1 REVERT JUMPDEST POP PUSH2 0x648 PUSH2 0x230C JUMP JUMPDEST CALLVALUE DUP1 ISZERO PUSH2 0x7F7 JUMPI PUSH1 0x0 DUP1 REVERT JUMPDEST POP PUSH2 0x648 PUSH2 0x2334 JUMP JUMPDEST CALLVALUE DUP1 ISZERO PUSH2 0x80C JUMPI PUSH1 0x0 DUP1 REVERT JUMPDEST POP PUSH2 0x391 PUSH2 0x81B CALLDATASIZE PUSH1 0x4 PUSH2 0x3D6A JUMP JUMPDEST PUSH2 0x235C JUMP JUMPDEST CALLVALUE DUP1 ISZERO PUSH2 0x82C JUMPI PUSH1 0x0 DUP1 REVERT JUMPDEST POP PUSH2 0x648 PUSH2 0x23E9 JUMP JUMPDEST CALLVALUE DUP1 ISZERO PUSH2 0x841 JUMPI PUSH1 0x0 DUP1 REVERT JUMPDEST POP PUSH2 0x3F5 PUSH2 0x850 CALLDATASIZE PUSH1 0x4 PUSH2 0x3C9A JUMP JUMPDEST PUSH2 0x2411 JUMP JUMPDEST CALLVALUE DUP1 ISZERO PUSH2 0x861 JUMPI PUSH1 0x0 DUP1 REVERT JUMPDEST POP PUSH2 0x391 PUSH2 0x870 CALLDATASIZE PUSH1 0x4 PUSH2 0x3C62 JUMP JUMPDEST PUSH2 0x243C JUMP JUMPDEST CALLVALUE DUP1 ISZERO PUSH2 0x881 JUMPI PUSH1 0x0 DUP1 REVERT JUMPDEST POP PUSH2 0x391 PUSH2 0x890 CALLDATASIZE PUSH1 0x4 PUSH2 0x3C62 JUMP JUMPDEST PUSH2 0x27BD JUMP JUMPDEST CALLVALUE DUP1 ISZERO PUSH2 0x8A1 JUMPI PUSH1 0x0 DUP1 REVERT JUMPDEST POP PUSH2 0x391 PUSH2 0x281A JUMP JUMPDEST CALLVALUE DUP1 ISZERO PUSH2 0x8B6 JUMPI PUSH1 0x0 DUP1 REVERT JUMPDEST POP PUSH2 0x3F5 PUSH2 0x28C0 JUMP JUMPDEST CALLVALUE DUP1 ISZERO PUSH2 0x8CB JUMPI PUSH1 0x0 DUP1 REVERT JUMPDEST POP PUSH2 0x391 PUSH2 0x8DA CALLDATASIZE PUSH1 0x4 PUSH2 0x3EF8 JUMP JUMPDEST PUSH2 0x28C6 JUMP JUMPDEST CALLVALUE DUP1 ISZERO PUSH2 0x8EB JUMPI PUSH1 0x0 DUP1 REVERT JUMPDEST POP PUSH2 0x3B3 PUSH2 0x2940 JUMP JUMPDEST PUSH2 0xDEAD DUP2 JUMP JUMPDEST PUSH1 0x60 PUSH1 0xD DUP1 SLOAD PUSH2 0x909 SWAP1 PUSH2 0x4771 JUMP JUMPDEST DUP1 PUSH1 0x1F ADD PUSH1 0x20 DUP1 SWAP2 DIV MUL PUSH1 0x20 ADD PUSH1 0x40 MLOAD SWAP1 DUP2 ADD PUSH1 0x40 MSTORE DUP1 SWAP3 SWAP2 SWAP1 DUP2 DUP2 MSTORE PUSH1 0x20 ADD DUP3 DUP1 SLOAD PUSH2 0x935 SWAP1 PUSH2 0x4771 JUMP JUMPDEST DUP1 ISZERO PUSH2 0x982 JUMPI DUP1 PUSH1 0x1F LT PUSH2 0x957 JUMPI PUSH2 0x100 DUP1 DUP4 SLOAD DIV MUL DUP4 MSTORE SWAP2 PUSH1 0x20 ADD SWAP2 PUSH2 0x982 JUMP JUMPDEST DUP3 ADD SWAP2 SWAP1 PUSH1 0x0 MSTORE PUSH1 0x20 PUSH1 0x0 KECCAK256 SWAP1 JUMPDEST DUP2 SLOAD DUP2 MSTORE SWAP1 PUSH1 0x1 ADD SWAP1 PUSH1 0x20 ADD DUP1 DUP4 GT PUSH2 0x965 JUMPI DUP3 SWAP1 SUB PUSH1 0x1F AND DUP3 ADD SWAP2 JUMPDEST POP POP POP POP POP SWAP1 POP JUMPDEST SWAP1 JUMP JUMPDEST PUSH1 0x19 SLOAD PUSH1 0x1 PUSH1 0x1 PUSH1 0xA0 SHL SUB AND DUP2 JUMP JUMPDEST PUSH2 0x9A4 PUSH2 0x2950 JUMP JUMPDEST PUSH1 0x0 SLOAD PUSH3 0x10000 SWAP1 DIV PUSH1 0x1 PUSH1 0x1 PUSH1 0xA0 SHL SUB SWAP1 DUP2 AND SWAP2 AND EQ PUSH2 0x9E0 JUMPI PUSH1 0x40 MLOAD PUSH3 0x461BCD PUSH1 0xE5 SHL DUP2 MSTORE PUSH1 0x4 ADD PUSH2 0x9D7 SWAP1 PUSH2 0x4167 JUMP JUMPDEST PUSH1 0x40 MLOAD DUP1 SWAP2 SUB SWAP1 REVERT JUMPDEST PUSH1 0x4B DUP2 LT ISZERO PUSH2 0xA01 JUMPI PUSH1 0x40 MLOAD PUSH3 0x461BCD PUSH1 0xE5 SHL DUP2 MSTORE PUSH1 0x4 ADD PUSH2 0x9D7 SWAP1 PUSH2 0x40FB JUMP JUMPDEST PUSH1 0x22 SLOAD PUSH1 0x40 MLOAD PUSH4 0x4918B01 PUSH1 0xE1 SHL DUP2 MSTORE PUSH3 0x10000 SWAP1 SWAP2 DIV PUSH1 0x1 PUSH1 0x1 PUSH1 0xA0 SHL SUB AND SWAP1 PUSH4 0x9231602 SWAP1 PUSH2 0xA36 SWAP1 DUP5 SWAP1 PUSH1 0x4 ADD PUSH2 0x464C JUMP JUMPDEST PUSH1 0x0 PUSH1 0x40 MLOAD DUP1 DUP4 SUB DUP2 PUSH1 0x0 DUP8 DUP1 EXTCODESIZE ISZERO DUP1 ISZERO PUSH2 0xA50 JUMPI PUSH1 0x0 DUP1 REVERT JUMPDEST POP GAS CALL ISZERO DUP1 ISZERO PUSH2 0xA64 JUMPI RETURNDATASIZE PUSH1 0x0 DUP1 RETURNDATACOPY RETURNDATASIZE PUSH1 0x0 REVERT JUMPDEST POP POP POP POP POP JUMP JUMPDEST PUSH1 0x0 PUSH2 0xA7F PUSH2 0xA78 PUSH2 0x2950 JUMP JUMPDEST DUP5 DUP5 PUSH2 0x2954 JUMP JUMPDEST POP PUSH1 0x1 SWAP3 SWAP2 POP POP JUMP JUMPDEST PUSH2 0xA90 PUSH2 0x2950 JUMP JUMPDEST PUSH1 0x0 SLOAD PUSH3 0x10000 SWAP1 DIV PUSH1 0x1 PUSH1 0x1 PUSH1 0xA0 SHL SUB SWAP1 DUP2 AND SWAP2 AND EQ PUSH2 0xAC3 JUMPI PUSH1 0x40 MLOAD PUSH3 0x461BCD PUSH1 0xE5 SHL DUP2 MSTORE PUSH1 0x4 ADD PUSH2 0x9D7 SWAP1 PUSH2 0x4167 JUMP JUMPDEST PUSH1 0x1 DUP2 ISZERO ISZERO EQ ISZERO PUSH2 0xBCB JUMPI PUSH1 0x1 PUSH1 0x1 PUSH1 0xA0 SHL SUB DUP3 AND PUSH1 0x0 SWAP1 DUP2 MSTORE PUSH1 0x7 PUSH1 0x20 MSTORE PUSH1 0x40 SWAP1 KECCAK256 SLOAD PUSH1 0xFF AND ISZERO PUSH2 0xB07 JUMPI PUSH1 0x40 MLOAD PUSH3 0x461BCD PUSH1 0xE5 SHL DUP2 MSTORE PUSH1 0x4 ADD PUSH2 0x9D7 SWAP1 PUSH2 0x4335 JUMP JUMPDEST PUSH1 0x1 PUSH1 0x1 PUSH1 0xA0 SHL SUB DUP3 AND PUSH1 0x0 SWAP1 DUP2 MSTORE PUSH1 0x1 PUSH1 0x20 MSTORE PUSH1 0x40 SWAP1 KECCAK256 SLOAD ISZERO PUSH2 0xB61 JUMPI PUSH1 0x1 PUSH1 0x1 PUSH1 0xA0 SHL SUB DUP3 AND PUSH1 0x0 SWAP1 DUP2 MSTORE PUSH1 0x1 PUSH1 0x20 MSTORE PUSH1 0x40 SWAP1 KECCAK256 SLOAD PUSH2 0xB47 SWAP1 PUSH2 0xFF3 JUMP JUMPDEST PUSH1 0x1 PUSH1 0x1 PUSH1 0xA0 SHL SUB DUP4 AND PUSH1 0x0 SWAP1 DUP2 MSTORE PUSH1 0x2 PUSH1 0x20 MSTORE PUSH1 0x40 SWAP1 KECCAK256 SSTORE JUMPDEST PUSH1 0x1 PUSH1 0x1 PUSH1 0xA0 SHL SUB DUP3 AND PUSH1 0x0 DUP2 DUP2 MSTORE PUSH1 0x7 PUSH1 0x20 MSTORE PUSH1 0x40 DUP2 KECCAK256 DUP1 SLOAD PUSH1 0xFF NOT AND PUSH1 0x1 SWAP1 DUP2 OR SWAP1 SWAP2 SSTORE PUSH1 0x8 DUP1 SLOAD SWAP2 DUP3 ADD DUP2 SSTORE SWAP1 SWAP2 MSTORE PUSH32 0xF3F7A9FE364FAAB93B216DA50A3214154F22A0A2B415B23A84C8169E8B636EE3 ADD DUP1 SLOAD PUSH1 0x1 PUSH1 0x1 PUSH1 0xA0 SHL SUB NOT AND SWAP1 SWAP2 OR SWAP1 SSTORE PUSH2 0xDE2 JUMP JUMPDEST DUP1 PUSH2 0xDE2 JUMPI PUSH1 0x1 PUSH1 0x1 PUSH1 0xA0 SHL SUB DUP3 AND PUSH1 0x0 SWAP1 DUP2 MSTORE PUSH1 0x7 PUSH1 0x20 MSTORE PUSH1 0x40 SWAP1 KECCAK256 SLOAD PUSH1 0xFF AND PUSH2 0xC08 JUMPI PUSH1 0x40 MLOAD PUSH3 0x461BCD PUSH1 0xE5 SHL DUP2 MSTORE PUSH1 0x4 ADD PUSH2 0x9D7 SWAP1 PUSH2 0x420A JUMP JUMPDEST PUSH1 0x8 SLOAD PUSH1 0x1 EQ ISZERO PUSH2 0xC86 JUMPI PUSH1 0x1 PUSH1 0x1 PUSH1 0xA0 SHL SUB DUP3 AND PUSH1 0x0 SWAP1 DUP2 MSTORE PUSH1 0x2 PUSH1 0x20 SWAP1 DUP2 MSTORE PUSH1 0x40 DUP1 DUP4 KECCAK256 DUP4 SWAP1 SSTORE PUSH1 0x7 SWAP1 SWAP2 MSTORE SWAP1 KECCAK256 DUP1 SLOAD PUSH1 0xFF NOT AND SWAP1 SSTORE PUSH1 0x8 DUP1 SLOAD DUP1 PUSH2 0xC5F JUMPI PUSH4 0x4E487B71 PUSH1 0xE0 SHL PUSH1 0x0 MSTORE PUSH1 0x31 PUSH1 0x4 MSTORE PUSH1 0x24 PUSH1 0x0 REVERT JUMPDEST PUSH1 0x0 DUP3 DUP2 MSTORE PUSH1 0x20 SWAP1 KECCAK256 DUP2 ADD PUSH1 0x0 NOT SWAP1 DUP2 ADD DUP1 SLOAD PUSH1 0x1 PUSH1 0x1 PUSH1 0xA0 SHL SUB NOT AND SWAP1 SSTORE ADD SWAP1 SSTORE PUSH2 0xDE2 JUMP JUMPDEST PUSH1 0x0 JUMPDEST PUSH1 0x8 SLOAD DUP2 LT ISZERO PUSH2 0xDE0 JUMPI DUP3 PUSH1 0x1 PUSH1 0x1 PUSH1 0xA0 SHL SUB AND PUSH1 0x8 DUP3 DUP2 SLOAD DUP2 LT PUSH2 0xCBE JUMPI PUSH4 0x4E487B71 PUSH1 0xE0 SHL PUSH1 0x0 MSTORE PUSH1 0x32 PUSH1 0x4 MSTORE PUSH1 0x24 PUSH1 0x0 REVERT JUMPDEST PUSH1 0x0 SWAP2 DUP3 MSTORE PUSH1 0x20 SWAP1 SWAP2 KECCAK256 ADD SLOAD PUSH1 0x1 PUSH1 0x1 PUSH1 0xA0 SHL SUB AND EQ ISZERO PUSH2 0xDCE JUMPI PUSH1 0x8 DUP1 SLOAD PUSH2 0xCE9 SWAP1 PUSH1 0x1 SWAP1 PUSH2 0x475A JUMP JUMPDEST DUP2 SLOAD DUP2 LT PUSH2 0xD07 JUMPI PUSH4 0x4E487B71 PUSH1 0xE0 SHL PUSH1 0x0 MSTORE PUSH1 0x32 PUSH1 0x4 MSTORE PUSH1 0x24 PUSH1 0x0 REVERT JUMPDEST PUSH1 0x0 SWAP2 DUP3 MSTORE PUSH1 0x20 SWAP1 SWAP2 KECCAK256 ADD SLOAD PUSH1 0x8 DUP1 SLOAD PUSH1 0x1 PUSH1 0x1 PUSH1 0xA0 SHL SUB SWAP1 SWAP3 AND SWAP2 DUP4 SWAP1 DUP2 LT PUSH2 0xD41 JUMPI PUSH4 0x4E487B71 PUSH1 0xE0 SHL PUSH1 0x0 MSTORE PUSH1 0x32 PUSH1 0x4 MSTORE PUSH1 0x24 PUSH1 0x0 REVERT JUMPDEST PUSH1 0x0 SWAP2 DUP3 MSTORE PUSH1 0x20 DUP1 DUP4 KECCAK256 SWAP2 SWAP1 SWAP2 ADD DUP1 SLOAD PUSH1 0x1 PUSH1 0x1 PUSH1 0xA0 SHL SUB NOT AND PUSH1 0x1 PUSH1 0x1 PUSH1 0xA0 SHL SUB SWAP5 DUP6 AND OR SWAP1 SSTORE SWAP2 DUP6 AND DUP2 MSTORE PUSH1 0x2 DUP3 MSTORE PUSH1 0x40 DUP1 DUP3 KECCAK256 DUP3 SWAP1 SSTORE PUSH1 0x7 SWAP1 SWAP3 MSTORE KECCAK256 DUP1 SLOAD PUSH1 0xFF NOT AND SWAP1 SSTORE PUSH1 0x8 DUP1 SLOAD DUP1 PUSH2 0xDA7 JUMPI PUSH4 0x4E487B71 PUSH1 0xE0 SHL PUSH1 0x0 MSTORE PUSH1 0x31 PUSH1 0x4 MSTORE PUSH1 0x24 PUSH1 0x0 REVERT JUMPDEST PUSH1 0x0 DUP3 DUP2 MSTORE PUSH1 0x20 SWAP1 KECCAK256 DUP2 ADD PUSH1 0x0 NOT SWAP1 DUP2 ADD DUP1 SLOAD PUSH1 0x1 PUSH1 0x1 PUSH1 0xA0 SHL SUB NOT AND SWAP1 SSTORE ADD SWAP1 SSTORE PUSH2 0xDE0 JUMP JUMPDEST DUP1 PUSH2 0xDD8 DUP2 PUSH2 0x47AC JUMP JUMPDEST SWAP2 POP POP PUSH2 0xC89 JUMP JUMPDEST POP JUMPDEST POP POP JUMP JUMPDEST PUSH1 0x16 SLOAD SWAP1 JUMP JUMPDEST PUSH1 0x14 SLOAD PUSH2 0xFFFF DUP1 DUP3 AND SWAP2 PUSH3 0x10000 DUP2 DIV DUP3 AND SWAP2 PUSH1 0x1 PUSH1 0x20 SHL DUP3 DIV DUP2 AND SWAP2 PUSH1 0x1 PUSH1 0x30 SHL DUP2 DIV DUP3 AND SWAP2 PUSH1 0x1 PUSH1 0x40 SHL SWAP1 SWAP2 DIV AND DUP6 JUMP JUMPDEST PUSH1 0x1 PUSH1 0x1 PUSH1 0xA0 SHL SUB DUP4 AND PUSH1 0x0 SWAP1 DUP2 MSTORE PUSH1 0x5 PUSH1 0x20 SWAP1 DUP2 MSTORE PUSH1 0x40 DUP1 DUP4 KECCAK256 CALLER DUP5 MSTORE SWAP1 SWAP2 MSTORE DUP2 KECCAK256 SLOAD PUSH1 0x0 NOT EQ PUSH2 0xE84 JUMPI PUSH1 0x1 PUSH1 0x1 PUSH1 0xA0 SHL SUB DUP5 AND PUSH1 0x0 SWAP1 DUP2 MSTORE PUSH1 0x5 PUSH1 0x20 SWAP1 DUP2 MSTORE PUSH1 0x40 DUP1 DUP4 KECCAK256 CALLER DUP5 MSTORE SWAP1 SWAP2 MSTORE DUP2 KECCAK256 DUP1 SLOAD DUP5 SWAP3 SWAP1 PUSH2 0xE7E SWAP1 DUP5 SWAP1 PUSH2 0x475A JUMP JUMPDEST SWAP1 SWAP2 SSTORE POP POP JUMPDEST PUSH2 0xE8F DUP5 DUP5 DUP5 PUSH2 0x2A08 JUMP JUMPDEST SWAP5 SWAP4 POP POP POP POP JUMP JUMPDEST PUSH2 0xE9F PUSH2 0x2950 JUMP JUMPDEST PUSH1 0x0 SLOAD PUSH3 0x10000 SWAP1 DIV PUSH1 0x1 PUSH1 0x1 PUSH1 0xA0 SHL SUB SWAP1 DUP2 AND SWAP2 AND EQ PUSH2 0xED2 JUMPI PUSH1 0x40 MLOAD PUSH3 0x461BCD PUSH1 0xE5 SHL DUP2 MSTORE PUSH1 0x4 ADD PUSH2 0x9D7 SWAP1 PUSH2 0x4167 JUMP JUMPDEST PUSH1 0x0 DUP2 DUP4 PUSH1 0x16 SLOAD PUSH2 0xEE3 SWAP2 SWAP1 PUSH2 0x473B JUMP JUMPDEST PUSH2 0xEED SWAP2 SWAP1 PUSH2 0x4727 JUMP JUMPDEST SWAP1 POP PUSH2 0x3E8 PUSH1 0x16 SLOAD PUSH2 0xEFF SWAP2 SWAP1 PUSH2 0x4727 JUMP JUMPDEST DUP2 LT ISZERO PUSH2 0xF1E JUMPI PUSH1 0x40 MLOAD PUSH3 0x461BCD PUSH1 0xE5 SHL DUP2 MSTORE PUSH1 0x4 ADD PUSH2 0x9D7 SWAP1 PUSH2 0x42E3 JUMP JUMPDEST PUSH1 0x1E DUP2 SWAP1 SSTORE PUSH1 0xC SLOAD DUP3 SWAP1 PUSH2 0xF33 SWAP1 DUP6 SWAP1 PUSH2 0x473B JUMP JUMPDEST PUSH2 0xF3D SWAP2 SWAP1 PUSH2 0x4727 JUMP JUMPDEST PUSH1 0x1F SSTORE POP POP POP JUMP JUMPDEST PUSH2 0xF4D PUSH2 0x2950 JUMP JUMPDEST PUSH1 0x0 SLOAD PUSH3 0x10000 SWAP1 DIV PUSH1 0x1 PUSH1 0x1 PUSH1 0xA0 SHL SUB SWAP1 DUP2 AND SWAP2 AND EQ PUSH2 0xF80 JUMPI PUSH1 0x40 MLOAD PUSH3 0x461BCD PUSH1 0xE5 SHL DUP2 MSTORE PUSH1 0x4 ADD PUSH2 0x9D7 SWAP1 PUSH2 0x4167 JUMP JUMPDEST PUSH1 0x22 SLOAD PUSH1 0x40 MLOAD PUSH4 0x109DA69 PUSH1 0xE0 SHL DUP2 MSTORE PUSH3 0x10000 SWAP1 SWAP2 DIV PUSH1 0x1 PUSH1 0x1 PUSH1 0xA0 SHL SUB AND SWAP1 PUSH4 0x109DA69 SWAP1 PUSH2 0xFBB SWAP1 DUP8 SWAP1 DUP8 SWAP1 DUP8 SWAP1 DUP8 SWAP1 PUSH1 0x4 ADD PUSH2 0x400D JUMP JUMPDEST PUSH1 0x0 PUSH1 0x40 MLOAD DUP1 DUP4 SUB DUP2 PUSH1 0x0 DUP8 DUP1 EXTCODESIZE ISZERO DUP1 ISZERO PUSH2 0xFD5 JUMPI PUSH1 0x0 DUP1 REVERT JUMPDEST POP GAS CALL ISZERO DUP1 ISZERO PUSH2 0xFE9 JUMPI RETURNDATASIZE PUSH1 0x0 DUP1 RETURNDATACOPY RETURNDATASIZE PUSH1 0x0 REVERT JUMPDEST POP POP POP POP POP POP POP POP JUMP JUMPDEST PUSH1 0x0 PUSH1 0x17 SLOAD DUP3 GT ISZERO PUSH2 0x1017 JUMPI PUSH1 0x40 MLOAD PUSH3 0x461BCD PUSH1 0xE5 SHL DUP2 MSTORE PUSH1 0x4 ADD PUSH2 0x9D7 SWAP1 PUSH2 0x411D JUMP JUMPDEST PUSH1 0x0 PUSH2 0x1021 PUSH2 0x2C65 JUMP JUMPDEST SWAP1 POP PUSH2 0x102D DUP2 DUP5 PUSH2 0x4727 JUMP JUMPDEST SWAP2 POP POP JUMPDEST SWAP2 SWAP1 POP JUMP JUMPDEST PUSH1 0x15 SLOAD PUSH1 0xFF AND SWAP1 JUMP JUMPDEST PUSH2 0x1047 PUSH2 0x2950 JUMP JUMPDEST PUSH1 0x0 SLOAD PUSH3 0x10000 SWAP1 DIV PUSH1 0x1 PUSH1 0x1 PUSH1 0xA0 SHL SUB SWAP1 DUP2 AND SWAP2 AND EQ PUSH2 0x107A JUMPI PUSH1 0x40 MLOAD PUSH3 0x461BCD PUSH1 0xE5 SHL DUP2 MSTORE PUSH1 0x4 ADD PUSH2 0x9D7 SWAP1 PUSH2 0x4167 JUMP JUMPDEST PUSH1 0x22 SLOAD PUSH1 0x40 MLOAD PUSH4 0x33251A0B PUSH1 0xE0 SHL DUP2 MSTORE PUSH3 0x10000 SWAP1 SWAP2 DIV PUSH1 0x1 PUSH1 0x1 PUSH1 0xA0 SHL SUB AND SWAP1 PUSH4 0x33251A0B SWAP1 PUSH2 0xA36 SWAP1 DUP5 SWAP1 PUSH1 0x4 ADD PUSH2 0x3F29 JUMP JUMPDEST PUSH1 0x0 PUSH2 0xA7F PUSH2 0x10BC PUSH2 0x2950 JUMP JUMPDEST DUP5 DUP5 PUSH1 0x5 PUSH1 0x0 PUSH2 0x10CA PUSH2 0x2950 JUMP JUMPDEST PUSH1 0x1 PUSH1 0x1 PUSH1 0xA0 SHL SUB SWAP1 DUP2 AND DUP3 MSTORE PUSH1 0x20 DUP1 DUP4 ADD SWAP4 SWAP1 SWAP4 MSTORE PUSH1 0x40 SWAP2 DUP3 ADD PUSH1 0x0 SWAP1 DUP2 KECCAK256 SWAP2 DUP12 AND DUP2 MSTORE SWAP3 MSTORE SWAP1 KECCAK256 SLOAD PUSH2 0x10FE SWAP2 SWAP1 PUSH2 0x470F JUMP JUMPDEST PUSH2 0x2954 JUMP JUMPDEST PUSH2 0x110B PUSH2 0x2950 JUMP JUMPDEST PUSH1 0x0 SLOAD PUSH3 0x10000 SWAP1 DIV PUSH1 0x1 PUSH1 0x1 PUSH1 0xA0 SHL SUB SWAP1 DUP2 AND SWAP2 AND EQ PUSH2 0x113E JUMPI PUSH1 0x40 MLOAD PUSH3 0x461BCD PUSH1 0xE5 SHL DUP2 MSTORE PUSH1 0x4 ADD PUSH2 0x9D7 SWAP1 PUSH2 0x4167 JUMP JUMPDEST PUSH1 0x0 DUP2 DUP4 PUSH1 0x16 SLOAD PUSH2 0x114F SWAP2 SWAP1 PUSH2 0x473B JUMP JUMPDEST PUSH2 0x1159 SWAP2 SWAP1 PUSH2 0x4727 JUMP JUMPDEST SWAP1 POP PUSH2 0x3E8 PUSH1 0x16 SLOAD PUSH2 0x116B SWAP2 SWAP1 PUSH2 0x4727 JUMP JUMPDEST DUP2 LT ISZERO PUSH2 0x118A JUMPI PUSH1 0x40 MLOAD PUSH3 0x461BCD PUSH1 0xE5 SHL DUP2 MSTORE PUSH1 0x4 ADD PUSH2 0x9D7 SWAP1 PUSH2 0x4241 JUMP JUMPDEST PUSH1 0x1C DUP2 SWAP1 SSTORE PUSH1 0xC SLOAD DUP3 SWAP1 PUSH2 0x119F SWAP1 DUP6 SWAP1 PUSH2 0x473B JUMP JUMPDEST PUSH2 0x11A9 SWAP2 SWAP1 PUSH2 0x4727 JUMP JUMPDEST PUSH1 0x1D SSTORE POP POP POP JUMP JUMPDEST PUSH1 0x1A SLOAD PUSH1 0x1 PUSH1 0x1 PUSH1 0xA0 SHL SUB AND DUP2 JUMP JUMPDEST PUSH1 0x22 SLOAD PUSH1 0xFF AND DUP2 JUMP JUMPDEST PUSH2 0x11D1 PUSH2 0x2950 JUMP JUMPDEST PUSH1 0x0 SLOAD PUSH3 0x10000 SWAP1 DIV PUSH1 0x1 PUSH1 0x1 PUSH1 0xA0 SHL SUB SWAP1 DUP2 AND SWAP2 AND EQ PUSH2 0x1204 JUMPI PUSH1 0x40 MLOAD PUSH3 0x461BCD PUSH1 0xE5 SHL DUP2 MSTORE PUSH1 0x4 ADD PUSH2 0x9D7 SWAP1 PUSH2 0x4167 JUMP JUMPDEST PUSH1 0x1 PUSH1 0x1 PUSH1 0xA0 SHL SUB DUP2 AND PUSH2 0x1217 JUMPI PUSH1 0x0 DUP1 REVERT JUMPDEST PUSH1 0x1 PUSH1 0x1 PUSH1 0xA0 SHL SUB DUP2 AND PUSH2 0xDEAD EQ ISZERO PUSH2 0x122F JUMPI PUSH1 0x0 DUP1 REVERT JUMPDEST PUSH2 0x124F PUSH1 0x0 PUSH1 0x2 SWAP1 SLOAD SWAP1 PUSH2 0x100 EXP SWAP1 DIV PUSH1 0x1 PUSH1 0x1 PUSH1 0xA0 SHL SUB AND PUSH1 0x0 PUSH2 0x137A JUMP JUMPDEST PUSH2 0x125A DUP2 PUSH1 0x1 PUSH2 0x137A JUMP JUMPDEST PUSH1 0x22 SLOAD PUSH1 0xFF AND ISZERO PUSH2 0x1270 JUMPI PUSH2 0x1270 DUP2 PUSH1 0x1 PUSH2 0xA88 JUMP JUMPDEST PUSH1 0x0 SLOAD PUSH1 0x1B SLOAD PUSH1 0x1 PUSH1 0x1 PUSH1 0xA0 SHL SUB SWAP1 DUP2 AND PUSH3 0x10000 SWAP1 SWAP3 DIV AND EQ ISZERO PUSH2 0x12AB JUMPI PUSH1 0x1B DUP1 SLOAD PUSH1 0x1 PUSH1 0x1 PUSH1 0xA0 SHL SUB NOT AND PUSH1 0x1 PUSH1 0x1 PUSH1 0xA0 SHL SUB DUP4 AND OR SWAP1 SSTORE JUMPDEST PUSH1 0x0 DUP1 SLOAD PUSH2 0x12C7 SWAP1 PUSH3 0x10000 SWAP1 DIV PUSH1 0x1 PUSH1 0x1 PUSH1 0xA0 SHL SUB AND PUSH2 0x1473 JUMP JUMPDEST GT ISZERO PUSH2 0x12F4 JUMPI PUSH1 0x0 SLOAD PUSH2 0x12F2 SWAP1 PUSH3 0x10000 SWAP1 DIV PUSH1 0x1 PUSH1 0x1 PUSH1 0xA0 SHL SUB AND DUP3 PUSH2 0x12ED DUP3 PUSH2 0x1473 JUMP JUMPDEST PUSH2 0x2A08 JUMP JUMPDEST POP JUMPDEST PUSH1 0x0 DUP1 SLOAD PUSH3 0x10000 PUSH1 0x1 PUSH1 0xB0 SHL SUB NOT AND PUSH3 0x10000 PUSH1 0x1 PUSH1 0x1 PUSH1 0xA0 SHL SUB DUP5 DUP2 AND DUP3 DUP2 MUL SWAP4 SWAP1 SWAP4 OR DUP1 DUP6 SSTORE PUSH1 0x40 MLOAD SWAP4 SWAP5 SWAP3 SWAP1 DIV AND SWAP2 PUSH32 0x8BE0079C531659141344CD1FD0A4F28419497F9722A3DAAFE3B4186F6B6457E0 SWAP2 SWAP1 LOG3 POP JUMP JUMPDEST PUSH1 0x1 PUSH1 0x1 PUSH1 0xA0 SHL SUB AND PUSH1 0x0 SWAP1 DUP2 MSTORE PUSH1 0x6 PUSH1 0x20 MSTORE PUSH1 0x40 SWAP1 KECCAK256 SLOAD PUSH1 0xFF AND SWAP1 JUMP JUMPDEST PUSH1 0x22 SLOAD PUSH2 0x100 SWAP1 DIV PUSH1 0xFF AND DUP2 JUMP JUMPDEST PUSH2 0x1382 PUSH2 0x2950 JUMP JUMPDEST PUSH1 0x0 SLOAD PUSH3 0x10000 SWAP1 DIV PUSH1 0x1 PUSH1 0x1 PUSH1 0xA0 SHL SUB SWAP1 DUP2 AND SWAP2 AND EQ PUSH2 0x13B5 JUMPI PUSH1 0x40 MLOAD PUSH3 0x461BCD PUSH1 0xE5 SHL DUP2 MSTORE PUSH1 0x4 ADD PUSH2 0x9D7 SWAP1 PUSH2 0x4167 JUMP JUMPDEST PUSH1 0x1 PUSH1 0x1 PUSH1 0xA0 SHL SUB SWAP2 SWAP1 SWAP2 AND PUSH1 0x0 SWAP1 DUP2 MSTORE PUSH1 0x6 PUSH1 0x20 MSTORE PUSH1 0x40 SWAP1 KECCAK256 DUP1 SLOAD PUSH1 0xFF NOT AND SWAP2 ISZERO ISZERO SWAP2 SWAP1 SWAP2 OR SWAP1 SSTORE JUMP JUMPDEST PUSH2 0x13E8 PUSH2 0x2950 JUMP JUMPDEST PUSH1 0x0 SLOAD PUSH3 0x10000 SWAP1 DIV PUSH1 0x1 PUSH1 0x1 PUSH1 0xA0 SHL SUB SWAP1 DUP2 AND SWAP2 AND EQ PUSH2 0x141B JUMPI PUSH1 0x40 MLOAD PUSH3 0x461BCD PUSH1 0xE5 SHL DUP2 MSTORE PUSH1 0x4 ADD PUSH2 0x9D7 SWAP1 PUSH2 0x4167 JUMP JUMPDEST PUSH1 0x22 SLOAD PUSH2 0x100 SWAP1 DIV PUSH1 0xFF AND ISZERO PUSH2 0x1443 JUMPI PUSH1 0x40 MLOAD PUSH3 0x461BCD PUSH1 0xE5 SHL DUP2 MSTORE PUSH1 0x4 ADD PUSH2 0x9D7 SWAP1 PUSH2 0x455E JUMP JUMPDEST PUSH1 0x22 DUP1 SLOAD PUSH1 0x1 PUSH1 0x1 PUSH1 0xA0 SHL SUB SWAP1 SWAP3 AND PUSH3 0x10000 MUL PUSH3 0x10000 PUSH1 0x1 PUSH1 0xB0 SHL SUB NOT SWAP1 SWAP3 AND SWAP2 SWAP1 SWAP2 OR SWAP1 SSTORE JUMP JUMPDEST PUSH1 0x1D SLOAD DUP2 JUMP JUMPDEST PUSH1 0x1 PUSH1 0x1 PUSH1 0xA0 SHL SUB DUP2 AND PUSH1 0x0 SWAP1 DUP2 MSTORE PUSH1 0x7 PUSH1 0x20 MSTORE PUSH1 0x40 DUP2 KECCAK256 SLOAD PUSH1 0xFF AND ISZERO PUSH2 0x14B3 JUMPI POP PUSH1 0x1 PUSH1 0x1 PUSH1 0xA0 SHL SUB DUP2 AND PUSH1 0x0 SWAP1 DUP2 MSTORE PUSH1 0x2 PUSH1 0x20 MSTORE PUSH1 0x40 SWAP1 KECCAK256 SLOAD PUSH2 0x1031 JUMP JUMPDEST PUSH1 0x1 PUSH1 0x1 PUSH1 0xA0 SHL SUB DUP3 AND PUSH1 0x0 SWAP1 DUP2 MSTORE PUSH1 0x1 PUSH1 0x20 MSTORE PUSH1 0x40 SWAP1 KECCAK256 SLOAD PUSH2 0x14D5 SWAP1 PUSH2 0xFF3 JUMP JUMPDEST SWAP3 SWAP2 POP POP JUMP JUMPDEST PUSH2 0x14E3 PUSH2 0x2950 JUMP JUMPDEST PUSH1 0x0 SLOAD PUSH3 0x10000 SWAP1 DIV PUSH1 0x1 PUSH1 0x1 PUSH1 0xA0 SHL SUB SWAP1 DUP2 AND SWAP2 AND EQ PUSH2 0x1516 JUMPI PUSH1 0x40 MLOAD PUSH3 0x461BCD PUSH1 0xE5 SHL DUP2 MSTORE PUSH1 0x4 ADD PUSH2 0x9D7 SWAP1 PUSH2 0x4167 JUMP JUMPDEST PUSH2 0x1536 PUSH1 0x0 PUSH1 0x2 SWAP1 SLOAD SWAP1 PUSH2 0x100 EXP SWAP1 DIV PUSH1 0x1 PUSH1 0x1 PUSH1 0xA0 SHL SUB AND PUSH1 0x0 PUSH2 0x137A JUMP JUMPDEST PUSH1 0x0 DUP1 SLOAD PUSH3 0x10000 PUSH1 0x1 PUSH1 0xB0 SHL SUB NOT AND DUP1 DUP3 SSTORE PUSH1 0x40 MLOAD PUSH3 0x10000 SWAP1 SWAP2 DIV PUSH1 0x1 PUSH1 0x1 PUSH1 0xA0 SHL SUB AND SWAP1 PUSH32 0x8BE0079C531659141344CD1FD0A4F28419497F9722A3DAAFE3B4186F6B6457E0 SWAP1 DUP4 SWAP1 LOG3 JUMP JUMPDEST PUSH1 0x10 SLOAD PUSH2 0xFFFF DUP1 DUP3 AND SWAP2 PUSH3 0x10000 DUP2 DIV DUP3 AND SWAP2 PUSH1 0x1 PUSH1 0x20 SHL DUP3 DIV DUP2 AND SWAP2 PUSH1 0x1 PUSH1 0x30 SHL SWAP1 DIV AND DUP5 JUMP JUMPDEST PUSH2 0x15B4 PUSH2 0x2950 JUMP JUMPDEST PUSH1 0x0 SLOAD PUSH3 0x10000 SWAP1 DIV PUSH1 0x1 PUSH1 0x1 PUSH1 0xA0 SHL SUB SWAP1 DUP2 AND SWAP2 AND EQ PUSH2 0x15E7 JUMPI PUSH1 0x40 MLOAD PUSH3 0x461BCD PUSH1 0xE5 SHL DUP2 MSTORE PUSH1 0x4 ADD PUSH2 0x9D7 SWAP1 PUSH2 0x4167 JUMP JUMPDEST PUSH1 0x22 SLOAD PUSH1 0x1 PUSH1 0xB0 SHL SWAP1 DIV PUSH1 0xFF AND ISZERO PUSH2 0x1611 JUMPI PUSH1 0x40 MLOAD PUSH3 0x461BCD PUSH1 0xE5 SHL DUP2 MSTORE PUSH1 0x4 ADD PUSH2 0x9D7 SWAP1 PUSH2 0x4499 JUMP JUMPDEST PUSH1 0x40 DUP1 MLOAD DUP1 DUP3 ADD SWAP1 SWAP2 MSTORE PUSH1 0x5 DUP1 DUP3 MSTORE PUSH5 0x2A37B5B2B7 PUSH1 0xD9 SHL PUSH1 0x20 SWAP1 SWAP3 ADD SWAP2 DUP3 MSTORE PUSH2 0x163D SWAP2 PUSH1 0xD SWAP2 PUSH2 0x3B81 JUMP JUMPDEST POP PUSH1 0x40 DUP1 MLOAD DUP1 DUP3 ADD SWAP1 SWAP2 MSTORE PUSH1 0x3 DUP1 DUP3 MSTORE PUSH3 0x544F4B PUSH1 0xE8 SHL PUSH1 0x20 SWAP1 SWAP3 ADD SWAP2 DUP3 MSTORE PUSH2 0x1668 SWAP2 PUSH1 0xE SWAP2 PUSH2 0x3B81 JUMP JUMPDEST POP PUSH1 0x15 DUP1 SLOAD PUSH1 0xFF NOT AND PUSH1 0x12 OR SWAP1 SSTORE PUSH11 0x52B7D2DCC80CD2E4000000 PUSH1 0x16 DUP2 SWAP1 SSTORE PUSH2 0x1693 SWAP1 PUSH1 0x0 NOT PUSH2 0x47C7 JUMP JUMPDEST PUSH2 0x169F SWAP1 PUSH1 0x0 NOT PUSH2 0x475A JUMP JUMPDEST PUSH1 0x17 SSTORE PUSH1 0x19 DUP1 SLOAD PUSH1 0x1 PUSH1 0x1 PUSH1 0xA0 SHL SUB NOT AND PUSH20 0x7A250D5630B4CF539739DF2C5DACB4C659F2488D OR SWAP1 DUP2 SWAP1 SSTORE PUSH1 0x40 DUP1 MLOAD PUSH4 0xC45A0155 PUSH1 0xE0 SHL DUP2 MSTORE SWAP1 MLOAD PUSH1 0x1 PUSH1 0x1 PUSH1 0xA0 SHL SUB SWAP3 SWAP1 SWAP3 AND SWAP2 PUSH4 0xC45A0155 SWAP2 PUSH1 0x4 DUP1 DUP3 ADD SWAP3 PUSH1 0x20 SWAP3 SWAP1 SWAP2 SWAP1 DUP3 SWAP1 SUB ADD DUP2 DUP7 DUP1 EXTCODESIZE ISZERO DUP1 ISZERO PUSH2 0x170D JUMPI PUSH1 0x0 DUP1 REVERT JUMPDEST POP GAS STATICCALL ISZERO DUP1 ISZERO PUSH2 0x1721 JUMPI RETURNDATASIZE PUSH1 0x0 DUP1 RETURNDATACOPY RETURNDATASIZE PUSH1 0x0 REVERT JUMPDEST POP POP POP POP PUSH1 0x40 MLOAD RETURNDATASIZE PUSH1 0x1F NOT PUSH1 0x1F DUP3 ADD AND DUP3 ADD DUP1 PUSH1 0x40 MSTORE POP DUP2 ADD SWAP1 PUSH2 0x1745 SWAP2 SWAP1 PUSH2 0x3C7E JUMP JUMPDEST PUSH1 0x1 PUSH1 0x1 PUSH1 0xA0 SHL SUB AND PUSH4 0xC9C65396 PUSH1 0x19 PUSH1 0x0 SWAP1 SLOAD SWAP1 PUSH2 0x100 EXP SWAP1 DIV PUSH1 0x1 PUSH1 0x1 PUSH1 0xA0 SHL SUB AND PUSH1 0x1 PUSH1 0x1 PUSH1 0xA0 SHL SUB AND PUSH4 0xAD5C4648 PUSH1 0x40 MLOAD DUP2 PUSH4 0xFFFFFFFF AND PUSH1 0xE0 SHL DUP2 MSTORE PUSH1 0x4 ADD PUSH1 0x20 PUSH1 0x40 MLOAD DUP1 DUP4 SUB DUP2 DUP7 DUP1 EXTCODESIZE ISZERO DUP1 ISZERO PUSH2 0x17A1 JUMPI PUSH1 0x0 DUP1 REVERT JUMPDEST POP GAS STATICCALL ISZERO DUP1 ISZERO PUSH2 0x17B5 JUMPI RETURNDATASIZE PUSH1 0x0 DUP1 RETURNDATACOPY RETURNDATASIZE PUSH1 0x0 REVERT JUMPDEST POP POP POP POP PUSH1 0x40 MLOAD RETURNDATASIZE PUSH1 0x1F NOT PUSH1 0x1F DUP3 ADD AND DUP3 ADD DUP1 PUSH1 0x40 MSTORE POP DUP2 ADD SWAP1 PUSH2 0x17D9 SWAP2 SWAP1 PUSH2 0x3C7E JUMP JUMPDEST ADDRESS PUSH1 0x40 MLOAD DUP4 PUSH4 0xFFFFFFFF AND PUSH1 0xE0 SHL DUP2 MSTORE PUSH1 0x4 ADD PUSH2 0x17F7 SWAP3 SWAP2 SWAP1 PUSH2 0x3F3D JUMP JUMPDEST PUSH1 0x20 PUSH1 0x40 MLOAD DUP1 DUP4 SUB DUP2 PUSH1 0x0 DUP8 DUP1 EXTCODESIZE ISZERO DUP1 ISZERO PUSH2 0x1811 JUMPI PUSH1 0x0 DUP1 REVERT JUMPDEST POP GAS CALL ISZERO DUP1 ISZERO PUSH2 0x1825 JUMPI RETURNDATASIZE PUSH1 0x0 DUP1 RETURNDATACOPY RETURNDATASIZE PUSH1 0x0 REVERT JUMPDEST POP POP POP POP PUSH1 0x40 MLOAD RETURNDATASIZE PUSH1 0x1F NOT PUSH1 0x1F DUP3 ADD AND DUP3 ADD DUP1 PUSH1 0x40 MSTORE POP DUP2 ADD SWAP1 PUSH2 0x1849 SWAP2 SWAP1 PUSH2 0x3C7E JUMP JUMPDEST PUSH1 0x1A DUP1 SLOAD PUSH1 0x1 PUSH1 0x1 PUSH1 0xA0 SHL SUB NOT AND PUSH1 0x1 PUSH1 0x1 PUSH1 0xA0 SHL SUB SWAP3 DUP4 AND OR SWAP1 DUP2 SWAP1 SSTORE AND PUSH1 0x0 SWAP1 DUP2 MSTORE PUSH1 0x3 PUSH1 0x20 MSTORE PUSH1 0x40 SWAP1 KECCAK256 DUP1 SLOAD PUSH1 0xFF NOT AND PUSH1 0x1 OR SWAP1 SSTORE PUSH1 0x16 SLOAD PUSH1 0x2 SWAP1 PUSH2 0x3E8 SWAP1 DUP2 SWAP1 PUSH2 0x1898 SWAP1 DUP5 SWAP1 PUSH2 0x473B JUMP JUMPDEST PUSH2 0x18A2 SWAP2 SWAP1 PUSH2 0x4727 JUMP JUMPDEST PUSH1 0x1C SSTORE PUSH1 0xC SLOAD DUP2 SWAP1 PUSH2 0x18B5 SWAP1 DUP5 SWAP1 PUSH2 0x473B JUMP JUMPDEST PUSH2 0x18BF SWAP2 SWAP1 PUSH2 0x4727 JUMP JUMPDEST PUSH1 0x1D SSTORE POP POP PUSH1 0x16 SLOAD PUSH1 0x37 SWAP1 PUSH2 0x2710 SWAP1 DUP2 SWAP1 PUSH2 0x18DB SWAP1 DUP5 SWAP1 PUSH2 0x473B JUMP JUMPDEST PUSH2 0x18E5 SWAP2 SWAP1 PUSH2 0x4727 JUMP JUMPDEST PUSH1 0x1E SSTORE PUSH1 0xC SLOAD DUP2 SWAP1 PUSH2 0x18F8 SWAP1 DUP5 SWAP1 PUSH2 0x473B JUMP JUMPDEST PUSH2 0x1902 SWAP2 SWAP1 PUSH2 0x4727 JUMP JUMPDEST PUSH1 0x1F SSTORE PUSH1 0x16 SLOAD PUSH2 0x2710 SWAP1 PUSH2 0x1917 SWAP1 PUSH1 0x5 PUSH2 0x473B JUMP JUMPDEST PUSH2 0x1921 SWAP2 SWAP1 PUSH2 0x4727 JUMP JUMPDEST PUSH1 0x20 SSTORE PUSH1 0x16 SLOAD PUSH2 0x3E8 SWAP1 PUSH2 0x1936 SWAP1 PUSH1 0x5 PUSH2 0x473B JUMP JUMPDEST PUSH2 0x1940 SWAP2 SWAP1 PUSH2 0x4727 JUMP JUMPDEST PUSH1 0x21 SSTORE PUSH1 0x22 SLOAD PUSH3 0x10000 SWAP1 DIV PUSH1 0x1 PUSH1 0x1 PUSH1 0xA0 SHL SUB AND PUSH2 0x1973 JUMPI PUSH1 0x22 DUP1 SLOAD PUSH3 0x10000 PUSH1 0x1 PUSH1 0xB0 SHL SUB NOT AND ADDRESS PUSH3 0x10000 MUL OR SWAP1 SSTORE JUMPDEST PUSH1 0x22 DUP1 SLOAD PUSH1 0xFF PUSH1 0xB0 SHL NOT AND PUSH1 0x1 PUSH1 0xB0 SHL OR SWAP1 SSTORE PUSH1 0x17 SLOAD PUSH1 0x1 PUSH1 0x0 PUSH2 0x1995 PUSH2 0x1E18 JUMP JUMPDEST PUSH1 0x1 PUSH1 0x1 PUSH1 0xA0 SHL SUB AND DUP2 MSTORE PUSH1 0x20 DUP2 ADD SWAP2 SWAP1 SWAP2 MSTORE PUSH1 0x40 ADD PUSH1 0x0 KECCAK256 SSTORE PUSH2 0x19B7 PUSH2 0x1E18 JUMP JUMPDEST PUSH1 0x1 PUSH1 0x1 PUSH1 0xA0 SHL SUB AND PUSH1 0x0 PUSH1 0x1 PUSH1 0x1 PUSH1 0xA0 SHL SUB AND PUSH32 0xDDF252AD1BE2C89B69C2B068FC378DAA952BA7F163C4A11628F55A4DF523B3EF PUSH1 0x16 SLOAD PUSH1 0x40 MLOAD PUSH2 0x19FC SWAP2 SWAP1 PUSH2 0x464C JUMP JUMPDEST PUSH1 0x40 MLOAD DUP1 SWAP2 SUB SWAP1 LOG3 PUSH1 0x19 SLOAD PUSH2 0x1A1E SWAP1 ADDRESS SWAP1 PUSH1 0x1 PUSH1 0x1 PUSH1 0xA0 SHL SUB AND PUSH1 0x0 NOT PUSH2 0x2954 JUMP JUMPDEST PUSH2 0x1A35 PUSH2 0x1A29 PUSH2 0x1E18 JUMP JUMPDEST ADDRESS PUSH2 0x12ED PUSH2 0x619 PUSH2 0x1E18 JUMP JUMPDEST POP PUSH1 0x19 SLOAD PUSH1 0x1 PUSH1 0x1 PUSH1 0xA0 SHL SUB AND PUSH4 0xF305D719 SELFBALANCE ADDRESS PUSH2 0x1A52 DUP2 PUSH2 0x1473 JUMP JUMPDEST PUSH1 0x0 DUP1 PUSH2 0x1A5D PUSH2 0x1E18 JUMP JUMPDEST TIMESTAMP PUSH1 0x40 MLOAD DUP9 PUSH4 0xFFFFFFFF AND PUSH1 0xE0 SHL DUP2 MSTORE PUSH1 0x4 ADD PUSH2 0x1A7F SWAP7 SWAP6 SWAP5 SWAP4 SWAP3 SWAP2 SWAP1 PUSH2 0x3F96 JUMP JUMPDEST PUSH1 0x60 PUSH1 0x40 MLOAD DUP1 DUP4 SUB DUP2 DUP6 DUP9 DUP1 EXTCODESIZE ISZERO DUP1 ISZERO PUSH2 0x1A98 JUMPI PUSH1 0x0 DUP1 REVERT JUMPDEST POP GAS CALL ISZERO DUP1 ISZERO PUSH2 0x1AAC JUMPI RETURNDATASIZE PUSH1 0x0 DUP1 RETURNDATACOPY RETURNDATASIZE PUSH1 0x0 REVERT JUMPDEST POP POP POP POP POP PUSH1 0x40 MLOAD RETURNDATASIZE PUSH1 0x1F NOT PUSH1 0x1F DUP3 ADD AND DUP3 ADD DUP1 PUSH1 0x40 MSTORE POP DUP2 ADD SWAP1 PUSH2 0x1AD1 SWAP2 SWAP1 PUSH2 0x3ECB JUMP JUMPDEST POP POP POP PUSH2 0xDE2 PUSH2 0x1CF8 JUMP JUMPDEST PUSH2 0x1AE4 PUSH2 0x2950 JUMP JUMPDEST PUSH1 0x0 SLOAD PUSH3 0x10000 SWAP1 DIV PUSH1 0x1 PUSH1 0x1 PUSH1 0xA0 SHL SUB SWAP1 DUP2 AND SWAP2 AND EQ PUSH2 0x1B17 JUMPI PUSH1 0x40 MLOAD PUSH3 0x461BCD PUSH1 0xE5 SHL DUP2 MSTORE PUSH1 0x4 ADD PUSH2 0x9D7 SWAP1 PUSH2 0x4167 JUMP JUMPDEST DUP1 PUSH2 0x1BA4 JUMPI PUSH1 0x1 PUSH1 0x1 PUSH1 0xA0 SHL SUB DUP1 DUP4 AND PUSH1 0x0 SWAP1 DUP2 MSTORE PUSH1 0x3 PUSH1 0x20 MSTORE PUSH1 0x40 DUP1 DUP3 KECCAK256 DUP1 SLOAD PUSH1 0xFF NOT AND SWAP1 SSTORE PUSH1 0x22 SLOAD SWAP1 MLOAD PUSH4 0x80C581D1 PUSH1 0xE0 SHL DUP2 MSTORE PUSH3 0x10000 SWAP1 SWAP2 DIV SWAP1 SWAP3 AND SWAP2 PUSH4 0x80C581D1 SWAP2 PUSH2 0x1B6D SWAP2 DUP7 SWAP2 SWAP1 PUSH1 0x4 ADD PUSH2 0x3F7B JUMP JUMPDEST PUSH1 0x0 PUSH1 0x40 MLOAD DUP1 DUP4 SUB DUP2 PUSH1 0x0 DUP8 DUP1 EXTCODESIZE ISZERO DUP1 ISZERO PUSH2 0x1B87 JUMPI PUSH1 0x0 DUP1 REVERT JUMPDEST POP GAS CALL ISZERO DUP1 ISZERO PUSH2 0x1B9B JUMPI RETURNDATASIZE PUSH1 0x0 DUP1 RETURNDATACOPY RETURNDATASIZE PUSH1 0x0 REVERT JUMPDEST POP POP POP POP PUSH2 0xDE2 JUMP JUMPDEST PUSH1 0x4 SLOAD ISZERO PUSH2 0x1BDB JUMPI PUSH3 0x93A80 PUSH1 0x4 SLOAD TIMESTAMP PUSH2 0x1BBE SWAP2 SWAP1 PUSH2 0x475A JUMP JUMPDEST GT PUSH2 0x1BDB JUMPI PUSH1 0x40 MLOAD PUSH3 0x461BCD PUSH1 0xE5 SHL DUP2 MSTORE PUSH1 0x4 ADD PUSH2 0x9D7 SWAP1 PUSH2 0x41D5 JUMP JUMPDEST PUSH1 0x1 PUSH1 0x1 PUSH1 0xA0 SHL SUB DUP1 DUP4 AND PUSH1 0x0 SWAP1 DUP2 MSTORE PUSH1 0x3 PUSH1 0x20 MSTORE PUSH1 0x40 SWAP1 DUP2 SWAP1 KECCAK256 DUP1 SLOAD PUSH1 0xFF NOT AND PUSH1 0x1 SWAP1 DUP2 OR SWAP1 SWAP2 SSTORE TIMESTAMP PUSH1 0x4 SWAP1 DUP2 SSTORE PUSH1 0x22 SLOAD SWAP3 MLOAD PUSH4 0x80C581D1 PUSH1 0xE0 SHL DUP2 MSTORE PUSH3 0x10000 SWAP1 SWAP4 DIV SWAP1 SWAP4 AND SWAP3 PUSH4 0x80C581D1 SWAP3 PUSH2 0x1C38 SWAP3 DUP8 SWAP3 SWAP1 SWAP2 ADD PUSH2 0x3F7B JUMP JUMPDEST PUSH1 0x0 PUSH1 0x40 MLOAD DUP1 DUP4 SUB DUP2 PUSH1 0x0 DUP8 DUP1 EXTCODESIZE ISZERO DUP1 ISZERO PUSH2 0x1C52 JUMPI PUSH1 0x0 DUP1 REVERT JUMPDEST POP GAS CALL ISZERO DUP1 ISZERO PUSH2 0x1C66 JUMPI RETURNDATASIZE PUSH1 0x0 DUP1 RETURNDATACOPY RETURNDATASIZE PUSH1 0x0 REVERT JUMPDEST POP POP POP POP POP POP JUMP JUMPDEST PUSH1 0x1 PUSH1 0x1 PUSH1 0xA0 SHL SUB AND PUSH1 0x0 SWAP1 DUP2 MSTORE PUSH1 0x7 PUSH1 0x20 MSTORE PUSH1 0x40 SWAP1 KECCAK256 SLOAD PUSH1 0xFF AND SWAP1 JUMP JUMPDEST PUSH1 0x0 PUSH2 0x1C96 PUSH2 0x1E18 JUMP JUMPDEST SWAP1 POP SWAP1 JUMP JUMPDEST PUSH1 0x0 PUSH2 0x1CA5 PUSH2 0x2950 JUMP JUMPDEST PUSH1 0x0 SLOAD PUSH3 0x10000 SWAP1 DIV PUSH1 0x1 PUSH1 0x1 PUSH1 0xA0 SHL SUB SWAP1 DUP2 AND SWAP2 AND EQ PUSH2 0x1CD8 JUMPI PUSH1 0x40 MLOAD PUSH3 0x461BCD PUSH1 0xE5 SHL DUP2 MSTORE PUSH1 0x4 ADD PUSH2 0x9D7 SWAP1 PUSH2 0x4167 JUMP JUMPDEST PUSH1 0x19 SLOAD PUSH2 0x1CF2 SWAP1 ADDRESS SWAP1 PUSH1 0x1 PUSH1 0x1 PUSH1 0xA0 SHL SUB AND PUSH1 0x0 NOT PUSH2 0x2954 JUMP JUMPDEST POP PUSH1 0x1 SWAP1 JUMP JUMPDEST PUSH2 0x1D00 PUSH2 0x2950 JUMP JUMPDEST PUSH1 0x0 SLOAD PUSH3 0x10000 SWAP1 DIV PUSH1 0x1 PUSH1 0x1 PUSH1 0xA0 SHL SUB SWAP1 DUP2 AND SWAP2 AND EQ PUSH2 0x1D33 JUMPI PUSH1 0x40 MLOAD PUSH3 0x461BCD PUSH1 0xE5 SHL DUP2 MSTORE PUSH1 0x4 ADD PUSH2 0x9D7 SWAP1 PUSH2 0x4167 JUMP JUMPDEST PUSH1 0x22 SLOAD PUSH1 0xFF AND ISZERO PUSH2 0x1D56 JUMPI PUSH1 0x40 MLOAD PUSH3 0x461BCD PUSH1 0xE5 SHL DUP2 MSTORE PUSH1 0x4 ADD PUSH2 0x9D7 SWAP1 PUSH2 0x4595 JUMP JUMPDEST PUSH1 0x22 SLOAD PUSH2 0x100 SWAP1 DIV PUSH1 0xFF AND PUSH2 0x1D7D JUMPI PUSH1 0x40 MLOAD PUSH3 0x461BCD PUSH1 0xE5 SHL DUP2 MSTORE PUSH1 0x4 ADD PUSH2 0x9D7 SWAP1 PUSH2 0x43B4 JUMP JUMPDEST PUSH2 0x1D88 ADDRESS PUSH1 0x1 PUSH2 0xA88 JUMP JUMPDEST PUSH1 0x1A SLOAD PUSH2 0x1D9F SWAP1 PUSH1 0x1 PUSH1 0x1 PUSH1 0xA0 SHL SUB AND PUSH1 0x1 PUSH2 0xA88 JUMP JUMPDEST PUSH1 0x22 SLOAD PUSH1 0x1A SLOAD PUSH1 0x40 MLOAD PUSH4 0x12CE3C75 PUSH1 0xE2 SHL DUP2 MSTORE PUSH1 0x1 PUSH1 0x1 PUSH1 0xA0 SHL SUB PUSH3 0x10000 SWAP1 SWAP4 DIV DUP4 AND SWAP3 PUSH4 0x4B38F1D4 SWAP3 PUSH2 0x1DDD SWAP3 SWAP2 AND SWAP1 NUMBER SWAP1 TIMESTAMP SWAP1 PUSH1 0x4 ADD PUSH2 0x3FD1 JUMP JUMPDEST PUSH1 0x0 PUSH1 0x40 MLOAD DUP1 DUP4 SUB DUP2 PUSH1 0x0 DUP8 DUP1 EXTCODESIZE ISZERO DUP1 ISZERO PUSH2 0x1DF7 JUMPI PUSH1 0x0 DUP1 REVERT JUMPDEST POP GAS CALL SWAP3 POP POP POP DUP1 ISZERO PUSH2 0x1E08 JUMPI POP PUSH1 0x1 JUMPDEST POP PUSH1 0x22 DUP1 SLOAD PUSH1 0xFF NOT AND PUSH1 0x1 OR SWAP1 SSTORE JUMP JUMPDEST PUSH1 0x0 SLOAD PUSH3 0x10000 SWAP1 DIV PUSH1 0x1 PUSH1 0x1 PUSH1 0xA0 SHL SUB AND SWAP1 JUMP JUMPDEST PUSH1 0x60 PUSH1 0xE DUP1 SLOAD PUSH2 0x909 SWAP1 PUSH2 0x4771 JUMP JUMPDEST PUSH1 0x0 PUSH2 0xA7F PUSH2 0x1E49 PUSH2 0x2950 JUMP JUMPDEST DUP5 DUP5 PUSH1 0x5 PUSH1 0x0 PUSH2 0x1E57 PUSH2 0x2950 JUMP JUMPDEST PUSH1 0x1 PUSH1 0x1 PUSH1 0xA0 SHL SUB SWAP1 DUP2 AND DUP3 MSTORE PUSH1 0x20 DUP1 DUP4 ADD SWAP4 SWAP1 SWAP4 MSTORE PUSH1 0x40 SWAP2 DUP3 ADD PUSH1 0x0 SWAP1 DUP2 KECCAK256 SWAP2 DUP12 AND DUP2 MSTORE SWAP3 MSTORE SWAP1 KECCAK256 SLOAD PUSH2 0x10FE SWAP2 SWAP1 PUSH2 0x475A JUMP JUMPDEST PUSH1 0x0 PUSH2 0x1E9F PUSH2 0x1E98 PUSH2 0x2950 JUMP JUMPDEST DUP5 DUP5 PUSH2 0x2A08 JUMP JUMPDEST POP PUSH1 0x1 SWAP4 SWAP3 POP POP POP JUMP JUMPDEST PUSH2 0x1EB1 PUSH2 0x2950 JUMP JUMPDEST PUSH1 0x0 SLOAD PUSH3 0x10000 SWAP1 DIV PUSH1 0x1 PUSH1 0x1 PUSH1 0xA0 SHL SUB SWAP1 DUP2 AND SWAP2 AND EQ PUSH2 0x1EE4 JUMPI PUSH1 0x40 MLOAD PUSH3 0x461BCD PUSH1 0xE5 SHL DUP2 MSTORE PUSH1 0x4 ADD PUSH2 0x9D7 SWAP1 PUSH2 0x4167 JUMP JUMPDEST DUP1 PUSH2 0x1EEF DUP4 DUP6 PUSH2 0x46E9 JUMP JUMPDEST PUSH2 0x1EF9 SWAP2 SWAP1 PUSH2 0x46E9 JUMP JUMPDEST PUSH2 0xFFFF AND PUSH1 0x64 EQ PUSH2 0x1F1C JUMPI PUSH1 0x40 MLOAD PUSH3 0x461BCD PUSH1 0xE5 SHL DUP2 MSTORE PUSH1 0x4 ADD PUSH2 0x9D7 SWAP1 PUSH2 0x45CC JUMP JUMPDEST PUSH1 0x13 DUP1 SLOAD PUSH2 0xFFFF NOT AND PUSH2 0xFFFF DUP6 DUP2 AND SWAP2 SWAP1 SWAP2 OR PUSH4 0xFFFF0000 NOT AND PUSH3 0x10000 DUP6 DUP4 AND MUL OR PUSH2 0xFFFF PUSH1 0x20 SHL NOT AND PUSH1 0x1 PUSH1 0x20 SHL SWAP2 DUP5 AND SWAP2 SWAP1 SWAP2 MUL OR SWAP1 SSTORE DUP1 PUSH2 0x1F61 DUP4 DUP6 PUSH2 0x46E9 JUMP JUMPDEST PUSH2 0x1F6B SWAP2 SWAP1 PUSH2 0x46E9 JUMP JUMPDEST PUSH1 0x13 DUP1 SLOAD PUSH2 0xFFFF SWAP3 SWAP1 SWAP3 AND PUSH1 0x1 PUSH1 0x30 SHL MUL PUSH2 0xFFFF PUSH1 0x30 SHL NOT SWAP1 SWAP3 AND SWAP2 SWAP1 SWAP2 OR SWAP1 SSTORE POP POP POP JUMP JUMPDEST PUSH2 0x1F99 PUSH2 0x2950 JUMP JUMPDEST PUSH1 0x0 SLOAD PUSH3 0x10000 SWAP1 DIV PUSH1 0x1 PUSH1 0x1 PUSH1 0xA0 SHL SUB SWAP1 DUP2 AND SWAP2 AND EQ PUSH2 0x1FCC JUMPI PUSH1 0x40 MLOAD PUSH3 0x461BCD PUSH1 0xE5 SHL DUP2 MSTORE PUSH1 0x4 ADD PUSH2 0x9D7 SWAP1 PUSH2 0x4167 JUMP JUMPDEST PUSH1 0x14 SLOAD PUSH2 0xFFFF SWAP1 DUP2 AND SWAP1 DUP6 AND GT DUP1 ISZERO SWAP1 PUSH2 0x1FF6 JUMPI POP PUSH1 0x14 SLOAD PUSH2 0xFFFF PUSH3 0x10000 SWAP1 SWAP2 DIV DUP2 AND SWAP1 DUP5 AND GT ISZERO JUMPDEST DUP1 ISZERO PUSH2 0x2013 JUMPI POP PUSH1 0x14 SLOAD PUSH2 0xFFFF PUSH1 0x1 PUSH1 0x20 SHL SWAP1 SWAP2 DIV DUP2 AND SWAP1 DUP4 AND GT ISZERO JUMPDEST DUP1 ISZERO PUSH2 0x2030 JUMPI POP PUSH1 0x14 SLOAD PUSH2 0xFFFF PUSH1 0x1 PUSH1 0x30 SHL SWAP1 SWAP2 DIV DUP2 AND SWAP1 DUP3 AND GT ISZERO JUMPDEST PUSH2 0x2039 JUMPI PUSH1 0x0 DUP1 REVERT JUMPDEST PUSH2 0x1194 DUP2 DUP4 PUSH2 0x2048 DUP8 DUP8 PUSH2 0x46E9 JUMP JUMPDEST PUSH2 0x2052 SWAP2 SWAP1 PUSH2 0x46E9 JUMP JUMPDEST PUSH2 0x205C SWAP2 SWAP1 PUSH2 0x46E9 JUMP JUMPDEST PUSH2 0xFFFF AND GT ISZERO PUSH2 0x206B JUMPI PUSH1 0x0 DUP1 REVERT JUMPDEST PUSH1 0x12 DUP1 SLOAD PUSH4 0xFFFF0000 NOT AND PUSH3 0x10000 PUSH2 0xFFFF SWAP6 DUP7 AND MUL OR PUSH2 0xFFFF NOT AND SWAP5 DUP5 AND SWAP5 SWAP1 SWAP5 OR PUSH2 0xFFFF PUSH1 0x30 SHL NOT AND PUSH1 0x1 PUSH1 0x30 SHL SWAP2 DUP5 AND SWAP2 SWAP1 SWAP2 MUL OR PUSH2 0xFFFF PUSH1 0x20 SHL NOT AND PUSH1 0x1 PUSH1 0x20 SHL SWAP2 SWAP1 SWAP3 AND MUL OR SWAP1 SSTORE JUMP JUMPDEST PUSH2 0x20C2 PUSH2 0x2950 JUMP JUMPDEST PUSH1 0x0 SLOAD PUSH3 0x10000 SWAP1 DIV PUSH1 0x1 PUSH1 0x1 PUSH1 0xA0 SHL SUB SWAP1 DUP2 AND SWAP2 AND EQ PUSH2 0x20F5 JUMPI PUSH1 0x40 MLOAD PUSH3 0x461BCD PUSH1 0xE5 SHL DUP2 MSTORE PUSH1 0x4 ADD PUSH2 0x9D7 SWAP1 PUSH2 0x4167 JUMP JUMPDEST PUSH1 0x14 SLOAD PUSH2 0xFFFF SWAP1 DUP2 AND SWAP1 DUP6 AND GT DUP1 ISZERO SWAP1 PUSH2 0x211F JUMPI POP PUSH1 0x14 SLOAD PUSH2 0xFFFF PUSH3 0x10000 SWAP1 SWAP2 DIV DUP2 AND SWAP1 DUP5 AND GT ISZERO JUMPDEST DUP1 ISZERO PUSH2 0x213C JUMPI POP PUSH1 0x14 SLOAD PUSH2 0xFFFF PUSH1 0x1 PUSH1 0x20 SHL SWAP1 SWAP2 DIV DUP2 AND SWAP1 DUP4 AND GT ISZERO JUMPDEST DUP1 ISZERO PUSH2 0x2159 JUMPI POP PUSH1 0x14 SLOAD PUSH2 0xFFFF PUSH1 0x1 PUSH1 0x30 SHL SWAP1 SWAP2 DIV DUP2 AND SWAP1 DUP3 AND GT ISZERO JUMPDEST PUSH2 0x2162 JUMPI PUSH1 0x0 DUP1 REVERT JUMPDEST PUSH2 0x1194 DUP2 DUP4 PUSH2 0x2171 DUP8 DUP8 PUSH2 0x46E9 JUMP JUMPDEST PUSH2 0x217B SWAP2 SWAP1 PUSH2 0x46E9 JUMP JUMPDEST PUSH2 0x2185 SWAP2 SWAP1 PUSH2 0x46E9 JUMP JUMPDEST PUSH2 0xFFFF AND GT ISZERO PUSH2 0x2194 JUMPI PUSH1 0x0 DUP1 REVERT JUMPDEST PUSH1 0x10 DUP1 SLOAD PUSH4 0xFFFF0000 NOT AND PUSH3 0x10000 PUSH2 0xFFFF SWAP6 DUP7 AND MUL OR PUSH2 0xFFFF NOT AND SWAP5 DUP5 AND SWAP5 SWAP1 SWAP5 OR PUSH2 0xFFFF PUSH1 0x30 SHL NOT AND PUSH1 0x1 PUSH1 0x30 SHL SWAP2 DUP5 AND SWAP2 SWAP1 SWAP2 MUL OR PUSH2 0xFFFF PUSH1 0x20 SHL NOT AND PUSH1 0x1 PUSH1 0x20 SHL SWAP2 SWAP1 SWAP3 AND MUL OR SWAP1 SSTORE JUMP JUMPDEST PUSH2 0x21EB PUSH2 0x2950 JUMP JUMPDEST PUSH1 0x0 SLOAD PUSH3 0x10000 SWAP1 DIV PUSH1 0x1 PUSH1 0x1 PUSH1 0xA0 SHL SUB SWAP1 DUP2 AND SWAP2 AND EQ PUSH2 0x221E JUMPI PUSH1 0x40 MLOAD PUSH3 0x461BCD PUSH1 0xE5 SHL DUP2 MSTORE PUSH1 0x4 ADD PUSH2 0x9D7 SWAP1 PUSH2 0x4167 JUMP JUMPDEST PUSH1 0x14 SLOAD PUSH2 0xFFFF SWAP1 DUP2 AND SWAP1 DUP6 AND GT DUP1 ISZERO SWAP1 PUSH2 0x2248 JUMPI POP PUSH1 0x14 SLOAD PUSH2 0xFFFF PUSH3 0x10000 SWAP1 SWAP2 DIV DUP2 AND SWAP1 DUP5 AND GT ISZERO JUMPDEST DUP1 ISZERO PUSH2 0x2265 JUMPI POP PUSH1 0x14 SLOAD PUSH2 0xFFFF PUSH1 0x1 PUSH1 0x20 SHL SWAP1 SWAP2 DIV DUP2 AND SWAP1 DUP4 AND GT ISZERO JUMPDEST DUP1 ISZERO PUSH2 0x2282 JUMPI POP PUSH1 0x14 SLOAD PUSH2 0xFFFF PUSH1 0x1 PUSH1 0x30 SHL SWAP1 SWAP2 DIV DUP2 AND SWAP1 DUP3 AND GT ISZERO JUMPDEST PUSH2 0x228B JUMPI PUSH1 0x0 DUP1 REVERT JUMPDEST PUSH2 0x1194 DUP2 DUP4 PUSH2 0x229A DUP8 DUP8 PUSH2 0x46E9 JUMP JUMPDEST PUSH2 0x22A4 SWAP2 SWAP1 PUSH2 0x46E9 JUMP JUMPDEST PUSH2 0x22AE SWAP2 SWAP1 PUSH2 0x46E9 JUMP JUMPDEST PUSH2 0xFFFF AND GT ISZERO PUSH2 0x22BD JUMPI PUSH1 0x0 DUP1 REVERT JUMPDEST PUSH1 0x11 DUP1 SLOAD PUSH4 0xFFFF0000 NOT AND PUSH3 0x10000 PUSH2 0xFFFF SWAP6 DUP7 AND MUL OR PUSH2 0xFFFF NOT AND SWAP5 DUP5 AND SWAP5 SWAP1 SWAP5 OR PUSH2 0xFFFF PUSH1 0x30 SHL NOT AND PUSH1 0x1 PUSH1 0x30 SHL SWAP2 DUP5 AND SWAP2 SWAP1 SWAP2 MUL OR PUSH2 0xFFFF PUSH1 0x20 SHL NOT AND PUSH1 0x1 PUSH1 0x20 SHL SWAP2 SWAP1 SWAP3 AND MUL OR SWAP1 SSTORE JUMP JUMPDEST PUSH1 0x12 SLOAD PUSH2 0xFFFF DUP1 DUP3 AND SWAP2 PUSH3 0x10000 DUP2 DIV DUP3 AND SWAP2 PUSH1 0x1 PUSH1 0x20 SHL DUP3 DIV DUP2 AND SWAP2 PUSH1 0x1 PUSH1 0x30 SHL SWAP1 DIV AND DUP5 JUMP JUMPDEST PUSH1 0x11 SLOAD PUSH2 0xFFFF DUP1 DUP3 AND SWAP2 PUSH3 0x10000 DUP2 DIV DUP3 AND SWAP2 PUSH1 0x1 PUSH1 0x20 SHL DUP3 DIV DUP2 AND SWAP2 PUSH1 0x1 PUSH1 0x30 SHL SWAP1 DIV AND DUP5 JUMP JUMPDEST PUSH2 0x2364 PUSH2 0x2950 JUMP JUMPDEST PUSH1 0x0 SLOAD PUSH3 0x10000 SWAP1 DIV PUSH1 0x1 PUSH1 0x1 PUSH1 0xA0 SHL SUB SWAP1 DUP2 AND SWAP2 AND EQ PUSH2 0x2397 JUMPI PUSH1 0x40 MLOAD PUSH3 0x461BCD PUSH1 0xE5 SHL DUP2 MSTORE PUSH1 0x4 ADD PUSH2 0x9D7 SWAP1 PUSH2 0x4167 JUMP JUMPDEST PUSH1 0x1B DUP1 SLOAD PUSH1 0xFF PUSH1 0xA8 SHL NOT AND PUSH1 0x1 PUSH1 0xA8 SHL DUP4 ISZERO ISZERO MUL OR SWAP1 SSTORE PUSH1 0x40 MLOAD PUSH32 0x7B0A47D3B0234280B6C9213C5BBFF44C8B6001BEA7770B3950280F9141053257 SWAP1 PUSH2 0x23DE SWAP1 DUP4 SWAP1 PUSH2 0x4002 JUMP JUMPDEST PUSH1 0x40 MLOAD DUP1 SWAP2 SUB SWAP1 LOG1 POP JUMP JUMPDEST PUSH1 0x13 SLOAD PUSH2 0xFFFF DUP1 DUP3 AND SWAP2 PUSH3 0x10000 DUP2 DIV DUP3 AND SWAP2 PUSH1 0x1 PUSH1 0x20 SHL DUP3 DIV DUP2 AND SWAP2 PUSH1 0x1 PUSH1 0x30 SHL SWAP1 DIV AND DUP5 JUMP JUMPDEST PUSH1 0x1 PUSH1 0x1 PUSH1 0xA0 SHL SUB SWAP2 DUP3 AND PUSH1 0x0 SWAP1 DUP2 MSTORE PUSH1 0x5 PUSH1 0x20 SWAP1 DUP2 MSTORE PUSH1 0x40 DUP1 DUP4 KECCAK256 SWAP4 SWAP1 SWAP5 AND DUP3 MSTORE SWAP2 SWAP1 SWAP2 MSTORE KECCAK256 SLOAD SWAP1 JUMP JUMPDEST PUSH2 0x2444 PUSH2 0x2950 JUMP JUMPDEST PUSH1 0x0 SLOAD PUSH3 0x10000 SWAP1 DIV PUSH1 0x1 PUSH1 0x1 PUSH1 0xA0 SHL SUB SWAP1 DUP2 AND SWAP2 AND EQ PUSH2 0x2477 JUMPI PUSH1 0x40 MLOAD PUSH3 0x461BCD PUSH1 0xE5 SHL DUP2 MSTORE PUSH1 0x4 ADD PUSH2 0x9D7 SWAP1 PUSH2 0x4167 JUMP JUMPDEST PUSH1 0x0 DUP2 SWAP1 POP PUSH1 0x0 DUP2 PUSH1 0x1 PUSH1 0x1 PUSH1 0xA0 SHL SUB AND PUSH4 0xC45A0155 PUSH1 0x40 MLOAD DUP2 PUSH4 0xFFFFFFFF AND PUSH1 0xE0 SHL DUP2 MSTORE PUSH1 0x4 ADD PUSH1 0x20 PUSH1 0x40 MLOAD DUP1 DUP4 SUB DUP2 DUP7 DUP1 EXTCODESIZE ISZERO DUP1 ISZERO PUSH2 0x24B7 JUMPI PUSH1 0x0 DUP1 REVERT JUMPDEST POP GAS STATICCALL ISZERO DUP1 ISZERO PUSH2 0x24CB JUMPI RETURNDATASIZE PUSH1 0x0 DUP1 RETURNDATACOPY RETURNDATASIZE PUSH1 0x0 REVERT JUMPDEST POP POP POP POP PUSH1 0x40 MLOAD RETURNDATASIZE PUSH1 0x1F NOT PUSH1 0x1F DUP3 ADD AND DUP3 ADD DUP1 PUSH1 0x40 MSTORE POP DUP2 ADD SWAP1 PUSH2 0x24EF SWAP2 SWAP1 PUSH2 0x3C7E JUMP JUMPDEST PUSH1 0x1 PUSH1 0x1 PUSH1 0xA0 SHL SUB AND PUSH4 0xE6A43905 ADDRESS DUP5 PUSH1 0x1 PUSH1 0x1 PUSH1 0xA0 SHL SUB AND PUSH4 0xAD5C4648 PUSH1 0x40 MLOAD DUP2 PUSH4 0xFFFFFFFF AND PUSH1 0xE0 SHL DUP2 MSTORE PUSH1 0x4 ADD PUSH1 0x20 PUSH1 0x40 MLOAD DUP1 DUP4 SUB DUP2 DUP7 DUP1 EXTCODESIZE ISZERO DUP1 ISZERO PUSH2 0x2537 JUMPI PUSH1 0x0 DUP1 REVERT JUMPDEST POP GAS STATICCALL ISZERO DUP1 ISZERO PUSH2 0x254B JUMPI RETURNDATASIZE PUSH1 0x0 DUP1 RETURNDATACOPY RETURNDATASIZE PUSH1 0x0 REVERT JUMPDEST POP POP POP POP PUSH1 0x40 MLOAD RETURNDATASIZE PUSH1 0x1F NOT PUSH1 0x1F DUP3 ADD AND DUP3 ADD DUP1 PUSH1 0x40 MSTORE POP DUP2 ADD SWAP1 PUSH2 0x256F SWAP2 SWAP1 PUSH2 0x3C7E JUMP JUMPDEST PUSH1 0x40 MLOAD DUP4 PUSH4 0xFFFFFFFF AND PUSH1 0xE0 SHL DUP2 MSTORE PUSH1 0x4 ADD PUSH2 0x258C SWAP3 SWAP2 SWAP1 PUSH2 0x3F3D JUMP JUMPDEST PUSH1 0x20 PUSH1 0x40 MLOAD DUP1 DUP4 SUB DUP2 DUP7 DUP1 EXTCODESIZE ISZERO DUP1 ISZERO PUSH2 0x25A4 JUMPI PUSH1 0x0 DUP1 REVERT JUMPDEST POP GAS STATICCALL ISZERO DUP1 ISZERO PUSH2 0x25B8 JUMPI RETURNDATASIZE PUSH1 0x0 DUP1 RETURNDATACOPY RETURNDATASIZE PUSH1 0x0 REVERT JUMPDEST POP POP POP POP PUSH1 0x40 MLOAD RETURNDATASIZE PUSH1 0x1F NOT PUSH1 0x1F DUP3 ADD AND DUP3 ADD DUP1 PUSH1 0x40 MSTORE POP DUP2 ADD SWAP1 PUSH2 0x25DC SWAP2 SWAP1 PUSH2 0x3C7E JUMP JUMPDEST SWAP1 POP PUSH1 0x1 PUSH1 0x1 PUSH1 0xA0 SHL SUB DUP2 AND PUSH2 0x2771 JUMPI DUP2 PUSH1 0x1 PUSH1 0x1 PUSH1 0xA0 SHL SUB AND PUSH4 0xC45A0155 PUSH1 0x40 MLOAD DUP2 PUSH4 0xFFFFFFFF AND PUSH1 0xE0 SHL DUP2 MSTORE PUSH1 0x4 ADD PUSH1 0x20 PUSH1 0x40 MLOAD DUP1 DUP4 SUB DUP2 DUP7 DUP1 EXTCODESIZE ISZERO DUP1 ISZERO PUSH2 0x2625 JUMPI PUSH1 0x0 DUP1 REVERT JUMPDEST POP GAS STATICCALL ISZERO DUP1 ISZERO PUSH2 0x2639 JUMPI RETURNDATASIZE PUSH1 0x0 DUP1 RETURNDATACOPY RETURNDATASIZE PUSH1 0x0 REVERT JUMPDEST POP POP POP POP PUSH1 0x40 MLOAD RETURNDATASIZE PUSH1 0x1F NOT PUSH1 0x1F DUP3 ADD AND DUP3 ADD DUP1 PUSH1 0x40 MSTORE POP DUP2 ADD SWAP1 PUSH2 0x265D SWAP2 SWAP1 PUSH2 0x3C7E JUMP JUMPDEST PUSH1 0x1 PUSH1 0x1 PUSH1 0xA0 SHL SUB AND PUSH4 0xC9C65396 ADDRESS DUP5 PUSH1 0x1 PUSH1 0x1 PUSH1 0xA0 SHL SUB AND PUSH4 0xAD5C4648 PUSH1 0x40 MLOAD DUP2 PUSH4 0xFFFFFFFF AND PUSH1 0xE0 SHL DUP2 MSTORE PUSH1 0x4 ADD PUSH1 0x20 PUSH1 0x40 MLOAD DUP1 DUP4 SUB DUP2 DUP7 DUP1 EXTCODESIZE ISZERO DUP1 ISZERO PUSH2 0x26A5 JUMPI PUSH1 0x0 DUP1 REVERT JUMPDEST POP GAS STATICCALL ISZERO DUP1 ISZERO PUSH2 0x26B9 JUMPI RETURNDATASIZE PUSH1 0x0 DUP1 RETURNDATACOPY RETURNDATASIZE PUSH1 0x0 REVERT JUMPDEST POP POP POP POP PUSH1 0x40 MLOAD RETURNDATASIZE PUSH1 0x1F NOT PUSH1 0x1F DUP3 ADD AND DUP3 ADD DUP1 PUSH1 0x40 MSTORE POP DUP2 ADD SWAP1 PUSH2 0x26DD SWAP2 SWAP1 PUSH2 0x3C7E JUMP JUMPDEST PUSH1 0x40 MLOAD DUP4 PUSH4 0xFFFFFFFF AND PUSH1 0xE0 SHL DUP2 MSTORE PUSH1 0x4 ADD PUSH2 0x26FA SWAP3 SWAP2 SWAP1 PUSH2 0x3F3D JUMP JUMPDEST PUSH1 0x20 PUSH1 0x40 MLOAD DUP1 DUP4 SUB DUP2 PUSH1 0x0 DUP8 DUP1 EXTCODESIZE ISZERO DUP1 ISZERO PUSH2 0x2714 JUMPI PUSH1 0x0 DUP1 REVERT JUMPDEST POP GAS CALL ISZERO DUP1 ISZERO PUSH2 0x2728 JUMPI RETURNDATASIZE PUSH1 0x0 DUP1 RETURNDATACOPY RETURNDATASIZE PUSH1 0x0 REVERT JUMPDEST POP POP POP POP PUSH1 0x40 MLOAD RETURNDATASIZE PUSH1 0x1F NOT PUSH1 0x1F DUP3 ADD AND DUP3 ADD DUP1 PUSH1 0x40 MSTORE POP DUP2 ADD SWAP1 PUSH2 0x274C SWAP2 SWAP1 PUSH2 0x3C7E JUMP JUMPDEST PUSH1 0x1A DUP1 SLOAD PUSH1 0x1 PUSH1 0x1 PUSH1 0xA0 SHL SUB NOT AND PUSH1 0x1 PUSH1 0x1 PUSH1 0xA0 SHL SUB SWAP3 SWAP1 SWAP3 AND SWAP2 SWAP1 SWAP2 OR SWAP1 SSTORE PUSH2 0x278D JUMP JUMPDEST PUSH1 0x1A DUP1 SLOAD PUSH1 0x1 PUSH1 0x1 PUSH1 0xA0 SHL SUB NOT AND PUSH1 0x1 PUSH1 0x1 PUSH1 0xA0 SHL SUB DUP4 AND OR SWAP1 SSTORE JUMPDEST PUSH1 0x19 DUP1 SLOAD PUSH1 0x1 PUSH1 0x1 PUSH1 0xA0 SHL SUB NOT AND PUSH1 0x1 PUSH1 0x1 PUSH1 0xA0 SHL SUB DUP5 DUP2 AND SWAP2 SWAP1 SWAP2 OR SWAP2 DUP3 SWAP1 SSTORE PUSH2 0xDE0 SWAP2 ADDRESS SWAP2 AND PUSH1 0x0 NOT PUSH2 0x2954 JUMP JUMPDEST PUSH2 0x27C5 PUSH2 0x2950 JUMP JUMPDEST PUSH1 0x0 SLOAD PUSH3 0x10000 SWAP1 DIV PUSH1 0x1 PUSH1 0x1 PUSH1 0xA0 SHL SUB SWAP1 DUP2 AND SWAP2 AND EQ PUSH2 0x27F8 JUMPI PUSH1 0x40 MLOAD PUSH3 0x461BCD PUSH1 0xE5 SHL DUP2 MSTORE PUSH1 0x4 ADD PUSH2 0x9D7 SWAP1 PUSH2 0x4167 JUMP JUMPDEST PUSH1 0x1B DUP1 SLOAD PUSH1 0x1 PUSH1 0x1 PUSH1 0xA0 SHL SUB NOT AND PUSH1 0x1 PUSH1 0x1 PUSH1 0xA0 SHL SUB SWAP3 SWAP1 SWAP3 AND SWAP2 SWAP1 SWAP2 OR SWAP1 SSTORE JUMP JUMPDEST PUSH2 0x2822 PUSH2 0x2950 JUMP JUMPDEST PUSH1 0x0 SLOAD PUSH3 0x10000 SWAP1 DIV PUSH1 0x1 PUSH1 0x1 PUSH1 0xA0 SHL SUB SWAP1 DUP2 AND SWAP2 AND EQ PUSH2 0x2855 JUMPI PUSH1 0x40 MLOAD PUSH3 0x461BCD PUSH1 0xE5 SHL DUP2 MSTORE PUSH1 0x4 ADD PUSH2 0x9D7 SWAP1 PUSH2 0x4167 JUMP JUMPDEST PUSH1 0x22 SLOAD PUSH2 0x100 SWAP1 DIV PUSH1 0xFF AND ISZERO PUSH2 0x287D JUMPI PUSH1 0x40 MLOAD PUSH3 0x461BCD PUSH1 0xE5 SHL DUP2 MSTORE PUSH1 0x4 ADD PUSH2 0x9D7 SWAP1 PUSH2 0x4435 JUMP JUMPDEST PUSH2 0x2885 PUSH2 0x1E18 JUMP JUMPDEST PUSH1 0x1 PUSH1 0x1 PUSH1 0xA0 SHL SUB AND PUSH2 0x8FC SELFBALANCE SWAP1 DUP2 ISZERO MUL SWAP1 PUSH1 0x40 MLOAD PUSH1 0x0 PUSH1 0x40 MLOAD DUP1 DUP4 SUB DUP2 DUP6 DUP9 DUP9 CALL SWAP4 POP POP POP POP ISZERO DUP1 ISZERO PUSH2 0x28BD JUMPI RETURNDATASIZE PUSH1 0x0 DUP1 RETURNDATACOPY RETURNDATASIZE PUSH1 0x0 REVERT JUMPDEST POP JUMP JUMPDEST PUSH1 0x1F SLOAD DUP2 JUMP JUMPDEST PUSH2 0x28CE PUSH2 0x2950 JUMP JUMPDEST PUSH1 0x0 SLOAD PUSH3 0x10000 SWAP1 DIV PUSH1 0x1 PUSH1 0x1 PUSH1 0xA0 SHL SUB SWAP1 DUP2 AND SWAP2 AND EQ PUSH2 0x2901 JUMPI PUSH1 0x40 MLOAD PUSH3 0x461BCD PUSH1 0xE5 SHL DUP2 MSTORE PUSH1 0x4 ADD PUSH2 0x9D7 SWAP1 PUSH2 0x4167 JUMP JUMPDEST DUP3 DUP5 PUSH1 0x16 SLOAD PUSH2 0x2910 SWAP2 SWAP1 PUSH2 0x473B JUMP JUMPDEST PUSH2 0x291A SWAP2 SWAP1 PUSH2 0x4727 JUMP JUMPDEST PUSH1 0x20 SSTORE PUSH1 0x16 SLOAD DUP2 SWAP1 PUSH2 0x292D SWAP1 DUP5 SWAP1 PUSH2 0x473B JUMP JUMPDEST PUSH2 0x2937 SWAP2 SWAP1 PUSH2 0x4727 JUMP JUMPDEST PUSH1 0x21 SSTORE POP POP POP POP JUMP JUMPDEST PUSH1 0x1B SLOAD PUSH1 0x1 PUSH1 0xA8 SHL SWAP1 DIV PUSH1 0xFF AND DUP2 JUMP JUMPDEST CALLER SWAP1 JUMP JUMPDEST PUSH1 0x1 PUSH1 0x1 PUSH1 0xA0 SHL SUB DUP4 AND PUSH2 0x297A JUMPI PUSH1 0x40 MLOAD PUSH3 0x461BCD PUSH1 0xE5 SHL DUP2 MSTORE PUSH1 0x4 ADD PUSH2 0x9D7 SWAP1 PUSH2 0x446C JUMP JUMPDEST PUSH1 0x1 PUSH1 0x1 PUSH1 0xA0 SHL SUB DUP3 AND PUSH2 0x29A0 JUMPI PUSH1 0x40 MLOAD PUSH3 0x461BCD PUSH1 0xE5 SHL DUP2 MSTORE PUSH1 0x4 ADD PUSH2 0x9D7 SWAP1 PUSH2 0x446C JUMP JUMPDEST PUSH1 0x1 PUSH1 0x1 PUSH1 0xA0 SHL SUB DUP1 DUP5 AND PUSH1 0x0 DUP2 DUP2 MSTORE PUSH1 0x5 PUSH1 0x20 SWAP1 DUP2 MSTORE PUSH1 0x40 DUP1 DUP4 KECCAK256 SWAP5 DUP8 AND DUP1 DUP5 MSTORE SWAP5 SWAP1 SWAP2 MSTORE SWAP1 DUP2 SWAP1 KECCAK256 DUP5 SWAP1 SSTORE MLOAD PUSH32 0x8C5BE1E5EBEC7D5BD14F71427D1E84F3DD0314C0F7B2291E5B200AC8C7C3B925 SWAP1 PUSH2 0x29FB SWAP1 DUP6 SWAP1 PUSH2 0x464C JUMP JUMPDEST PUSH1 0x40 MLOAD DUP1 SWAP2 SUB SWAP1 LOG3 POP POP POP JUMP JUMPDEST PUSH1 0x0 PUSH1 0x1 PUSH1 0x1 PUSH1 0xA0 SHL SUB DUP5 AND PUSH2 0x2A30 JUMPI PUSH1 0x40 MLOAD PUSH3 0x461BCD PUSH1 0xE5 SHL DUP2 MSTORE PUSH1 0x4 ADD PUSH2 0x9D7 SWAP1 PUSH2 0x4519 JUMP JUMPDEST PUSH1 0x1 PUSH1 0x1 PUSH1 0xA0 SHL SUB DUP4 AND PUSH2 0x2A56 JUMPI PUSH1 0x40 MLOAD PUSH3 0x461BCD PUSH1 0xE5 SHL DUP2 MSTORE PUSH1 0x4 ADD PUSH2 0x9D7 SWAP1 PUSH2 0x4081 JUMP JUMPDEST PUSH1 0x0 DUP3 GT PUSH2 0x2A76 JUMPI PUSH1 0x40 MLOAD PUSH3 0x461BCD PUSH1 0xE5 SHL DUP2 MSTORE PUSH1 0x4 ADD PUSH2 0x9D7 SWAP1 PUSH2 0x44D0 JUMP JUMPDEST PUSH2 0x2A80 DUP5 DUP5 PUSH2 0x2E39 JUMP JUMPDEST ISZERO PUSH2 0x2B8D JUMPI PUSH1 0x22 SLOAD PUSH1 0xFF AND PUSH2 0x2AA7 JUMPI PUSH1 0x40 MLOAD PUSH3 0x461BCD PUSH1 0xE5 SHL DUP2 MSTORE PUSH1 0x4 ADD PUSH2 0x9D7 SWAP1 PUSH2 0x40C4 JUMP JUMPDEST PUSH1 0x1 PUSH1 0x1 PUSH1 0xA0 SHL SUB DUP5 AND PUSH1 0x0 SWAP1 DUP2 MSTORE PUSH1 0x3 PUSH1 0x20 MSTORE PUSH1 0x40 SWAP1 KECCAK256 SLOAD PUSH1 0xFF AND DUP1 PUSH2 0x2AE6 JUMPI POP PUSH1 0x1 PUSH1 0x1 PUSH1 0xA0 SHL SUB DUP4 AND PUSH1 0x0 SWAP1 DUP2 MSTORE PUSH1 0x3 PUSH1 0x20 MSTORE PUSH1 0x40 SWAP1 KECCAK256 SLOAD PUSH1 0xFF AND JUMPDEST ISZERO PUSH2 0x2B0D JUMPI PUSH1 0x1C SLOAD DUP3 GT ISZERO PUSH2 0x2B0D JUMPI PUSH1 0x40 MLOAD PUSH3 0x461BCD PUSH1 0xE5 SHL DUP2 MSTORE PUSH1 0x4 ADD PUSH2 0x9D7 SWAP1 PUSH2 0x436C JUMP JUMPDEST PUSH1 0x1 PUSH1 0x1 PUSH1 0xA0 SHL SUB DUP4 AND PUSH20 0x7A250D5630B4CF539739DF2C5DACB4C659F2488D EQ DUP1 ISZERO SWAP1 PUSH2 0x2B53 JUMPI POP PUSH1 0x1 PUSH1 0x1 PUSH1 0xA0 SHL SUB DUP4 AND PUSH1 0x0 SWAP1 DUP2 MSTORE PUSH1 0x3 PUSH1 0x20 MSTORE PUSH1 0x40 SWAP1 KECCAK256 SLOAD PUSH1 0xFF AND ISZERO JUMPDEST ISZERO PUSH2 0x2B8D JUMPI PUSH1 0x1E SLOAD DUP3 PUSH2 0x2B65 DUP6 PUSH2 0x1473 JUMP JUMPDEST PUSH2 0x2B6F SWAP2 SWAP1 PUSH2 0x470F JUMP JUMPDEST GT ISZERO PUSH2 0x2B8D JUMPI PUSH1 0x40 MLOAD PUSH3 0x461BCD PUSH1 0xE5 SHL DUP2 MSTORE PUSH1 0x4 ADD PUSH2 0x9D7 SWAP1 PUSH2 0x43EB JUMP JUMPDEST PUSH1 0x1 PUSH1 0x1 PUSH1 0xA0 SHL SUB DUP5 AND PUSH1 0x0 SWAP1 DUP2 MSTORE PUSH1 0x6 PUSH1 0x20 MSTORE PUSH1 0x40 SWAP1 KECCAK256 SLOAD PUSH1 0x1 SWAP1 PUSH1 0xFF AND DUP1 PUSH2 0x2BCF JUMPI POP PUSH1 0x1 PUSH1 0x1 PUSH1 0xA0 SHL SUB DUP5 AND PUSH1 0x0 SWAP1 DUP2 MSTORE PUSH1 0x6 PUSH1 0x20 MSTORE PUSH1 0x40 SWAP1 KECCAK256 SLOAD PUSH1 0xFF AND JUMPDEST ISZERO PUSH2 0x2BD8 JUMPI POP PUSH1 0x0 JUMPDEST PUSH1 0x1 PUSH1 0x1 PUSH1 0xA0 SHL SUB DUP5 AND PUSH1 0x0 SWAP1 DUP2 MSTORE PUSH1 0x3 PUSH1 0x20 MSTORE PUSH1 0x40 SWAP1 KECCAK256 SLOAD PUSH1 0xFF AND ISZERO PUSH2 0x2C50 JUMPI PUSH1 0x1B SLOAD PUSH1 0x1 PUSH1 0xA0 SHL SWAP1 DIV PUSH1 0xFF AND ISZERO DUP1 ISZERO PUSH2 0x2C1C JUMPI POP PUSH1 0x1B SLOAD PUSH1 0x1 PUSH1 0xA8 SHL SWAP1 DIV PUSH1 0xFF AND JUMPDEST ISZERO PUSH2 0x2C50 JUMPI PUSH1 0x0 PUSH2 0x2C2C ADDRESS PUSH2 0x1473 JUMP JUMPDEST SWAP1 POP PUSH1 0x20 SLOAD DUP2 LT PUSH2 0x2C4E JUMPI PUSH1 0x21 SLOAD DUP2 LT PUSH2 0x2C45 JUMPI POP PUSH1 0x21 SLOAD JUMPDEST PUSH2 0x2C4E DUP2 PUSH2 0x2F0E JUMP JUMPDEST POP JUMPDEST PUSH2 0x2C5C DUP6 DUP6 DUP6 DUP5 PUSH2 0x32B1 JUMP JUMPDEST SWAP6 SWAP5 POP POP POP POP POP JUMP JUMPDEST PUSH1 0x17 SLOAD PUSH1 0x16 SLOAD PUSH1 0x0 SWAP2 SWAP1 DUP3 JUMPDEST PUSH1 0x8 SLOAD DUP2 LT ISZERO PUSH2 0x2DF7 JUMPI DUP3 PUSH1 0x1 PUSH1 0x0 PUSH1 0x8 DUP5 DUP2 SLOAD DUP2 LT PUSH2 0x2CA1 JUMPI PUSH4 0x4E487B71 PUSH1 0xE0 SHL PUSH1 0x0 MSTORE PUSH1 0x32 PUSH1 0x4 MSTORE PUSH1 0x24 PUSH1 0x0 REVERT JUMPDEST PUSH1 0x0 SWAP2 DUP3 MSTORE PUSH1 0x20 DUP1 DUP4 KECCAK256 SWAP1 SWAP2 ADD SLOAD PUSH1 0x1 PUSH1 0x1 PUSH1 0xA0 SHL SUB AND DUP4 MSTORE DUP3 ADD SWAP3 SWAP1 SWAP3 MSTORE PUSH1 0x40 ADD SWAP1 KECCAK256 SLOAD GT DUP1 PUSH2 0x2D1A JUMPI POP DUP2 PUSH1 0x2 PUSH1 0x0 PUSH1 0x8 DUP5 DUP2 SLOAD DUP2 LT PUSH2 0x2CF3 JUMPI PUSH4 0x4E487B71 PUSH1 0xE0 SHL PUSH1 0x0 MSTORE PUSH1 0x32 PUSH1 0x4 MSTORE PUSH1 0x24 PUSH1 0x0 REVERT JUMPDEST PUSH1 0x0 SWAP2 DUP3 MSTORE PUSH1 0x20 DUP1 DUP4 KECCAK256 SWAP1 SWAP2 ADD SLOAD PUSH1 0x1 PUSH1 0x1 PUSH1 0xA0 SHL SUB AND DUP4 MSTORE DUP3 ADD SWAP3 SWAP1 SWAP3 MSTORE PUSH1 0x40 ADD SWAP1 KECCAK256 SLOAD GT JUMPDEST ISZERO PUSH2 0x2D39 JUMPI PUSH1 0x16 SLOAD PUSH1 0x17 SLOAD PUSH2 0x2D2F SWAP2 SWAP1 PUSH2 0x4727 JUMP JUMPDEST SWAP4 POP POP POP POP PUSH2 0x98A JUMP JUMPDEST PUSH1 0x1 PUSH1 0x0 PUSH1 0x8 DUP4 DUP2 SLOAD DUP2 LT PUSH2 0x2D5E JUMPI PUSH4 0x4E487B71 PUSH1 0xE0 SHL PUSH1 0x0 MSTORE PUSH1 0x32 PUSH1 0x4 MSTORE PUSH1 0x24 PUSH1 0x0 REVERT JUMPDEST PUSH1 0x0 SWAP2 DUP3 MSTORE PUSH1 0x20 DUP1 DUP4 KECCAK256 SWAP1 SWAP2 ADD SLOAD PUSH1 0x1 PUSH1 0x1 PUSH1 0xA0 SHL SUB AND DUP4 MSTORE DUP3 ADD SWAP3 SWAP1 SWAP3 MSTORE PUSH1 0x40 ADD SWAP1 KECCAK256 SLOAD PUSH2 0x2D8D SWAP1 DUP5 PUSH2 0x475A JUMP JUMPDEST SWAP3 POP PUSH1 0x2 PUSH1 0x0 PUSH1 0x8 DUP4 DUP2 SLOAD DUP2 LT PUSH2 0x2DB4 JUMPI PUSH4 0x4E487B71 PUSH1 0xE0 SHL PUSH1 0x0 MSTORE PUSH1 0x32 PUSH1 0x4 MSTORE PUSH1 0x24 PUSH1 0x0 REVERT JUMPDEST PUSH1 0x0 SWAP2 DUP3 MSTORE PUSH1 0x20 DUP1 DUP4 KECCAK256 SWAP1 SWAP2 ADD SLOAD PUSH1 0x1 PUSH1 0x1 PUSH1 0xA0 SHL SUB AND DUP4 MSTORE DUP3 ADD SWAP3 SWAP1 SWAP3 MSTORE PUSH1 0x40 ADD SWAP1 KECCAK256 SLOAD PUSH2 0x2DE3 SWAP1 DUP4 PUSH2 0x475A JUMP JUMPDEST SWAP2 POP DUP1 PUSH2 0x2DEF DUP2 PUSH2 0x47AC JUMP JUMPDEST SWAP2 POP POP PUSH2 0x2C71 JUMP JUMPDEST POP PUSH1 0x16 SLOAD PUSH1 0x17 SLOAD PUSH2 0x2E08 SWAP2 SWAP1 PUSH2 0x4727 JUMP JUMPDEST DUP3 LT ISZERO PUSH2 0x2E28 JUMPI PUSH1 0x16 SLOAD PUSH1 0x17 SLOAD PUSH2 0x2E1F SWAP2 SWAP1 PUSH2 0x4727 JUMP JUMPDEST SWAP3 POP POP POP PUSH2 0x98A JUMP JUMPDEST PUSH2 0x2E32 DUP2 DUP4 PUSH2 0x4727 JUMP JUMPDEST SWAP3 POP POP POP SWAP1 JUMP JUMPDEST PUSH1 0x0 PUSH2 0x2E43 PUSH2 0x1E18 JUMP JUMPDEST PUSH1 0x1 PUSH1 0x1 PUSH1 0xA0 SHL SUB AND DUP4 PUSH1 0x1 PUSH1 0x1 PUSH1 0xA0 SHL SUB AND EQ ISZERO DUP1 ISZERO PUSH2 0x2E7D JUMPI POP PUSH2 0x2E67 PUSH2 0x1E18 JUMP JUMPDEST PUSH1 0x1 PUSH1 0x1 PUSH1 0xA0 SHL SUB AND DUP3 PUSH1 0x1 PUSH1 0x1 PUSH1 0xA0 SHL SUB AND EQ ISZERO JUMPDEST DUP1 ISZERO PUSH2 0x2EA2 JUMPI POP PUSH1 0x1 PUSH1 0x1 PUSH1 0xA0 SHL SUB DUP3 AND PUSH1 0x0 SWAP1 DUP2 MSTORE PUSH1 0xB PUSH1 0x20 MSTORE PUSH1 0x40 SWAP1 KECCAK256 SLOAD PUSH1 0xFF AND ISZERO JUMPDEST DUP1 ISZERO PUSH2 0x2EC7 JUMPI POP PUSH1 0x1 PUSH1 0x1 PUSH1 0xA0 SHL SUB DUP4 AND PUSH1 0x0 SWAP1 DUP2 MSTORE PUSH1 0xB PUSH1 0x20 MSTORE PUSH1 0x40 SWAP1 KECCAK256 SLOAD PUSH1 0xFF AND ISZERO JUMPDEST DUP1 ISZERO PUSH2 0x2EDE JUMPI POP PUSH1 0x1 PUSH1 0x1 PUSH1 0xA0 SHL SUB DUP3 AND PUSH2 0xDEAD EQ ISZERO JUMPDEST DUP1 ISZERO PUSH2 0x2EF2 JUMPI POP PUSH1 0x1 PUSH1 0x1 PUSH1 0xA0 SHL SUB DUP3 AND ISZERO ISZERO JUMPDEST DUP1 ISZERO PUSH2 0x2F07 JUMPI POP PUSH1 0x1 PUSH1 0x1 PUSH1 0xA0 SHL SUB DUP4 AND ADDRESS EQ ISZERO JUMPDEST SWAP4 SWAP3 POP POP POP JUMP JUMPDEST PUSH1 0x1B DUP1 SLOAD PUSH1 0xFF PUSH1 0xA0 SHL NOT AND PUSH1 0x1 PUSH1 0xA0 SHL OR SWAP1 SSTORE PUSH1 0x13 SLOAD PUSH2 0xFFFF PUSH1 0x1 PUSH1 0x30 SHL SWAP1 SWAP2 DIV AND PUSH2 0x2F39 JUMPI PUSH2 0x32A1 JUMP JUMPDEST ADDRESS PUSH1 0x0 SWAP1 DUP2 MSTORE PUSH1 0x5 PUSH1 0x20 SWAP1 DUP2 MSTORE PUSH1 0x40 DUP1 DUP4 KECCAK256 PUSH1 0x19 SLOAD PUSH1 0x1 PUSH1 0x1 PUSH1 0xA0 SHL SUB AND DUP5 MSTORE SWAP1 SWAP2 MSTORE SWAP1 KECCAK256 SLOAD PUSH1 0x0 NOT EQ PUSH2 0x2F92 JUMPI ADDRESS PUSH1 0x0 SWAP1 DUP2 MSTORE PUSH1 0x5 PUSH1 0x20 SWAP1 DUP2 MSTORE PUSH1 0x40 DUP1 DUP4 KECCAK256 PUSH1 0x19 SLOAD PUSH1 0x1 PUSH1 0x1 PUSH1 0xA0 SHL SUB AND DUP5 MSTORE SWAP1 SWAP2 MSTORE SWAP1 KECCAK256 PUSH1 0x0 NOT SWAP1 SSTORE JUMPDEST PUSH1 0x13 SLOAD PUSH1 0x0 SWAP1 PUSH1 0x2 SWAP1 PUSH2 0xFFFF PUSH1 0x1 PUSH1 0x30 SHL DUP3 DIV DUP2 AND SWAP2 PUSH2 0x2FB3 SWAP2 AND DUP6 PUSH2 0x473B JUMP JUMPDEST PUSH2 0x2FBD SWAP2 SWAP1 PUSH2 0x4727 JUMP JUMPDEST PUSH2 0x2FC7 SWAP2 SWAP1 PUSH2 0x4727 JUMP JUMPDEST SWAP1 POP PUSH1 0x0 PUSH2 0x2FD5 DUP3 DUP5 PUSH2 0x475A JUMP JUMPDEST PUSH1 0x40 DUP1 MLOAD PUSH1 0x2 DUP1 DUP3 MSTORE PUSH1 0x60 DUP3 ADD DUP4 MSTORE SWAP3 SWAP4 POP PUSH1 0x0 SWAP3 SWAP1 SWAP2 PUSH1 0x20 DUP4 ADD SWAP1 DUP1 CALLDATASIZE DUP4 CALLDATACOPY ADD SWAP1 POP POP SWAP1 POP ADDRESS DUP2 PUSH1 0x0 DUP2 MLOAD DUP2 LT PUSH2 0x301D JUMPI PUSH4 0x4E487B71 PUSH1 0xE0 SHL PUSH1 0x0 MSTORE PUSH1 0x32 PUSH1 0x4 MSTORE PUSH1 0x24 PUSH1 0x0 REVERT JUMPDEST PUSH1 0x1 PUSH1 0x1 PUSH1 0xA0 SHL SUB SWAP3 DUP4 AND PUSH1 0x20 SWAP2 DUP3 MUL SWAP3 SWAP1 SWAP3 ADD DUP2 ADD SWAP2 SWAP1 SWAP2 MSTORE PUSH1 0x19 SLOAD PUSH1 0x40 DUP1 MLOAD PUSH4 0x15AB88C9 PUSH1 0xE3 SHL DUP2 MSTORE SWAP1 MLOAD SWAP2 SWAP1 SWAP4 AND SWAP3 PUSH4 0xAD5C4648 SWAP3 PUSH1 0x4 DUP1 DUP4 ADD SWAP4 SWAP2 SWAP3 DUP3 SWAP1 SUB ADD DUP2 DUP7 DUP1 EXTCODESIZE ISZERO DUP1 ISZERO PUSH2 0x3071 JUMPI PUSH1 0x0 DUP1 REVERT JUMPDEST POP GAS STATICCALL ISZERO DUP1 ISZERO PUSH2 0x3085 JUMPI RETURNDATASIZE PUSH1 0x0 DUP1 RETURNDATACOPY RETURNDATASIZE PUSH1 0x0 REVERT JUMPDEST POP POP POP POP PUSH1 0x40 MLOAD RETURNDATASIZE PUSH1 0x1F NOT PUSH1 0x1F DUP3 ADD AND DUP3 ADD DUP1 PUSH1 0x40 MSTORE POP DUP2 ADD SWAP1 PUSH2 0x30A9 SWAP2 SWAP1 PUSH2 0x3C7E JUMP JUMPDEST DUP2 PUSH1 0x1 DUP2 MLOAD DUP2 LT PUSH2 0x30CA JUMPI PUSH4 0x4E487B71 PUSH1 0xE0 SHL PUSH1 0x0 MSTORE PUSH1 0x32 PUSH1 0x4 MSTORE PUSH1 0x24 PUSH1 0x0 REVERT JUMPDEST PUSH1 0x1 PUSH1 0x1 PUSH1 0xA0 SHL SUB SWAP3 DUP4 AND PUSH1 0x20 SWAP2 DUP3 MUL SWAP3 SWAP1 SWAP3 ADD ADD MSTORE PUSH1 0x19 SLOAD PUSH1 0x40 MLOAD PUSH4 0x791AC947 PUSH1 0xE0 SHL DUP2 MSTORE SWAP2 AND SWAP1 PUSH4 0x791AC947 SWAP1 PUSH2 0x3110 SWAP1 DUP6 SWAP1 PUSH1 0x0 SWAP1 DUP7 SWAP1 ADDRESS SWAP1 TIMESTAMP SWAP1 PUSH1 0x4 ADD PUSH2 0x4655 JUMP JUMPDEST PUSH1 0x0 PUSH1 0x40 MLOAD DUP1 DUP4 SUB DUP2 PUSH1 0x0 DUP8 DUP1 EXTCODESIZE ISZERO DUP1 ISZERO PUSH2 0x312A JUMPI PUSH1 0x0 DUP1 REVERT JUMPDEST POP GAS CALL ISZERO DUP1 ISZERO PUSH2 0x313E JUMPI RETURNDATASIZE PUSH1 0x0 DUP1 RETURNDATACOPY RETURNDATASIZE PUSH1 0x0 REVERT JUMPDEST POP POP PUSH1 0x13 SLOAD PUSH1 0x0 SWAP3 POP PUSH1 0x2 SWAP2 POP PUSH2 0xFFFF PUSH1 0x1 PUSH1 0x30 SHL DUP3 DIV DUP2 AND SWAP2 PUSH2 0x3163 SWAP2 AND SELFBALANCE PUSH2 0x473B JUMP JUMPDEST PUSH2 0x316D SWAP2 SWAP1 PUSH2 0x4727 JUMP JUMPDEST PUSH2 0x3177 SWAP2 SWAP1 PUSH2 0x4727 JUMP JUMPDEST SWAP1 POP DUP4 ISZERO PUSH2 0x324F JUMPI PUSH1 0x19 SLOAD PUSH1 0x40 MLOAD PUSH4 0xF305D719 PUSH1 0xE0 SHL DUP2 MSTORE PUSH1 0x1 PUSH1 0x1 PUSH1 0xA0 SHL SUB SWAP1 SWAP2 AND SWAP1 PUSH4 0xF305D719 SWAP1 DUP4 SWAP1 PUSH2 0x31BE SWAP1 ADDRESS SWAP1 DUP10 SWAP1 PUSH1 0x0 SWAP1 DUP2 SWAP1 PUSH2 0xDEAD SWAP1 TIMESTAMP SWAP1 PUSH1 0x4 ADD PUSH2 0x3F96 JUMP JUMPDEST PUSH1 0x60 PUSH1 0x40 MLOAD DUP1 DUP4 SUB DUP2 DUP6 DUP9 DUP1 EXTCODESIZE ISZERO DUP1 ISZERO PUSH2 0x31D7 JUMPI PUSH1 0x0 DUP1 REVERT JUMPDEST POP GAS CALL ISZERO DUP1 ISZERO PUSH2 0x31EB JUMPI RETURNDATASIZE PUSH1 0x0 DUP1 RETURNDATACOPY RETURNDATASIZE PUSH1 0x0 REVERT JUMPDEST POP POP POP POP POP PUSH1 0x40 MLOAD RETURNDATASIZE PUSH1 0x1F NOT PUSH1 0x1F DUP3 ADD AND DUP3 ADD DUP1 PUSH1 0x40 MSTORE POP DUP2 ADD SWAP1 PUSH2 0x3210 SWAP2 SWAP1 PUSH2 0x3ECB JUMP JUMPDEST POP POP POP PUSH32 0x17BBFB9A6069321B6DED73BD96327C9E6B7212A5CD51FF219CD61370ACAFB561 DUP5 DUP3 DUP7 PUSH1 0x40 MLOAD PUSH2 0x3246 SWAP4 SWAP3 SWAP2 SWAP1 PUSH2 0x46C5 JUMP JUMPDEST PUSH1 0x40 MLOAD DUP1 SWAP2 SUB SWAP1 LOG1 JUMPDEST PUSH1 0x0 PUSH2 0x325B DUP6 DUP8 PUSH2 0x475A JUMP JUMPDEST GT ISZERO PUSH2 0x329C JUMPI PUSH1 0x1B SLOAD PUSH1 0x40 MLOAD PUSH1 0x1 PUSH1 0x1 PUSH1 0xA0 SHL SUB SWAP1 SWAP2 AND SWAP1 SELFBALANCE DUP1 ISZERO PUSH2 0x8FC MUL SWAP2 PUSH1 0x0 DUP2 DUP2 DUP2 DUP6 DUP9 DUP9 CALL SWAP4 POP POP POP POP ISZERO DUP1 ISZERO PUSH2 0x329A JUMPI RETURNDATASIZE PUSH1 0x0 DUP1 RETURNDATACOPY RETURNDATASIZE PUSH1 0x0 REVERT JUMPDEST POP JUMPDEST POP POP POP POP JUMPDEST POP PUSH1 0x1B DUP1 SLOAD PUSH1 0xFF PUSH1 0xA0 SHL NOT AND SWAP1 SSTORE JUMP JUMPDEST PUSH1 0x22 SLOAD PUSH1 0x0 SWAP1 PUSH2 0x100 SWAP1 DIV PUSH1 0xFF AND PUSH2 0x3307 JUMPI PUSH2 0x32CD DUP6 DUP6 PUSH2 0x3610 JUMP JUMPDEST PUSH1 0x22 SLOAD PUSH2 0x100 SWAP1 DIV PUSH1 0xFF AND ISZERO DUP1 ISZERO PUSH2 0x32EA JUMPI POP PUSH2 0x32EA DUP6 DUP6 PUSH2 0x2E39 JUMP JUMPDEST ISZERO PUSH2 0x3307 JUMPI PUSH1 0x40 MLOAD PUSH3 0x461BCD PUSH1 0xE5 SHL DUP2 MSTORE PUSH1 0x4 ADD PUSH2 0x9D7 SWAP1 PUSH2 0x429E JUMP JUMPDEST PUSH1 0x0 PUSH2 0x3315 DUP7 DUP7 DUP7 DUP7 PUSH2 0x375F JUMP JUMPDEST PUSH1 0x80 DUP2 ADD MLOAD PUSH1 0x1 PUSH1 0x1 PUSH1 0xA0 SHL SUB DUP9 AND PUSH1 0x0 SWAP1 DUP2 MSTORE PUSH1 0x1 PUSH1 0x20 MSTORE PUSH1 0x40 SWAP1 KECCAK256 SLOAD SWAP2 SWAP3 POP PUSH2 0x333F SWAP2 PUSH2 0x475A JUMP JUMPDEST PUSH1 0x1 PUSH1 0x1 PUSH1 0xA0 SHL SUB DUP1 DUP9 AND PUSH1 0x0 SWAP1 DUP2 MSTORE PUSH1 0x1 PUSH1 0x20 MSTORE PUSH1 0x40 DUP1 DUP3 KECCAK256 SWAP4 SWAP1 SWAP4 SSTORE PUSH1 0x60 DUP5 ADD MLOAD SWAP2 DUP9 AND DUP2 MSTORE SWAP2 SWAP1 SWAP2 KECCAK256 SLOAD PUSH2 0x3376 SWAP2 SWAP1 PUSH2 0x470F JUMP JUMPDEST PUSH1 0x1 PUSH1 0x1 PUSH1 0xA0 SHL SUB DUP1 DUP8 AND PUSH1 0x0 SWAP1 DUP2 MSTORE PUSH1 0x1 PUSH1 0x20 SWAP1 DUP2 MSTORE PUSH1 0x40 DUP1 DUP4 KECCAK256 SWAP5 SWAP1 SWAP5 SSTORE SWAP2 DUP10 AND DUP2 MSTORE PUSH1 0x7 SWAP1 SWAP2 MSTORE KECCAK256 SLOAD PUSH1 0xFF AND DUP1 ISZERO PUSH2 0x33CA JUMPI POP PUSH1 0x1 PUSH1 0x1 PUSH1 0xA0 SHL SUB DUP6 AND PUSH1 0x0 SWAP1 DUP2 MSTORE PUSH1 0x7 PUSH1 0x20 MSTORE PUSH1 0x40 SWAP1 KECCAK256 SLOAD PUSH1 0xFF AND ISZERO JUMPDEST ISZERO PUSH2 0x3411 JUMPI PUSH1 0x1 PUSH1 0x1 PUSH1 0xA0 SHL SUB DUP7 AND PUSH1 0x0 SWAP1 DUP2 MSTORE PUSH1 0x2 PUSH1 0x20 MSTORE PUSH1 0x40 SWAP1 KECCAK256 SLOAD PUSH2 0x33F3 SWAP1 DUP6 SWAP1 PUSH2 0x475A JUMP JUMPDEST PUSH1 0x1 PUSH1 0x1 PUSH1 0xA0 SHL SUB DUP8 AND PUSH1 0x0 SWAP1 DUP2 MSTORE PUSH1 0x2 PUSH1 0x20 MSTORE PUSH1 0x40 SWAP1 KECCAK256 SSTORE PUSH2 0x3551 JUMP JUMPDEST PUSH1 0x1 PUSH1 0x1 PUSH1 0xA0 SHL SUB DUP7 AND PUSH1 0x0 SWAP1 DUP2 MSTORE PUSH1 0x7 PUSH1 0x20 MSTORE PUSH1 0x40 SWAP1 KECCAK256 SLOAD PUSH1 0xFF AND ISZERO DUP1 ISZERO PUSH2 0x3452 JUMPI POP PUSH1 0x1 PUSH1 0x1 PUSH1 0xA0 SHL SUB DUP6 AND PUSH1 0x0 SWAP1 DUP2 MSTORE PUSH1 0x7 PUSH1 0x20 MSTORE PUSH1 0x40 SWAP1 KECCAK256 SLOAD PUSH1 0xFF AND JUMPDEST ISZERO PUSH2 0x349A JUMPI DUP1 MLOAD PUSH1 0x1 PUSH1 0x1 PUSH1 0xA0 SHL SUB DUP7 AND PUSH1 0x0 SWAP1 DUP2 MSTORE PUSH1 0x2 PUSH1 0x20 MSTORE PUSH1 0x40 SWAP1 KECCAK256 SLOAD PUSH2 0x347C SWAP2 SWAP1 PUSH2 0x470F JUMP JUMPDEST PUSH1 0x1 PUSH1 0x1 PUSH1 0xA0 SHL SUB DUP7 AND PUSH1 0x0 SWAP1 DUP2 MSTORE PUSH1 0x2 PUSH1 0x20 MSTORE PUSH1 0x40 SWAP1 KECCAK256 SSTORE PUSH2 0x3551 JUMP JUMPDEST PUSH1 0x1 PUSH1 0x1 PUSH1 0xA0 SHL SUB DUP7 AND PUSH1 0x0 SWAP1 DUP2 MSTORE PUSH1 0x7 PUSH1 0x20 MSTORE PUSH1 0x40 SWAP1 KECCAK256 SLOAD PUSH1 0xFF AND DUP1 ISZERO PUSH2 0x34DA JUMPI POP PUSH1 0x1 PUSH1 0x1 PUSH1 0xA0 SHL SUB DUP6 AND PUSH1 0x0 SWAP1 DUP2 MSTORE PUSH1 0x7 PUSH1 0x20 MSTORE PUSH1 0x40 SWAP1 KECCAK256 SLOAD PUSH1 0xFF AND JUMPDEST ISZERO PUSH2 0x3551 JUMPI PUSH1 0x1 PUSH1 0x1 PUSH1 0xA0 SHL SUB DUP7 AND PUSH1 0x0 SWAP1 DUP2 MSTORE PUSH1 0x2 PUSH1 0x20 MSTORE PUSH1 0x40 SWAP1 KECCAK256 SLOAD PUSH2 0x3503 SWAP1 DUP6 SWAP1 PUSH2 0x475A JUMP JUMPDEST PUSH1 0x1 PUSH1 0x1 PUSH1 0xA0 SHL SUB DUP1 DUP9 AND PUSH1 0x0 SWAP1 DUP2 MSTORE PUSH1 0x2 PUSH1 0x20 MSTORE PUSH1 0x40 DUP1 DUP3 KECCAK256 SWAP4 SWAP1 SWAP4 SSTORE DUP4 MLOAD SWAP2 DUP9 AND DUP2 MSTORE SWAP2 SWAP1 SWAP2 KECCAK256 SLOAD PUSH2 0x3537 SWAP2 SWAP1 PUSH2 0x470F JUMP JUMPDEST PUSH1 0x1 PUSH1 0x1 PUSH1 0xA0 SHL SUB DUP7 AND PUSH1 0x0 SWAP1 DUP2 MSTORE PUSH1 0x2 PUSH1 0x20 MSTORE PUSH1 0x40 SWAP1 KECCAK256 SSTORE JUMPDEST PUSH1 0x40 DUP2 ADD MLOAD ISZERO PUSH2 0x3569 JUMPI PUSH2 0x3569 DUP7 DUP3 PUSH1 0x40 ADD MLOAD PUSH2 0x3AB6 JUMP JUMPDEST PUSH1 0x0 DUP2 PUSH1 0xA0 ADD MLOAD GT DUP1 PUSH2 0x3580 JUMPI POP PUSH1 0x0 DUP2 PUSH1 0x20 ADD MLOAD GT JUMPDEST ISZERO PUSH2 0x35A1 JUMPI DUP1 PUSH1 0xA0 ADD MLOAD PUSH1 0x17 PUSH1 0x0 DUP3 DUP3 SLOAD PUSH2 0x359B SWAP2 SWAP1 PUSH2 0x475A JUMP JUMPDEST SWAP1 SWAP2 SSTORE POP POP JUMPDEST DUP1 PUSH1 0x20 ADD MLOAD PUSH1 0x18 PUSH1 0x0 DUP3 DUP3 SLOAD PUSH2 0x35B7 SWAP2 SWAP1 PUSH2 0x470F JUMP JUMPDEST SWAP1 SWAP2 SSTORE POP POP DUP1 MLOAD PUSH1 0x40 MLOAD PUSH1 0x1 PUSH1 0x1 PUSH1 0xA0 SHL SUB DUP1 DUP9 AND SWAP3 SWAP1 DUP10 AND SWAP2 PUSH32 0xDDF252AD1BE2C89B69C2B068FC378DAA952BA7F163C4A11628F55A4DF523B3EF SWAP2 PUSH2 0x35FC SWAP2 PUSH2 0x464C JUMP JUMPDEST PUSH1 0x40 MLOAD DUP1 SWAP2 SUB SWAP1 LOG3 POP PUSH1 0x1 SWAP6 SWAP5 POP POP POP POP POP JUMP JUMPDEST PUSH1 0x22 SLOAD PUSH2 0x100 SWAP1 DIV PUSH1 0xFF AND ISZERO PUSH2 0x3638 JUMPI PUSH1 0x40 MLOAD PUSH3 0x461BCD PUSH1 0xE5 SHL DUP2 MSTORE PUSH1 0x4 ADD PUSH2 0x9D7 SWAP1 PUSH2 0x4192 JUMP JUMPDEST PUSH2 0x3642 DUP3 DUP3 PUSH2 0x2E39 JUMP JUMPDEST ISZERO DUP1 ISZERO PUSH2 0x365C JUMPI POP PUSH1 0x1A SLOAD PUSH1 0x1 PUSH1 0x1 PUSH1 0xA0 SHL SUB DUP3 DUP2 AND SWAP2 AND EQ JUMPDEST ISZERO PUSH2 0xDE2 JUMPI PUSH1 0x1 PUSH1 0x1 PUSH1 0xA0 SHL SUB DUP3 AND ADDRESS EQ ISZERO PUSH2 0x36AD JUMPI PUSH1 0x1 PUSH1 0xB PUSH1 0x0 PUSH2 0x3680 PUSH2 0x1E18 JUMP JUMPDEST PUSH1 0x1 PUSH1 0x1 PUSH1 0xA0 SHL SUB AND DUP2 MSTORE PUSH1 0x20 DUP2 ADD SWAP2 SWAP1 SWAP2 MSTORE PUSH1 0x40 ADD PUSH1 0x0 KECCAK256 DUP1 SLOAD PUSH1 0xFF NOT AND SWAP2 ISZERO ISZERO SWAP2 SWAP1 SWAP2 OR SWAP1 SSTORE PUSH2 0x36D1 JUMP JUMPDEST PUSH1 0x1 PUSH1 0x1 PUSH1 0xA0 SHL SUB DUP3 AND PUSH1 0x0 SWAP1 DUP2 MSTORE PUSH1 0xB PUSH1 0x20 MSTORE PUSH1 0x40 SWAP1 KECCAK256 DUP1 SLOAD PUSH1 0xFF NOT AND PUSH1 0x1 OR SWAP1 SSTORE JUMPDEST PUSH1 0x22 DUP1 SLOAD PUSH2 0xFF00 NOT AND PUSH2 0x100 OR SWAP1 DUP2 SWAP1 SSTORE PUSH3 0x10000 SWAP1 DIV PUSH1 0x1 PUSH1 0x1 PUSH1 0xA0 SHL SUB AND PUSH2 0x370F JUMPI PUSH1 0x22 DUP1 SLOAD PUSH3 0x10000 PUSH1 0x1 PUSH1 0xB0 SHL SUB NOT AND ADDRESS PUSH3 0x10000 MUL OR SWAP1 SSTORE JUMPDEST PUSH1 0x1B DUP1 SLOAD PUSH1 0xFF PUSH1 0xA8 SHL NOT AND PUSH1 0x1 PUSH1 0xA8 SHL OR SWAP1 SSTORE PUSH1 0x40 MLOAD PUSH32 0x7B0A47D3B0234280B6C9213C5BBFF44C8B6001BEA7770B3950280F9141053257 SWAP1 PUSH2 0x3753 SWAP1 PUSH1 0x1 SWAP1 PUSH2 0x4002 JUMP JUMPDEST PUSH1 0x40 MLOAD DUP1 SWAP2 SUB SWAP1 LOG1 POP POP JUMP JUMPDEST PUSH2 0x3767 PUSH2 0x3C05 JUMP JUMPDEST PUSH2 0x376F PUSH2 0x3C05 JUMP JUMPDEST PUSH1 0x0 PUSH2 0x3779 PUSH2 0x2C65 JUMP JUMPDEST SWAP1 POP PUSH2 0x3785 DUP2 DUP7 PUSH2 0x473B JUMP JUMPDEST PUSH1 0x80 DUP4 ADD MSTORE PUSH2 0x3794 DUP8 DUP8 PUSH2 0x2E39 JUMP JUMPDEST ISZERO PUSH2 0x3835 JUMPI PUSH1 0x22 SLOAD PUSH1 0x40 MLOAD PUSH4 0xECD07A53 PUSH1 0xE0 SHL DUP2 MSTORE PUSH1 0x0 SWAP2 PUSH3 0x10000 SWAP1 DIV PUSH1 0x1 PUSH1 0x1 PUSH1 0xA0 SHL SUB AND SWAP1 PUSH4 0xECD07A53 SWAP1 PUSH2 0x37D4 SWAP1 DUP12 SWAP1 DUP12 SWAP1 DUP12 SWAP1 PUSH1 0x4 ADD PUSH2 0x3F57 JUMP JUMPDEST PUSH1 0x20 PUSH1 0x40 MLOAD DUP1 DUP4 SUB DUP2 PUSH1 0x0 DUP8 DUP1 EXTCODESIZE ISZERO DUP1 ISZERO PUSH2 0x37EE JUMPI PUSH1 0x0 DUP1 REVERT JUMPDEST POP GAS CALL SWAP3 POP POP POP DUP1 ISZERO PUSH2 0x381E JUMPI POP PUSH1 0x40 DUP1 MLOAD PUSH1 0x1F RETURNDATASIZE SWAP1 DUP2 ADD PUSH1 0x1F NOT AND DUP3 ADD SWAP1 SWAP3 MSTORE PUSH2 0x381B SWAP2 DUP2 ADD SWAP1 PUSH2 0x3D86 JUMP JUMPDEST PUSH1 0x1 JUMPDEST PUSH2 0x3827 JUMPI PUSH1 0x0 DUP1 REVERT JUMPDEST SWAP1 POP DUP1 PUSH2 0x3833 JUMPI PUSH1 0x0 DUP1 REVERT JUMPDEST POP JUMPDEST DUP4 ISZERO PUSH2 0x3A60 JUMPI PUSH1 0x1 PUSH1 0x1 PUSH1 0xA0 SHL SUB DUP7 AND PUSH1 0x0 SWAP1 DUP2 MSTORE PUSH1 0x3 PUSH1 0x20 MSTORE PUSH1 0x40 SWAP1 KECCAK256 SLOAD PUSH1 0xFF AND ISZERO PUSH2 0x38BD JUMPI PUSH1 0x11 SLOAD PUSH1 0xF DUP1 SLOAD PUSH2 0xFFFF DUP1 DUP5 AND PUSH2 0xFFFF NOT SWAP1 SWAP3 AND SWAP2 SWAP1 SWAP2 OR PUSH4 0xFFFF0000 NOT AND PUSH3 0x10000 DUP1 DUP6 DIV DUP4 AND MUL OR PUSH2 0xFFFF PUSH1 0x20 SHL NOT AND PUSH1 0x1 PUSH1 0x20 SHL DUP1 DUP6 DIV DUP4 AND MUL OR PUSH2 0xFFFF PUSH1 0x30 SHL NOT AND PUSH1 0x1 PUSH1 0x30 SHL SWAP4 DUP5 SWAP1 DIV SWAP2 SWAP1 SWAP2 AND SWAP1 SWAP3 MUL SWAP2 SWAP1 SWAP2 OR SWAP1 SSTORE PUSH2 0x399C JUMP JUMPDEST PUSH1 0x1 PUSH1 0x1 PUSH1 0xA0 SHL SUB DUP8 AND PUSH1 0x0 SWAP1 DUP2 MSTORE PUSH1 0x3 PUSH1 0x20 MSTORE PUSH1 0x40 SWAP1 KECCAK256 SLOAD PUSH1 0xFF AND ISZERO PUSH2 0x393F JUMPI PUSH1 0x10 SLOAD PUSH1 0xF DUP1 SLOAD PUSH2 0xFFFF DUP1 DUP5 AND PUSH2 0xFFFF NOT SWAP1 SWAP3 AND SWAP2 SWAP1 SWAP2 OR PUSH4 0xFFFF0000 NOT AND PUSH3 0x10000 DUP1 DUP6 DIV DUP4 AND MUL OR PUSH2 0xFFFF PUSH1 0x20 SHL NOT AND PUSH1 0x1 PUSH1 0x20 SHL DUP1 DUP6 DIV DUP4 AND MUL OR PUSH2 0xFFFF PUSH1 0x30 SHL NOT AND PUSH1 0x1 PUSH1 0x30 SHL SWAP4 DUP5 SWAP1 DIV SWAP2 SWAP1 SWAP2 AND SWAP1 SWAP3 MUL SWAP2 SWAP1 SWAP2 OR SWAP1 SSTORE PUSH2 0x399C JUMP JUMPDEST PUSH1 0x12 SLOAD PUSH1 0xF DUP1 SLOAD PUSH2 0xFFFF DUP1 DUP5 AND PUSH2 0xFFFF NOT SWAP1 SWAP3 AND SWAP2 SWAP1 SWAP2 OR PUSH2 0xFFFF PUSH1 0x30 SHL NOT AND PUSH1 0x1 PUSH1 0x30 SHL DUP1 DUP6 DIV DUP4 AND MUL OR PUSH4 0xFFFF0000 NOT AND PUSH3 0x10000 DUP1 DUP6 DIV DUP4 AND MUL OR PUSH2 0xFFFF PUSH1 0x20 SHL NOT AND PUSH1 0x1 PUSH1 0x20 SHL SWAP4 DUP5 SWAP1 DIV SWAP2 SWAP1 SWAP2 AND SWAP1 SWAP3 MUL SWAP2 SWAP1 SWAP2 OR SWAP1 SSTORE JUMPDEST PUSH1 0x14 SLOAD PUSH1 0xF SLOAD PUSH2 0xFFFF PUSH1 0x1 PUSH1 0x40 SHL SWAP1 SWAP3 DIV DUP3 AND SWAP2 PUSH2 0x39BB SWAP2 AND DUP8 PUSH2 0x473B JUMP JUMPDEST PUSH2 0x39C5 SWAP2 SWAP1 PUSH2 0x4727 JUMP JUMPDEST PUSH1 0x20 DUP4 ADD MSTORE PUSH1 0x14 SLOAD PUSH1 0xF SLOAD PUSH2 0xFFFF PUSH1 0x1 PUSH1 0x40 SHL SWAP1 SWAP3 DIV DUP3 AND SWAP2 PUSH1 0x1 PUSH1 0x30 SHL DUP3 DIV DUP2 AND SWAP2 PUSH2 0x3A02 SWAP2 PUSH1 0x1 PUSH1 0x20 SHL DUP3 DIV DUP2 AND SWAP2 PUSH3 0x10000 SWAP1 DIV AND PUSH2 0x46E9 JUMP JUMPDEST PUSH2 0x3A0C SWAP2 SWAP1 PUSH2 0x46E9 JUMP JUMPDEST PUSH2 0x3A1A SWAP1 PUSH2 0xFFFF AND DUP8 PUSH2 0x473B JUMP JUMPDEST PUSH2 0x3A24 SWAP2 SWAP1 PUSH2 0x4727 JUMP JUMPDEST PUSH1 0x40 DUP4 ADD DUP2 SWAP1 MSTORE PUSH1 0x20 DUP4 ADD MLOAD PUSH2 0x3A3A SWAP2 SWAP1 PUSH2 0x470F JUMP JUMPDEST PUSH2 0x3A44 SWAP1 DUP7 PUSH2 0x475A JUMP JUMPDEST DUP3 MSTORE PUSH1 0x20 DUP3 ADD MLOAD PUSH2 0x3A56 SWAP1 DUP3 SWAP1 PUSH2 0x473B JUMP JUMPDEST PUSH1 0xA0 DUP4 ADD MSTORE PUSH2 0x3A79 JUMP JUMPDEST PUSH1 0x0 PUSH1 0x20 DUP4 ADD DUP2 SWAP1 MSTORE PUSH1 0x40 DUP4 ADD DUP2 SWAP1 MSTORE DUP6 DUP4 MSTORE PUSH1 0xA0 DUP4 ADD MSTORE JUMPDEST DUP1 DUP3 PUSH1 0x40 ADD MLOAD PUSH2 0x3A89 SWAP2 SWAP1 PUSH2 0x473B JUMP JUMPDEST DUP3 PUSH1 0xA0 ADD MLOAD PUSH2 0x3A98 SWAP2 SWAP1 PUSH2 0x470F JUMP JUMPDEST DUP3 PUSH1 0x80 ADD MLOAD PUSH2 0x3AA7 SWAP2 SWAP1 PUSH2 0x475A JUMP JUMPDEST PUSH1 0x60 DUP4 ADD MSTORE POP SWAP6 SWAP5 POP POP POP POP POP JUMP JUMPDEST PUSH2 0x3ABE PUSH2 0x2C65 JUMP JUMPDEST PUSH2 0x3AC8 SWAP1 DUP3 PUSH2 0x473B JUMP JUMPDEST ADDRESS PUSH1 0x0 SWAP1 DUP2 MSTORE PUSH1 0x1 PUSH1 0x20 MSTORE PUSH1 0x40 SWAP1 KECCAK256 SLOAD PUSH2 0x3AE2 SWAP2 SWAP1 PUSH2 0x470F JUMP JUMPDEST ADDRESS PUSH1 0x0 SWAP1 DUP2 MSTORE PUSH1 0x1 PUSH1 0x20 SWAP1 DUP2 MSTORE PUSH1 0x40 DUP1 DUP4 KECCAK256 SWAP4 SWAP1 SWAP4 SSTORE PUSH1 0x7 SWAP1 MSTORE KECCAK256 SLOAD PUSH1 0xFF AND ISZERO PUSH2 0x3B32 JUMPI ADDRESS PUSH1 0x0 SWAP1 DUP2 MSTORE PUSH1 0x2 PUSH1 0x20 MSTORE PUSH1 0x40 SWAP1 KECCAK256 SLOAD PUSH2 0x3B21 SWAP1 DUP3 SWAP1 PUSH2 0x470F JUMP JUMPDEST ADDRESS PUSH1 0x0 SWAP1 DUP2 MSTORE PUSH1 0x2 PUSH1 0x20 MSTORE PUSH1 0x40 SWAP1 KECCAK256 SSTORE JUMPDEST ADDRESS PUSH1 0x1 PUSH1 0x1 PUSH1 0xA0 SHL SUB AND DUP3 PUSH1 0x1 PUSH1 0x1 PUSH1 0xA0 SHL SUB AND PUSH32 0xDDF252AD1BE2C89B69C2B068FC378DAA952BA7F163C4A11628F55A4DF523B3EF DUP4 PUSH1 0x40 MLOAD PUSH2 0x3B75 SWAP2 SWAP1 PUSH2 0x464C JUMP JUMPDEST PUSH1 0x40 MLOAD DUP1 SWAP2 SUB SWAP1 LOG3 POP POP JUMP JUMPDEST DUP3 DUP1 SLOAD PUSH2 0x3B8D SWAP1 PUSH2 0x4771 JUMP JUMPDEST SWAP1 PUSH1 0x0 MSTORE PUSH1 0x20 PUSH1 0x0 KECCAK256 SWAP1 PUSH1 0x1F ADD PUSH1 0x20 SWAP1 DIV DUP2 ADD SWAP3 DUP3 PUSH2 0x3BAF JUMPI PUSH1 0x0 DUP6 SSTORE PUSH2 0x3BF5 JUMP JUMPDEST DUP3 PUSH1 0x1F LT PUSH2 0x3BC8 JUMPI DUP1 MLOAD PUSH1 0xFF NOT AND DUP4 DUP1 ADD OR DUP6 SSTORE PUSH2 0x3BF5 JUMP JUMPDEST DUP3 DUP1 ADD PUSH1 0x1 ADD DUP6 SSTORE DUP3 ISZERO PUSH2 0x3BF5 JUMPI SWAP2 DUP3 ADD JUMPDEST DUP3 DUP2 GT ISZERO PUSH2 0x3BF5 JUMPI DUP3 MLOAD DUP3 SSTORE SWAP2 PUSH1 0x20 ADD SWAP2 SWAP1 PUSH1 0x1 ADD SWAP1 PUSH2 0x3BDA JUMP JUMPDEST POP PUSH2 0x3C01 SWAP3 SWAP2 POP PUSH2 0x3C3B JUMP JUMPDEST POP SWAP1 JUMP JUMPDEST PUSH1 0x40 MLOAD DUP1 PUSH1 0xC0 ADD PUSH1 0x40 MSTORE DUP1 PUSH1 0x0 DUP2 MSTORE PUSH1 0x20 ADD PUSH1 0x0 DUP2 MSTORE PUSH1 0x20 ADD PUSH1 0x0 DUP2 MSTORE PUSH1 0x20 ADD PUSH1 0x0 DUP2 MSTORE PUSH1 0x20 ADD PUSH1 0x0 DUP2 MSTORE PUSH1 0x20 ADD PUSH1 0x0 DUP2 MSTORE POP SWAP1 JUMP JUMPDEST JUMPDEST DUP1 DUP3 GT ISZERO PUSH2 0x3C01 JUMPI PUSH1 0x0 DUP2 SSTORE PUSH1 0x1 ADD PUSH2 0x3C3C JUMP JUMPDEST DUP1 CALLDATALOAD PUSH2 0xFFFF DUP2 AND DUP2 EQ PUSH2 0x1031 JUMPI PUSH1 0x0 DUP1 REVERT JUMPDEST PUSH1 0x0 PUSH1 0x20 DUP3 DUP5 SUB SLT ISZERO PUSH2 0x3C73 JUMPI DUP1 DUP2 REVERT JUMPDEST DUP2 CALLDATALOAD PUSH2 0x2F07 DUP2 PUSH2 0x4807 JUMP JUMPDEST PUSH1 0x0 PUSH1 0x20 DUP3 DUP5 SUB SLT ISZERO PUSH2 0x3C8F JUMPI DUP1 DUP2 REVERT JUMPDEST DUP2 MLOAD PUSH2 0x2F07 DUP2 PUSH2 0x4807 JUMP JUMPDEST PUSH1 0x0 DUP1 PUSH1 0x40 DUP4 DUP6 SUB SLT ISZERO PUSH2 0x3CAC JUMPI DUP1 DUP2 REVERT JUMPDEST DUP3 CALLDATALOAD PUSH2 0x3CB7 DUP2 PUSH2 0x4807 JUMP JUMPDEST SWAP2 POP PUSH1 0x20 DUP4 ADD CALLDATALOAD PUSH2 0x3CC7 DUP2 PUSH2 0x4807 JUMP JUMPDEST DUP1 SWAP2 POP POP SWAP3 POP SWAP3 SWAP1 POP JUMP JUMPDEST PUSH1 0x0 DUP1 PUSH1 0x0 PUSH1 0x60 DUP5 DUP7 SUB SLT ISZERO PUSH2 0x3CE6 JUMPI DUP1 DUP2 REVERT JUMPDEST DUP4 CALLDATALOAD PUSH2 0x3CF1 DUP2 PUSH2 0x4807 JUMP JUMPDEST SWAP3 POP PUSH1 0x20 DUP5 ADD CALLDATALOAD PUSH2 0x3D01 DUP2 PUSH2 0x4807 JUMP JUMPDEST SWAP3 SWAP6 SWAP3 SWAP5 POP POP POP PUSH1 0x40 SWAP2 SWAP1 SWAP2 ADD CALLDATALOAD SWAP1 JUMP JUMPDEST PUSH1 0x0 DUP1 PUSH1 0x40 DUP4 DUP6 SUB SLT ISZERO PUSH2 0x3D24 JUMPI DUP2 DUP3 REVERT JUMPDEST DUP3 CALLDATALOAD PUSH2 0x3D2F DUP2 PUSH2 0x4807 JUMP JUMPDEST SWAP2 POP PUSH1 0x20 DUP4 ADD CALLDATALOAD PUSH2 0x3CC7 DUP2 PUSH2 0x481C JUMP JUMPDEST PUSH1 0x0 DUP1 PUSH1 0x40 DUP4 DUP6 SUB SLT ISZERO PUSH2 0x3D51 JUMPI DUP2 DUP3 REVERT JUMPDEST DUP3 CALLDATALOAD PUSH2 0x3D5C DUP2 PUSH2 0x4807 JUMP JUMPDEST SWAP5 PUSH1 0x20 SWAP4 SWAP1 SWAP4 ADD CALLDATALOAD SWAP4 POP POP POP JUMP JUMPDEST PUSH1 0x0 PUSH1 0x20 DUP3 DUP5 SUB SLT ISZERO PUSH2 0x3D7B JUMPI DUP1 DUP2 REVERT JUMPDEST DUP2 CALLDATALOAD PUSH2 0x2F07 DUP2 PUSH2 0x481C JUMP JUMPDEST PUSH1 0x0 PUSH1 0x20 DUP3 DUP5 SUB SLT ISZERO PUSH2 0x3D97 JUMPI DUP1 DUP2 REVERT JUMPDEST DUP2 MLOAD PUSH2 0x2F07 DUP2 PUSH2 0x481C JUMP JUMPDEST PUSH1 0x0 DUP1 PUSH1 0x0 DUP1 PUSH1 0x80 DUP6 DUP8 SUB SLT ISZERO PUSH2 0x3DB7 JUMPI DUP1 DUP2 REVERT JUMPDEST DUP5 CALLDATALOAD PUSH2 0x3DC2 DUP2 PUSH2 0x481C JUMP JUMPDEST SWAP4 POP PUSH1 0x20 DUP6 ADD CALLDATALOAD PUSH2 0x3DD2 DUP2 PUSH2 0x481C JUMP JUMPDEST SWAP3 POP PUSH1 0x40 DUP6 ADD CALLDATALOAD PUSH2 0x3DE2 DUP2 PUSH2 0x481C JUMP JUMPDEST SWAP2 POP PUSH1 0x60 DUP6 ADD CALLDATALOAD PUSH2 0x3DF2 DUP2 PUSH2 0x481C JUMP JUMPDEST SWAP4 SWAP7 SWAP3 SWAP6 POP SWAP1 SWAP4 POP POP JUMP JUMPDEST PUSH1 0x0 DUP1 PUSH1 0x0 PUSH1 0x60 DUP5 DUP7 SUB SLT ISZERO PUSH2 0x3E11 JUMPI DUP3 DUP4 REVERT JUMPDEST PUSH2 0x3E1A DUP5 PUSH2 0x3C50 JUMP JUMPDEST SWAP3 POP PUSH2 0x3E28 PUSH1 0x20 DUP6 ADD PUSH2 0x3C50 JUMP JUMPDEST SWAP2 POP PUSH2 0x3E36 PUSH1 0x40 DUP6 ADD PUSH2 0x3C50 JUMP JUMPDEST SWAP1 POP SWAP3 POP SWAP3 POP SWAP3 JUMP JUMPDEST PUSH1 0x0 DUP1 PUSH1 0x0 DUP1 PUSH1 0x80 DUP6 DUP8 SUB SLT ISZERO PUSH2 0x3E54 JUMPI DUP4 DUP5 REVERT JUMPDEST PUSH2 0x3E5D DUP6 PUSH2 0x3C50 JUMP JUMPDEST SWAP4 POP PUSH2 0x3E6B PUSH1 0x20 DUP7 ADD PUSH2 0x3C50 JUMP JUMPDEST SWAP3 POP PUSH2 0x3E79 PUSH1 0x40 DUP7 ADD PUSH2 0x3C50 JUMP JUMPDEST SWAP2 POP PUSH2 0x3E87 PUSH1 0x60 DUP7 ADD PUSH2 0x3C50 JUMP JUMPDEST SWAP1 POP SWAP3 SWAP6 SWAP2 SWAP5 POP SWAP3 POP JUMP JUMPDEST PUSH1 0x0 PUSH1 0x20 DUP3 DUP5 SUB SLT ISZERO PUSH2 0x3EA3 JUMPI DUP1 DUP2 REVERT JUMPDEST POP CALLDATALOAD SWAP2 SWAP1 POP JUMP JUMPDEST PUSH1 0x0 DUP1 PUSH1 0x40 DUP4 DUP6 SUB SLT ISZERO PUSH2 0x3EBC JUMPI DUP2 DUP3 REVERT JUMPDEST POP POP DUP1 CALLDATALOAD SWAP3 PUSH1 0x20 SWAP1 SWAP2 ADD CALLDATALOAD SWAP2 POP JUMP JUMPDEST PUSH1 0x0 DUP1 PUSH1 0x0 PUSH1 0x60 DUP5 DUP7 SUB SLT ISZERO PUSH2 0x3EDF JUMPI DUP1 DUP2 REVERT JUMPDEST DUP4 MLOAD SWAP3 POP PUSH1 0x20 DUP5 ADD MLOAD SWAP2 POP PUSH1 0x40 DUP5 ADD MLOAD SWAP1 POP SWAP3 POP SWAP3 POP SWAP3 JUMP JUMPDEST PUSH1 0x0 DUP1 PUSH1 0x0 DUP1 PUSH1 0x80 DUP6 DUP8 SUB SLT ISZERO PUSH2 0x3F0D JUMPI DUP2 DUP3 REVERT JUMPDEST POP POP DUP3 CALLDATALOAD SWAP5 PUSH1 0x20 DUP5 ADD CALLDATALOAD SWAP5 POP PUSH1 0x40 DUP5 ADD CALLDATALOAD SWAP4 PUSH1 0x60 ADD CALLDATALOAD SWAP3 POP SWAP1 POP JUMP JUMPDEST PUSH1 0x1 PUSH1 0x1 PUSH1 0xA0 SHL SUB SWAP2 SWAP1 SWAP2 AND DUP2 MSTORE PUSH1 0x20 ADD SWAP1 JUMP JUMPDEST PUSH1 0x1 PUSH1 0x1 PUSH1 0xA0 SHL SUB SWAP3 DUP4 AND DUP2 MSTORE SWAP2 AND PUSH1 0x20 DUP3 ADD MSTORE PUSH1 0x40 ADD SWAP1 JUMP JUMPDEST PUSH1 0x1 PUSH1 0x1 PUSH1 0xA0 SHL SUB SWAP4 DUP5 AND DUP2 MSTORE SWAP2 SWAP1 SWAP3 AND PUSH1 0x20 DUP3 ADD MSTORE PUSH1 0x40 DUP2 ADD SWAP2 SWAP1 SWAP2 MSTORE PUSH1 0x60 ADD SWAP1 JUMP JUMPDEST PUSH1 0x1 PUSH1 0x1 PUSH1 0xA0 SHL SUB SWAP3 SWAP1 SWAP3 AND DUP3 MSTORE ISZERO ISZERO PUSH1 0x20 DUP3 ADD MSTORE PUSH1 0x40 ADD SWAP1 JUMP JUMPDEST PUSH1 0x1 PUSH1 0x1 PUSH1 0xA0 SHL SUB SWAP7 DUP8 AND DUP2 MSTORE PUSH1 0x20 DUP2 ADD SWAP6 SWAP1 SWAP6 MSTORE PUSH1 0x40 DUP6 ADD SWAP4 SWAP1 SWAP4 MSTORE PUSH1 0x60 DUP5 ADD SWAP2 SWAP1 SWAP2 MSTORE SWAP1 SWAP3 AND PUSH1 0x80 DUP3 ADD MSTORE PUSH1 0xA0 DUP2 ADD SWAP2 SWAP1 SWAP2 MSTORE PUSH1 0xC0 ADD SWAP1 JUMP JUMPDEST PUSH1 0x1 PUSH1 0x1 PUSH1 0xA0 SHL SUB SWAP4 SWAP1 SWAP4 AND DUP4 MSTORE PUSH4 0xFFFFFFFF SWAP2 SWAP1 SWAP2 AND PUSH1 0x20 DUP4 ADD MSTORE PUSH8 0xFFFFFFFFFFFFFFFF AND PUSH1 0x40 DUP3 ADD MSTORE PUSH1 0x60 ADD SWAP1 JUMP JUMPDEST SWAP1 ISZERO ISZERO DUP2 MSTORE PUSH1 0x20 ADD SWAP1 JUMP JUMPDEST SWAP4 ISZERO ISZERO DUP5 MSTORE SWAP2 ISZERO ISZERO PUSH1 0x20 DUP5 ADD MSTORE ISZERO ISZERO PUSH1 0x40 DUP4 ADD MSTORE ISZERO ISZERO PUSH1 0x60 DUP3 ADD MSTORE PUSH1 0x80 ADD SWAP1 JUMP JUMPDEST PUSH1 0x0 PUSH1 0x20 DUP1 DUP4 MSTORE DUP4 MLOAD DUP1 DUP3 DUP6 ADD MSTORE DUP3 JUMPDEST DUP2 DUP2 LT ISZERO PUSH2 0x405A JUMPI DUP6 DUP2 ADD DUP4 ADD MLOAD DUP6 DUP3 ADD PUSH1 0x40 ADD MSTORE DUP3 ADD PUSH2 0x403E JUMP JUMPDEST DUP2 DUP2 GT ISZERO PUSH2 0x406B JUMPI DUP4 PUSH1 0x40 DUP4 DUP8 ADD ADD MSTORE JUMPDEST POP PUSH1 0x1F ADD PUSH1 0x1F NOT AND SWAP3 SWAP1 SWAP3 ADD PUSH1 0x40 ADD SWAP4 SWAP3 POP POP POP JUMP JUMPDEST PUSH1 0x20 DUP1 DUP3 MSTORE PUSH1 0x23 SWAP1 DUP3 ADD MSTORE PUSH32 0x45524332303A207472616E7366657220746F20746865207A65726F2061646472 PUSH1 0x40 DUP3 ADD MSTORE PUSH3 0x657373 PUSH1 0xE8 SHL PUSH1 0x60 DUP3 ADD MSTORE PUSH1 0x80 ADD SWAP1 JUMP JUMPDEST PUSH1 0x20 DUP1 DUP3 MSTORE PUSH1 0x18 SWAP1 DUP3 ADD MSTORE PUSH32 0x54726164696E67206E6F742079657420656E61626C6564210000000000000000 PUSH1 0x40 DUP3 ADD MSTORE PUSH1 0x60 ADD SWAP1 JUMP JUMPDEST PUSH1 0x20 DUP1 DUP3 MSTORE PUSH1 0x8 SWAP1 DUP3 ADD MSTORE PUSH8 0x2A37B7903637BB97 PUSH1 0xC1 SHL PUSH1 0x40 DUP3 ADD MSTORE PUSH1 0x60 ADD SWAP1 JUMP JUMPDEST PUSH1 0x20 DUP1 DUP3 MSTORE PUSH1 0x2A SWAP1 DUP3 ADD MSTORE PUSH32 0x416D6F756E74206D757374206265206C657373207468616E20746F74616C2072 PUSH1 0x40 DUP3 ADD MSTORE PUSH10 0x65666C656374696F6E73 PUSH1 0xB0 SHL PUSH1 0x60 DUP3 ADD MSTORE PUSH1 0x80 ADD SWAP1 JUMP JUMPDEST PUSH1 0x20 DUP1 DUP3 MSTORE PUSH1 0x11 SWAP1 DUP3 ADD MSTORE PUSH17 0x21B0B63632B9101E979E9037BBB732B917 PUSH1 0x79 SHL PUSH1 0x40 DUP3 ADD MSTORE PUSH1 0x60 ADD SWAP1 JUMP JUMPDEST PUSH1 0x20 DUP1 DUP3 MSTORE PUSH1 0x23 SWAP1 DUP3 ADD MSTORE PUSH32 0x4C697175696469747920616C726561647920616464656420616E64206D61726B PUSH1 0x40 DUP3 ADD MSTORE PUSH3 0x32B217 PUSH1 0xE9 SHL PUSH1 0x60 DUP3 ADD MSTORE PUSH1 0x80 ADD SWAP1 JUMP JUMPDEST PUSH1 0x20 DUP1 DUP3 MSTORE DUP2 DUP2 ADD MSTORE PUSH32 0x43616E6E6F74207365742061206E657720706169722074686973207765656B21 PUSH1 0x40 DUP3 ADD MSTORE PUSH1 0x60 ADD SWAP1 JUMP JUMPDEST PUSH1 0x20 DUP1 DUP3 MSTORE PUSH1 0x1C SWAP1 DUP3 ADD MSTORE PUSH32 0x4163636F756E7420697320616C726561647920696E636C756465642E00000000 PUSH1 0x40 DUP3 ADD MSTORE PUSH1 0x60 ADD SWAP1 JUMP JUMPDEST PUSH1 0x20 DUP1 DUP3 MSTORE PUSH1 0x37 SWAP1 DUP3 ADD MSTORE PUSH32 0x4D6178205472616E73616374696F6E20616D74206D7573742062652061626F76 PUSH1 0x40 DUP3 ADD MSTORE PUSH32 0x6520302E3125206F6620746F74616C20737570706C792E000000000000000000 PUSH1 0x60 DUP3 ADD MSTORE PUSH1 0x80 ADD SWAP1 JUMP JUMPDEST PUSH1 0x20 DUP1 DUP3 MSTORE PUSH1 0x25 SWAP1 DUP3 ADD MSTORE PUSH32 0x4F6E6C79206F776E65722063616E207472616E73666572206174207468697320 PUSH1 0x40 DUP3 ADD MSTORE PUSH5 0x3A34B6B297 PUSH1 0xD9 SHL PUSH1 0x60 DUP3 ADD MSTORE PUSH1 0x80 ADD SWAP1 JUMP JUMPDEST PUSH1 0x20 DUP1 DUP3 MSTORE PUSH1 0x32 SWAP1 DUP3 ADD MSTORE PUSH32 0x4D61782057616C6C657420616D74206D7573742062652061626F766520302E31 PUSH1 0x40 DUP3 ADD MSTORE PUSH18 0x129037B3103A37BA30B61039BAB838363C97 PUSH1 0x71 SHL PUSH1 0x60 DUP3 ADD MSTORE PUSH1 0x80 ADD SWAP1 JUMP JUMPDEST PUSH1 0x20 DUP1 DUP3 MSTORE PUSH1 0x1C SWAP1 DUP3 ADD MSTORE PUSH32 0x4163636F756E7420697320616C7265616479206578636C756465642E00000000 PUSH1 0x40 DUP3 ADD MSTORE PUSH1 0x60 ADD SWAP1 JUMP JUMPDEST PUSH1 0x20 DUP1 DUP3 MSTORE PUSH1 0x28 SWAP1 DUP3 ADD MSTORE PUSH32 0x5472616E7366657220616D6F756E74206578636565647320746865206D617854 PUSH1 0x40 DUP3 ADD MSTORE PUSH8 0x3C20B6B7BAB73A17 PUSH1 0xC1 SHL PUSH1 0x60 DUP3 ADD MSTORE PUSH1 0x80 ADD SWAP1 JUMP JUMPDEST PUSH1 0x20 DUP1 DUP3 MSTORE PUSH1 0x18 SWAP1 DUP3 ADD MSTORE PUSH32 0x4C6971756964697479206D7573742062652061646465642E0000000000000000 PUSH1 0x40 DUP3 ADD MSTORE PUSH1 0x60 ADD SWAP1 JUMP JUMPDEST PUSH1 0x20 DUP1 DUP3 MSTORE PUSH1 0x2A SWAP1 DUP3 ADD MSTORE PUSH32 0x5472616E7366657220616D6F756E74206578636565647320746865206D617857 PUSH1 0x40 DUP3 ADD MSTORE PUSH10 0x30B63632BA29B4BD3297 PUSH1 0xB1 SHL PUSH1 0x60 DUP3 ADD MSTORE PUSH1 0x80 ADD SWAP1 JUMP JUMPDEST PUSH1 0x20 DUP1 DUP3 MSTORE PUSH1 0x1C SWAP1 DUP3 ADD MSTORE PUSH32 0x43616E6E6F742063616C6C206166746572206C69717569646974792E00000000 PUSH1 0x40 DUP3 ADD MSTORE PUSH1 0x60 ADD SWAP1 JUMP JUMPDEST PUSH1 0x20 DUP1 DUP3 MSTORE PUSH1 0x13 SWAP1 DUP3 ADD MSTORE PUSH19 0x45524332303A205A65726F2041646472657373 PUSH1 0x68 SHL PUSH1 0x40 DUP3 ADD MSTORE PUSH1 0x60 ADD SWAP1 JUMP JUMPDEST PUSH1 0x20 DUP1 DUP3 MSTORE PUSH1 0x1D SWAP1 DUP3 ADD MSTORE PUSH32 0x436F6E747261637420616C726561647920696E697469616C697A65642E000000 PUSH1 0x40 DUP3 ADD MSTORE PUSH1 0x60 ADD SWAP1 JUMP JUMPDEST PUSH1 0x20 DUP1 DUP3 MSTORE PUSH1 0x29 SWAP1 DUP3 ADD MSTORE PUSH32 0x5472616E7366657220616D6F756E74206D757374206265206772656174657220 PUSH1 0x40 DUP3 ADD MSTORE PUSH9 0x7468616E207A65726F PUSH1 0xB8 SHL PUSH1 0x60 DUP3 ADD MSTORE PUSH1 0x80 ADD SWAP1 JUMP JUMPDEST PUSH1 0x20 DUP1 DUP3 MSTORE PUSH1 0x25 SWAP1 DUP3 ADD MSTORE PUSH32 0x45524332303A207472616E736665722066726F6D20746865207A65726F206164 PUSH1 0x40 DUP3 ADD MSTORE PUSH5 0x6472657373 PUSH1 0xD8 SHL PUSH1 0x60 DUP3 ADD MSTORE PUSH1 0x80 ADD SWAP1 JUMP JUMPDEST PUSH1 0x20 DUP1 DUP3 MSTORE PUSH1 0x18 SWAP1 DUP3 ADD MSTORE PUSH32 0x4C697175696469747920697320616C726561647920696E2E0000000000000000 PUSH1 0x40 DUP3 ADD MSTORE PUSH1 0x60 ADD SWAP1 JUMP JUMPDEST PUSH1 0x20 DUP1 DUP3 MSTORE PUSH1 0x18 SWAP1 DUP3 ADD MSTORE PUSH32 0x54726164696E6720616C726561647920656E61626C6564210000000000000000 PUSH1 0x40 DUP3 ADD MSTORE PUSH1 0x60 ADD SWAP1 JUMP JUMPDEST PUSH1 0x20 DUP1 DUP3 MSTORE PUSH1 0x13 SWAP1 DUP3 ADD MSTORE PUSH19 0x4D7573742061646420757020746F2031303025 PUSH1 0x68 SHL PUSH1 0x40 DUP3 ADD MSTORE PUSH1 0x60 ADD SWAP1 JUMP JUMPDEST PUSH2 0xFFFF SWAP5 DUP6 AND DUP2 MSTORE SWAP3 DUP5 AND PUSH1 0x20 DUP5 ADD MSTORE SWAP1 DUP4 AND PUSH1 0x40 DUP4 ADD MSTORE SWAP1 SWAP2 AND PUSH1 0x60 DUP3 ADD MSTORE PUSH1 0x80 ADD SWAP1 JUMP JUMPDEST PUSH2 0xFFFF SWAP6 DUP7 AND DUP2 MSTORE SWAP4 DUP6 AND PUSH1 0x20 DUP6 ADD MSTORE SWAP2 DUP5 AND PUSH1 0x40 DUP5 ADD MSTORE DUP4 AND PUSH1 0x60 DUP4 ADD MSTORE SWAP1 SWAP2 AND PUSH1 0x80 DUP3 ADD MSTORE PUSH1 0xA0 ADD SWAP1 JUMP JUMPDEST SWAP1 DUP2 MSTORE PUSH1 0x20 ADD SWAP1 JUMP JUMPDEST PUSH1 0x0 PUSH1 0xA0 DUP3 ADD DUP8 DUP4 MSTORE PUSH1 0x20 DUP8 DUP2 DUP6 ADD MSTORE PUSH1 0xA0 PUSH1 0x40 DUP6 ADD MSTORE DUP2 DUP8 MLOAD DUP1 DUP5 MSTORE PUSH1 0xC0 DUP7 ADD SWAP2 POP DUP3 DUP10 ADD SWAP4 POP DUP5 JUMPDEST DUP2 DUP2 LT ISZERO PUSH2 0x46A4 JUMPI DUP5 MLOAD PUSH1 0x1 PUSH1 0x1 PUSH1 0xA0 SHL SUB AND DUP4 MSTORE SWAP4 DUP4 ADD SWAP4 SWAP2 DUP4 ADD SWAP2 PUSH1 0x1 ADD PUSH2 0x467F JUMP JUMPDEST POP POP PUSH1 0x1 PUSH1 0x1 PUSH1 0xA0 SHL SUB SWAP7 SWAP1 SWAP7 AND PUSH1 0x60 DUP6 ADD MSTORE POP POP POP PUSH1 0x80 ADD MSTORE SWAP4 SWAP3 POP POP POP JUMP JUMPDEST SWAP3 DUP4 MSTORE PUSH1 0x20 DUP4 ADD SWAP2 SWAP1 SWAP2 MSTORE PUSH1 0x40 DUP3 ADD MSTORE PUSH1 0x60 ADD SWAP1 JUMP JUMPDEST PUSH1 0xFF SWAP2 SWAP1 SWAP2 AND DUP2 MSTORE PUSH1 0x20 ADD SWAP1 JUMP JUMPDEST PUSH1 0x0 PUSH2 0xFFFF DUP1 DUP4 AND DUP2 DUP6 AND DUP1 DUP4 SUB DUP3 GT ISZERO PUSH2 0x4706 JUMPI PUSH2 0x4706 PUSH2 0x47DB JUMP JUMPDEST ADD SWAP5 SWAP4 POP POP POP POP JUMP JUMPDEST PUSH1 0x0 DUP3 NOT DUP3 GT ISZERO PUSH2 0x4722 JUMPI PUSH2 0x4722 PUSH2 0x47DB JUMP JUMPDEST POP ADD SWAP1 JUMP JUMPDEST PUSH1 0x0 DUP3 PUSH2 0x4736 JUMPI PUSH2 0x4736 PUSH2 0x47F1 JUMP JUMPDEST POP DIV SWAP1 JUMP JUMPDEST PUSH1 0x0 DUP2 PUSH1 0x0 NOT DIV DUP4 GT DUP3 ISZERO ISZERO AND ISZERO PUSH2 0x4755 JUMPI PUSH2 0x4755 PUSH2 0x47DB JUMP JUMPDEST POP MUL SWAP1 JUMP JUMPDEST PUSH1 0x0 DUP3 DUP3 LT ISZERO PUSH2 0x476C JUMPI PUSH2 0x476C PUSH2 0x47DB JUMP JUMPDEST POP SUB SWAP1 JUMP JUMPDEST PUSH1 0x2 DUP2 DIV PUSH1 0x1 DUP3 AND DUP1 PUSH2 0x4785 JUMPI PUSH1 0x7F DUP3 AND SWAP2 POP JUMPDEST PUSH1 0x20 DUP3 LT DUP2 EQ ISZERO PUSH2 0x47A6 JUMPI PUSH4 0x4E487B71 PUSH1 0xE0 SHL PUSH1 0x0 MSTORE PUSH1 0x22 PUSH1 0x4 MSTORE PUSH1 0x24 PUSH1 0x0 REVERT JUMPDEST POP SWAP2 SWAP1 POP JUMP JUMPDEST PUSH1 0x0 PUSH1 0x0 NOT DUP3 EQ ISZERO PUSH2 0x47C0 JUMPI PUSH2 0x47C0 PUSH2 0x47DB JUMP JUMPDEST POP PUSH1 0x1 ADD SWAP1 JUMP JUMPDEST PUSH1 0x0 DUP3 PUSH2 0x47D6 JUMPI PUSH2 0x47D6 PUSH2 0x47F1 JUMP JUMPDEST POP MOD SWAP1 JUMP JUMPDEST PUSH4 0x4E487B71 PUSH1 0xE0 SHL PUSH1 0x0 MSTORE PUSH1 0x11 PUSH1 0x4 MSTORE PUSH1 0x24 PUSH1 0x0 REVERT JUMPDEST PUSH4 0x4E487B71 PUSH1 0xE0 SHL PUSH1 0x0 MSTORE PUSH1 0x12 PUSH1 0x4 MSTORE PUSH1 0x24 PUSH1 0x0 REVERT JUMPDEST PUSH1 0x1 PUSH1 0x1 PUSH1 0xA0 SHL SUB DUP2 AND DUP2 EQ PUSH2 0x28BD JUMPI PUSH1 0x0 DUP1 REVERT JUMPDEST DUP1 ISZERO ISZERO DUP2 EQ PUSH2 0x28BD JUMPI PUSH1 0x0 DUP1 REVERT INVALID LOG2 PUSH5 0x6970667358 0x22 SLT KECCAK256 0xCE 0xB2 PUSH31 0x3FE3E99898B196AF74437FBE4274664F5BDA79B84D953EF39DCF98698F6473 PUSH16 0x6C634300080000330000000000000000 "
		},
		"gasEstimates": {
			"creation": {
				"codeDepositCost": "3705600",
				"executionCost": "infinite",
				"totalCost": "infinite"
			},
			"external": {
				"DEAD()": "299",
				"_buyTaxes()": "1245",
				"_hasLiqBeenAdded()": "1141",
				"_ratios()": "1354",
				"_sellTaxes()": "1310",
				"_transferTaxes()": "1288",
				"allowance(address,address)": "infinite",
				"approve(address,uint256)": "22712",
				"approveContractContingency()": "24243",
				"balanceOf(address)": "infinite",
				"contractSwapEnabled()": "1189",
				"decimals()": "1180",
				"decreaseAllowance(address,uint256)": "infinite",
				"dexRouter()": "1161",
				"enableTrading()": "infinite",
				"getOwner()": "1250",
				"increaseAllowance(address,uint256)": "infinite",
				"intializeContract()": "infinite",
				"isExcludedFromFees(address)": "1344",
				"isExcludedFromReward(address)": "1388",
				"lpPair()": "1182",
				"maxTxAmountUI()": "1117",
				"maxWalletSizeUI()": "1116",
				"name()": "infinite",
				"owner()": "1171",
				"removeSniper(address)": "infinite",
				"renounceOwnership()": "infinite",
				"setContractSwapEnabled(bool)": "23258",
				"setExcludedFromFees(address,bool)": "infinite",
				"setExcludedFromReward(address,bool)": "infinite",
				"setGasPriceLimit(uint256)": "infinite",
				"setInitializer(address)": "22970",
				"setLpPair(address,bool)": "infinite",
				"setMaxTxPercent(uint256,uint256)": "infinite",
				"setMaxWalletSize(uint256,uint256)": "infinite",
				"setNewRouter(address)": "infinite",
				"setProtectionSettings(bool,bool,bool,bool)": "infinite",
				"setRatios(uint16,uint16,uint16)": "infinite",
				"setSwapSettings(uint256,uint256,uint256,uint256)": "infinite",
				"setTaxesBuy(uint16,uint16,uint16,uint16)": "infinite",
				"setTaxesSell(uint16,uint16,uint16,uint16)": "infinite",
				"setTaxesTransfer(uint16,uint16,uint16,uint16)": "infinite",
				"setWallets(address)": "22166",
				"staticVals()": "1343",
				"sweepContingency()": "infinite",
				"symbol()": "infinite",
				"tokenFromReflection(uint256)": "infinite",
				"totalSupply()": "1097",
				"tradingEnabled()": "1174",
				"transfer(address,uint256)": "infinite",
				"transferFrom(address,address,uint256)": "infinite",
				"transferOwner(address)": "infinite"
			},
			"internal": {
				"_approve(address,address,uint256)": "infinite",
				"_checkLiquidityAdd(address,address)": "infinite",
				"_finalizeTransfer(address,address,uint256,bool)": "infinite",
				"_getRate()": "infinite",
				"_getValues(address,address,uint256,bool)": "infinite",
				"_hasLimits(address,address)": "infinite",
				"_takeLiquidity(address,uint256)": "infinite",
				"_transfer(address,address,uint256)": "infinite",
				"contractSwap(uint256)": "infinite"
			}
		},
		"methodIdentifiers": {
			"DEAD()": "03fd2a45",
			"_buyTaxes()": "7b45d431",
			"_hasLiqBeenAdded()": "50a8e016",
			"_ratios()": "cf847706",
			"_sellTaxes()": "c6831cd8",
			"_transferTaxes()": "c2fa418f",
			"allowance(address,address)": "dd62ed3e",
			"approve(address,uint256)": "095ea7b3",
			"approveContractContingency()": "8a63bd9b",
			"balanceOf(address)": "70a08231",
			"contractSwapEnabled()": "fdb78c0e",
			"decimals()": "313ce567",
			"decreaseAllowance(address,uint256)": "a457c2d7",
			"dexRouter()": "0758d924",
			"enableTrading()": "8a8c523c",
			"getOwner()": "893d20e8",
			"increaseAllowance(address,uint256)": "39509351",
			"intializeContract()": "7ed57c8b",
			"isExcludedFromFees(address)": "4fbee193",
			"isExcludedFromReward(address)": "88f82020",
			"lpPair()": "452ed4f1",
			"maxTxAmountUI()": "64038409",
			"maxWalletSizeUI()": "f6540ec7",
			"name()": "06fdde03",
			"owner()": "8da5cb5b",
			"removeSniper(address)": "33251a0b",
			"renounceOwnership()": "715018a6",
			"setContractSwapEnabled(bool)": "cab5ebea",
			"setExcludedFromFees(address,bool)": "590ffdce",
			"setExcludedFromReward(address,bool)": "13e46192",
			"setGasPriceLimit(uint256)": "09231602",
			"setInitializer(address)": "5c24b074",
			"setLpPair(address,bool)": "80c581d1",
			"setMaxTxPercent(uint256,uint256)": "3f3cf56c",
			"setMaxWalletSize(uint256,uint256)": "26003957",
			"setNewRouter(address)": "eafb5a3c",
			"setProtectionSettings(bool,bool,bool,bool)": "29dd8798",
			"setRatios(uint16,uint16,uint16)": "aa22b172",
			"setSwapSettings(uint256,uint256,uint256,uint256)": "fb78680d",
			"setTaxesBuy(uint16,uint16,uint16,uint16)": "bc77169d",
			"setTaxesSell(uint16,uint16,uint16,uint16)": "becdf13f",
			"setTaxesTransfer(uint16,uint16,uint16,uint16)": "aa545473",
			"setWallets(address)": "eb50e70e",
			"staticVals()": "1b6afa2d",
			"sweepContingency()": "ee5d9c2d",
			"symbol()": "95d89b41",
			"tokenFromReflection(uint256)": "2d838119",
			"totalSupply()": "18160ddd",
			"tradingEnabled()": "4ada218b",
			"transfer(address,uint256)": "a9059cbb",
			"transferFrom(address,address,uint256)": "23b872dd",
			"transferOwner(address)": "4fb2e45d"
		}
	},
	"abi": [
		{
			"inputs": [],
			"stateMutability": "payable",
			"type": "constructor"
		},
		{
			"anonymous": false,
			"inputs": [
				{
					"indexed": true,
					"internalType": "address",
					"name": "owner",
					"type": "address"
				},
				{
					"indexed": true,
					"internalType": "address",
					"name": "spender",
					"type": "address"
				},
				{
					"indexed": false,
					"internalType": "uint256",
					"name": "value",
					"type": "uint256"
				}
			],
			"name": "Approval",
			"type": "event"
		},
		{
			"anonymous": false,
			"inputs": [
				{
					"indexed": false,
					"internalType": "bool",
					"name": "enabled",
					"type": "bool"
				}
			],
			"name": "ContractSwapEnabledUpdated",
			"type": "event"
		},
		{
			"anonymous": false,
			"inputs": [
				{
					"indexed": false,
					"internalType": "uint256",
					"name": "minTokensBeforeSwap",
					"type": "uint256"
				}
			],
			"name": "MinTokensBeforeSwapUpdated",
			"type": "event"
		},
		{
			"anonymous": false,
			"inputs": [
				{
					"indexed": true,
					"internalType": "address",
					"name": "previousOwner",
					"type": "address"
				},
				{
					"indexed": true,
					"internalType": "address",
					"name": "newOwner",
					"type": "address"
				}
			],
			"name": "OwnershipTransferred",
			"type": "event"
		},
		{
			"anonymous": false,
			"inputs": [
				{
					"indexed": false,
					"internalType": "address",
					"name": "sniperAddress",
					"type": "address"
				}
			],
			"name": "SniperCaught",
			"type": "event"
		},
		{
			"anonymous": false,
			"inputs": [
				{
					"indexed": false,
					"internalType": "uint256",
					"name": "tokensSwapped",
					"type": "uint256"
				},
				{
					"indexed": false,
					"internalType": "uint256",
					"name": "ethReceived",
					"type": "uint256"
				},
				{
					"indexed": false,
					"internalType": "uint256",
					"name": "tokensIntoLiqudity",
					"type": "uint256"
				}
			],
			"name": "SwapAndLiquify",
			"type": "event"
		},
		{
			"anonymous": false,
			"inputs": [
				{
					"indexed": true,
					"internalType": "address",
					"name": "from",
					"type": "address"
				},
				{
					"indexed": true,
					"internalType": "address",
					"name": "to",
					"type": "address"
				},
				{
					"indexed": false,
					"internalType": "uint256",
					"name": "value",
					"type": "uint256"
				}
			],
			"name": "Transfer",
			"type": "event"
		},
		{
			"inputs": [],
			"name": "DEAD",
			"outputs": [
				{
					"internalType": "address",
					"name": "",
					"type": "address"
				}
			],
			"stateMutability": "view",
			"type": "function"
		},
		{
			"inputs": [],
			"name": "_buyTaxes",
			"outputs": [
				{
					"internalType": "uint16",
					"name": "reflectFee",
					"type": "uint16"
				},
				{
					"internalType": "uint16",
					"name": "liquidityFee",
					"type": "uint16"
				},
				{
					"internalType": "uint16",
					"name": "marketingFee",
					"type": "uint16"
				},
				{
					"internalType": "uint16",
					"name": "burnFee",
					"type": "uint16"
				}
			],
			"stateMutability": "view",
			"type": "function"
		},
		{
			"inputs": [],
			"name": "_hasLiqBeenAdded",
			"outputs": [
				{
					"internalType": "bool",
					"name": "",
					"type": "bool"
				}
			],
			"stateMutability": "view",
			"type": "function"
		},
		{
			"inputs": [],
			"name": "_ratios",
			"outputs": [
				{
					"internalType": "uint16",
					"name": "liquidityRatio",
					"type": "uint16"
				},
				{
					"internalType": "uint16",
					"name": "marketingRatio",
					"type": "uint16"
				},
				{
					"internalType": "uint16",
					"name": "burnRatio",
					"type": "uint16"
				},
				{
					"internalType": "uint16",
					"name": "totalRatio",
					"type": "uint16"
				}
			],
			"stateMutability": "view",
			"type": "function"
		},
		{
			"inputs": [],
			"name": "_sellTaxes",
			"outputs": [
				{
					"internalType": "uint16",
					"name": "reflectFee",
					"type": "uint16"
				},
				{
					"internalType": "uint16",
					"name": "liquidityFee",
					"type": "uint16"
				},
				{
					"internalType": "uint16",
					"name": "marketingFee",
					"type": "uint16"
				},
				{
					"internalType": "uint16",
					"name": "burnFee",
					"type": "uint16"
				}
			],
			"stateMutability": "view",
			"type": "function"
		},
		{
			"inputs": [],
			"name": "_transferTaxes",
			"outputs": [
				{
					"internalType": "uint16",
					"name": "reflectFee",
					"type": "uint16"
				},
				{
					"internalType": "uint16",
					"name": "liquidityFee",
					"type": "uint16"
				},
				{
					"internalType": "uint16",
					"name": "marketingFee",
					"type": "uint16"
				},
				{
					"internalType": "uint16",
					"name": "burnFee",
					"type": "uint16"
				}
			],
			"stateMutability": "view",
			"type": "function"
		},
		{
			"inputs": [
				{
					"internalType": "address",
					"name": "holder",
					"type": "address"
				},
				{
					"internalType": "address",
					"name": "spender",
					"type": "address"
				}
			],
			"name": "allowance",
			"outputs": [
				{
					"internalType": "uint256",
					"name": "",
					"type": "uint256"
				}
			],
			"stateMutability": "view",
			"type": "function"
		},
		{
			"inputs": [
				{
					"internalType": "address",
					"name": "spender",
					"type": "address"
				},
				{
					"internalType": "uint256",
					"name": "amount",
					"type": "uint256"
				}
			],
			"name": "approve",
			"outputs": [
				{
					"internalType": "bool",
					"name": "",
					"type": "bool"
				}
			],
			"stateMutability": "nonpayable",
			"type": "function"
		},
		{
			"inputs": [],
			"name": "approveContractContingency",
			"outputs": [
				{
					"internalType": "bool",
					"name": "",
					"type": "bool"
				}
			],
			"stateMutability": "nonpayable",
			"type": "function"
		},
		{
			"inputs": [
				{
					"internalType": "address",
					"name": "account",
					"type": "address"
				}
			],
			"name": "balanceOf",
			"outputs": [
				{
					"internalType": "uint256",
					"name": "",
					"type": "uint256"
				}
			],
			"stateMutability": "view",
			"type": "function"
		},
		{
			"inputs": [],
			"name": "contractSwapEnabled",
			"outputs": [
				{
					"internalType": "bool",
					"name": "",
					"type": "bool"
				}
			],
			"stateMutability": "view",
			"type": "function"
		},
		{
			"inputs": [],
			"name": "decimals",
			"outputs": [
				{
					"internalType": "uint8",
					"name": "",
					"type": "uint8"
				}
			],
			"stateMutability": "view",
			"type": "function"
		},
		{
			"inputs": [
				{
					"internalType": "address",
					"name": "spender",
					"type": "address"
				},
				{
					"internalType": "uint256",
					"name": "subtractedValue",
					"type": "uint256"
				}
			],
			"name": "decreaseAllowance",
			"outputs": [
				{
					"internalType": "bool",
					"name": "",
					"type": "bool"
				}
			],
			"stateMutability": "nonpayable",
			"type": "function"
		},
		{
			"inputs": [],
			"name": "dexRouter",
			"outputs": [
				{
					"internalType": "contract IUniswapV2Router02",
					"name": "",
					"type": "address"
				}
			],
			"stateMutability": "view",
			"type": "function"
		},
		{
			"inputs": [],
			"name": "enableTrading",
			"outputs": [],
			"stateMutability": "nonpayable",
			"type": "function"
		},
		{
			"inputs": [],
			"name": "getOwner",
			"outputs": [
				{
					"internalType": "address",
					"name": "",
					"type": "address"
				}
			],
			"stateMutability": "view",
			"type": "function"
		},
		{
			"inputs": [
				{
					"internalType": "address",
					"name": "spender",
					"type": "address"
				},
				{
					"internalType": "uint256",
					"name": "addedValue",
					"type": "uint256"
				}
			],
			"name": "increaseAllowance",
			"outputs": [
				{
					"internalType": "bool",
					"name": "",
					"type": "bool"
				}
			],
			"stateMutability": "nonpayable",
			"type": "function"
		},
		{
			"inputs": [],
			"name": "intializeContract",
			"outputs": [],
			"stateMutability": "nonpayable",
			"type": "function"
		},
		{
			"inputs": [
				{
					"internalType": "address",
					"name": "account",
					"type": "address"
				}
			],
			"name": "isExcludedFromFees",
			"outputs": [
				{
					"internalType": "bool",
					"name": "",
					"type": "bool"
				}
			],
			"stateMutability": "view",
			"type": "function"
		},
		{
			"inputs": [
				{
					"internalType": "address",
					"name": "account",
					"type": "address"
				}
			],
			"name": "isExcludedFromReward",
			"outputs": [
				{
					"internalType": "bool",
					"name": "",
					"type": "bool"
				}
			],
			"stateMutability": "view",
			"type": "function"
		},
		{
			"inputs": [],
			"name": "lpPair",
			"outputs": [
				{
					"internalType": "address",
					"name": "",
					"type": "address"
				}
			],
			"stateMutability": "view",
			"type": "function"
		},
		{
			"inputs": [],
			"name": "maxTxAmountUI",
			"outputs": [
				{
					"internalType": "uint256",
					"name": "",
					"type": "uint256"
				}
			],
			"stateMutability": "view",
			"type": "function"
		},
		{
			"inputs": [],
			"name": "maxWalletSizeUI",
			"outputs": [
				{
					"internalType": "uint256",
					"name": "",
					"type": "uint256"
				}
			],
			"stateMutability": "view",
			"type": "function"
		},
		{
			"inputs": [],
			"name": "name",
			"outputs": [
				{
					"internalType": "string",
					"name": "",
					"type": "string"
				}
			],
			"stateMutability": "view",
			"type": "function"
		},
		{
			"inputs": [],
			"name": "owner",
			"outputs": [
				{
					"internalType": "address",
					"name": "",
					"type": "address"
				}
			],
			"stateMutability": "view",
			"type": "function"
		},
		{
			"inputs": [
				{
					"internalType": "address",
					"name": "account",
					"type": "address"
				}
			],
			"name": "removeSniper",
			"outputs": [],
			"stateMutability": "nonpayable",
			"type": "function"
		},
		{
			"inputs": [],
			"name": "renounceOwnership",
			"outputs": [],
			"stateMutability": "nonpayable",
			"type": "function"
		},
		{
			"inputs": [
				{
					"internalType": "bool",
					"name": "_enabled",
					"type": "bool"
				}
			],
			"name": "setContractSwapEnabled",
			"outputs": [],
			"stateMutability": "nonpayable",
			"type": "function"
		},
		{
			"inputs": [
				{
					"internalType": "address",
					"name": "account",
					"type": "address"
				},
				{
					"internalType": "bool",
					"name": "enabled",
					"type": "bool"
				}
			],
			"name": "setExcludedFromFees",
			"outputs": [],
			"stateMutability": "nonpayable",
			"type": "function"
		},
		{
			"inputs": [
				{
					"internalType": "address",
					"name": "account",
					"type": "address"
				},
				{
					"internalType": "bool",
					"name": "enabled",
					"type": "bool"
				}
			],
			"name": "setExcludedFromReward",
			"outputs": [],
			"stateMutability": "nonpayable",
			"type": "function"
		},
		{
			"inputs": [
				{
					"internalType": "uint256",
					"name": "gas",
					"type": "uint256"
				}
			],
			"name": "setGasPriceLimit",
			"outputs": [],
			"stateMutability": "nonpayable",
			"type": "function"
		},
		{
			"inputs": [
				{
					"internalType": "address",
					"name": "initializer",
					"type": "address"
				}
			],
			"name": "setInitializer",
			"outputs": [],
			"stateMutability": "nonpayable",
			"type": "function"
		},
		{
			"inputs": [
				{
					"internalType": "address",
					"name": "pair",
					"type": "address"
				},
				{
					"internalType": "bool",
					"name": "enabled",
					"type": "bool"
				}
			],
			"name": "setLpPair",
			"outputs": [],
			"stateMutability": "nonpayable",
			"type": "function"
		},
		{
			"inputs": [
				{
					"internalType": "uint256",
					"name": "percent",
					"type": "uint256"
				},
				{
					"internalType": "uint256",
					"name": "divisor",
					"type": "uint256"
				}
			],
			"name": "setMaxTxPercent",
			"outputs": [],
			"stateMutability": "nonpayable",
			"type": "function"
		},
		{
			"inputs": [
				{
					"internalType": "uint256",
					"name": "percent",
					"type": "uint256"
				},
				{
					"internalType": "uint256",
					"name": "divisor",
					"type": "uint256"
				}
			],
			"name": "setMaxWalletSize",
			"outputs": [],
			"stateMutability": "nonpayable",
			"type": "function"
		},
		{
			"inputs": [
				{
					"internalType": "address",
					"name": "newRouter",
					"type": "address"
				}
			],
			"name": "setNewRouter",
			"outputs": [],
			"stateMutability": "nonpayable",
			"type": "function"
		},
		{
			"inputs": [
				{
					"internalType": "bool",
					"name": "_antiSnipe",
					"type": "bool"
				},
				{
					"internalType": "bool",
					"name": "_antiGas",
					"type": "bool"
				},
				{
					"internalType": "bool",
					"name": "_antiBlock",
					"type": "bool"
				},
				{
					"internalType": "bool",
					"name": "_antiSpecial",
					"type": "bool"
				}
			],
			"name": "setProtectionSettings",
			"outputs": [],
			"stateMutability": "nonpayable",
			"type": "function"
		},
		{
			"inputs": [
				{
					"internalType": "uint16",
					"name": "liquidity",
					"type": "uint16"
				},
				{
					"internalType": "uint16",
					"name": "marketing",
					"type": "uint16"
				},
				{
					"internalType": "uint16",
					"name": "burn",
					"type": "uint16"
				}
			],
			"name": "setRatios",
			"outputs": [],
			"stateMutability": "nonpayable",
			"type": "function"
		},
		{
			"inputs": [
				{
					"internalType": "uint256",
					"name": "thresholdPercent",
					"type": "uint256"
				},
				{
					"internalType": "uint256",
					"name": "thresholdDivisor",
					"type": "uint256"
				},
				{
					"internalType": "uint256",
					"name": "amountPercent",
					"type": "uint256"
				},
				{
					"internalType": "uint256",
					"name": "amountDivisor",
					"type": "uint256"
				}
			],
			"name": "setSwapSettings",
			"outputs": [],
			"stateMutability": "nonpayable",
			"type": "function"
		},
		{
			"inputs": [
				{
					"internalType": "uint16",
					"name": "reflectFee",
					"type": "uint16"
				},
				{
					"internalType": "uint16",
					"name": "liquidityFee",
					"type": "uint16"
				},
				{
					"internalType": "uint16",
					"name": "marketingFee",
					"type": "uint16"
				},
				{
					"internalType": "uint16",
					"name": "burnFee",
					"type": "uint16"
				}
			],
			"name": "setTaxesBuy",
			"outputs": [],
			"stateMutability": "nonpayable",
			"type": "function"
		},
		{
			"inputs": [
				{
					"internalType": "uint16",
					"name": "reflectFee",
					"type": "uint16"
				},
				{
					"internalType": "uint16",
					"name": "liquidityFee",
					"type": "uint16"
				},
				{
					"internalType": "uint16",
					"name": "marketingFee",
					"type": "uint16"
				},
				{
					"internalType": "uint16",
					"name": "burnFee",
					"type": "uint16"
				}
			],
			"name": "setTaxesSell",
			"outputs": [],
			"stateMutability": "nonpayable",
			"type": "function"
		},
		{
			"inputs": [
				{
					"internalType": "uint16",
					"name": "reflectFee",
					"type": "uint16"
				},
				{
					"internalType": "uint16",
					"name": "liquidityFee",
					"type": "uint16"
				},
				{
					"internalType": "uint16",
					"name": "marketingFee",
					"type": "uint16"
				},
				{
					"internalType": "uint16",
					"name": "burnFee",
					"type": "uint16"
				}
			],
			"name": "setTaxesTransfer",
			"outputs": [],
			"stateMutability": "nonpayable",
			"type": "function"
		},
		{
			"inputs": [
				{
					"internalType": "address payable",
					"name": "marketingWallet",
					"type": "address"
				}
			],
			"name": "setWallets",
			"outputs": [],
			"stateMutability": "nonpayable",
			"type": "function"
		},
		{
			"inputs": [],
			"name": "staticVals",
			"outputs": [
				{
					"internalType": "uint16",
					"name": "maxReflectFee",
					"type": "uint16"
				},
				{
					"internalType": "uint16",
					"name": "maxLiquidityFee",
					"type": "uint16"
				},
				{
					"internalType": "uint16",
					"name": "maxMarketingFee",
					"type": "uint16"
				},
				{
					"internalType": "uint16",
					"name": "maxburnFee",
					"type": "uint16"
				},
				{
					"internalType": "uint16",
					"name": "masterTaxDivisor",
					"type": "uint16"
				}
			],
			"stateMutability": "view",
			"type": "function"
		},
		{
			"inputs": [],
			"name": "sweepContingency",
			"outputs": [],
			"stateMutability": "nonpayable",
			"type": "function"
		},
		{
			"inputs": [],
			"name": "symbol",
			"outputs": [
				{
					"internalType": "string",
					"name": "",
					"type": "string"
				}
			],
			"stateMutability": "view",
			"type": "function"
		},
		{
			"inputs": [
				{
					"internalType": "uint256",
					"name": "rAmount",
					"type": "uint256"
				}
			],
			"name": "tokenFromReflection",
			"outputs": [
				{
					"internalType": "uint256",
					"name": "",
					"type": "uint256"
				}
			],
			"stateMutability": "view",
			"type": "function"
		},
		{
			"inputs": [],
			"name": "totalSupply",
			"outputs": [
				{
					"internalType": "uint256",
					"name": "",
					"type": "uint256"
				}
			],
			"stateMutability": "view",
			"type": "function"
		},
		{
			"inputs": [],
			"name": "tradingEnabled",
			"outputs": [
				{
					"internalType": "bool",
					"name": "",
					"type": "bool"
				}
			],
			"stateMutability": "view",
			"type": "function"
		},
		{
			"inputs": [
				{
					"internalType": "address",
					"name": "recipient",
					"type": "address"
				},
				{
					"internalType": "uint256",
					"name": "amount",
					"type": "uint256"
				}
			],
			"name": "transfer",
			"outputs": [
				{
					"internalType": "bool",
					"name": "",
					"type": "bool"
				}
			],
			"stateMutability": "nonpayable",
			"type": "function"
		},
		{
			"inputs": [
				{
					"internalType": "address",
					"name": "sender",
					"type": "address"
				},
				{
					"internalType": "address",
					"name": "recipient",
					"type": "address"
				},
				{
					"internalType": "uint256",
					"name": "amount",
					"type": "uint256"
				}
			],
			"name": "transferFrom",
			"outputs": [
				{
					"internalType": "bool",
					"name": "",
					"type": "bool"
				}
			],
			"stateMutability": "nonpayable",
			"type": "function"
		},
		{
			"inputs": [
				{
					"internalType": "address",
					"name": "newOwner",
					"type": "address"
				}
			],
			"name": "transferOwner",
			"outputs": [],
			"stateMutability": "nonpayable",
			"type": "function"
		},
		{
			"stateMutability": "payable",
			"type": "receive"
		}
	]
}